:1000000000800020BD0100003DD20000F5D10000BD
:10001000F5D10000F5D10000F5D10000F5D10000C8
:10002000F5D10000F5D10000F5D100003DD200006F
:100030003DD20000F5D1000039F400003DF400008D
:100040003DD200003DD200003DD200003DD2000074
:100050003DD200003DD200003DD200003DD2000064
:100060003DD200003DD200003DD200003DD2000054
:100070003DD200003DD200003DD200003DD2000044
:100080003DD200003DD200003DD200003DD2000034
:100090003DD200003DD200003DD200003DD2000024
:1000A000217200002D7200003DD200003DD2000000
:1000B0003DD200003DD200003DD200003DD2000004
:1000C0003DD200003DD200003DD200003DD20000F4
:1000D0003DD200003DD200003DD200003DD20000E4
:1000E0003DD200003DD200003DD200003DD20000D4
:1000F0003DD2000091DD00003DD200003DD2000065
:100100003DD200003DD200003DD200003DD20000B3
:100110003DD200003DD200003DD200003DD20000A3
:100120003DD200003DD200003DD200003DD2000093
:100130003DD200003DD2000001AE0000CDAA00007B
:100140003DD200003DD200003DD200003DD2000073
:1001500095F50000A9F50000BDF50000D1F50000FF
:100160003DD2000055E000003DD200003DD200002D
:100170003DD200003DD200003DD200003DD2000043
:100180003DD200003DD200003DD200003DD2000033
:100190003DD200003DD200003DD200003DD2000023
:1001A0003DD200003DD200003DD200003DD2000013
:1001B0003DD200003DD20000F5F10000564B4CF25C
:1001C000205210B51A804DF628121A8000BF00BFC9
:1001D00000F09EFB514B4FF010621A60504A9A603B
:1001E000504ADA60504A136813F4807304D14F49BF
:1001F0000B604FF4A85313604D4B1A78110703D5C9
:100200001A7842F008021A704A4B4B492A221A7097
:100210004A4A4B4B8B4204D252F8040F43F8040B6A
:10022000F8E7484B484900228B4202D243F8042B9E
:10023000FAE74649464A002352F8230041F82300D2
:1002400001336F2BF8D1434B434A802103F8011B44
:100250009342FBD1414B3D4A1A60414B8A221A70AE
:10026000A3F5805324225A70A0221A709A7992071B
:10027000FCD59A79D406FCD43A4A937903F00C035E
:10028000082B384BF9D105221A7143225A719A79F9
:100290009006FCD5334A9179324B4906FBD5324A58
:1002A0004FF0817111600521516020221A709A79F6
:1002B00002F00C020C2AFAD12C4B2D4A1A602D4B5D
:1002C0002D4A1A6000225A60072243F8042C2B4A58
:1002D000C3F80C2D62B60DF0BBF9144B1B68DA079E
:1002E00005D527480DF014F9264B274A1A60274BED
:1002F0001B785B0609D5234C234B22689A4204D114
:100300001F480DF005F90023236012F0C5FA0CF028
:1003100099FF0FF009FCFEE70E20054030800440F5
:10032000823F04000100002B10D0034014D0034092
:1003300002D0074000E007401010002008BC020077
:1003400020F9FF1F10100020983D002000F4FF1F2F
:100350000000000000E400E05FE400E008ED00E0E1
:1003600000500640004006404480044004800440A1
:10037000C010050014E000E03F190100000020203B
:10038000D10E47621CE00340A5C3945A00F0074019
:10039000FFFFFFFFFFFFFFFFFFFFFFFFFFFFFFFF6D
:1003A000FFFFFFFFFFFFFFFFFFFFFFFFFFFFFFFF5D
:1003B000FFFFFFFFFFFFFFFFFFFFFFFFFFFFFFFF4D
:1003C000FFFFFFFFFFFFFFFFFFFFFFFFFFFFFFFF3D
:1003D000FFFFFFFFFFFFFFFFFFFFFFFFFFFFFFFF2D
:1003E000FFFFFFFFFFFFFFFFFFFFFFFFFFFFFFFF1D
:1003F000FFFFFFFFFFFFFFFFFFFFFFFFFFFFFFFF0D
:10040000FFFFFFFFFFFFFFFFFFFFFFFFDEF9FFFF23
:1004100010B5054C237833B9044B13B10448AFF33E
:1004200000800123237010BD101000200000000088
:1004300004BC0200084B10B51BB108490848AFF3D3
:1004400000800848036803B910BD074B002BFBD0A0
:10045000BDE81040184700BF000000001410002045
:1004600004BC0200101000200000000000207047B3
:10047000704700BF027C02F0080202F0FF0332B1B5
:10048000C36A406A181A48BF6FF0004070471846A8
:10049000704700BFF8B55548554D564C297803783C
:1004A0002278DFF868E1544F544E120442EA0323E5
:1004B000FF222A700270802022708EF800003870AF
:1004C000B2794F480B4312F00C0FC36002D1B379DD
:1004D000DC063DD4494A9379C3F38103032B40D012
:1004E000464B9A79C2F38102022A42D0434A937959
:1004F000C3F38103022B53D0404A9379C3F38103A2
:10050000022B61D03D4A9379C3F38103012B51D073
:100510003A4A9379C3F38103012B5CD0374B9A7924
:1005200012F00C0F03D19A79D20600D49B79354D85
:10053000354B2A7853F82240D4B1236820469B6873
:1005400098472B7804EB83046468002CF5D1F8BD40
:10055000B3799806EBD5294A9379C3F38103032B2A
:10056000BED19379D906BBD493799B06DFD4B7E784
:10057000F8BD9A79D706B9D49A799606B6D559783E
:1005800001F0020101F0FF020029AFD120211A7011
:100590001A461970937903F00C030C2BFAD1C6E7B5
:1005A0009379DD06A8D493799C06A5D4537898074F
:1005B000BDD5A1E79379DF06AAD593799E06A7D486
:1005C00053789D07B3D4A3E79379D9069AD4537887
:1005D0009B07ACD496E79379DC069FD59379980670
:1005E0009CD453789907A2D598E700BF06C007406E
:1005F00005C0074007C0074009C00740004006404B
:10060000703D0020403700200037002008C0074020
:1006100090F92410104B03604B1C06D0F0B40F4E21
:1006200056F82130984201D0F0BC70470C4F57F873
:10063000213033B18D0000245A1953685460002BC7
:10064000FAD1084C23780022013B237047F821207F
:1006500046F82120E8E700BF2C9F0100203700204A
:10066000003700204137002038B590F924506B1C2A
:100670001BD00E4B0E4953F825400E4BEDB24FF0F8
:10068000FF320D701A6084B1AD0002E02C44646842
:100690005CB194F82530002BF8D0236820462C4418
:1006A0001B6898476468002CF3D138BD00370020E0
:1006B00040370020B8F3FF1F704700BF90F92410A7
:1006C000104B03604B1C06D0F0B40F4E56F821308F
:1006D000984201D0F0BC70470C4F57F8213033B12D
:1006E0008D0000245A1953685460002BFAD1084C2D
:1006F00023780022013B237047F8212046F821206F
:10070000E8E700BF2C9F01002037002000370020C1
:100710004137002090F92410104B03604B1C06D089
:10072000F0B40F4E56F82130984201D0F0BC70471B
:100730000C4F57F8213033B18D0000245A195368FB
:100740005460002BFAD1084C23780022013B23701F
:1007500047F8212046F82120E8E700BF2C9F010040
:1007600020370020003700204137002010B500213D
:1007700004460EF0A9FCB0B1B4F8B4319BB2C3B1D9
:10078000B4F8B031B4F8B2219BB20133632BC8BFC7
:10079000002392B2934207D09A1D04EB82029BB2CF
:1007A0005060A4F8B03110BDD4F8B8310133C4F8AA
:1007B000B831BDE810400EF043BC00BF103007F068
:1007C0006FBA00BF00B583B002AB012203F8011D70
:1007D0001030194607F064FA03B05DF804FB00BF5F
:1007E000103007F07FB900BF00B583B001220DF1D2
:1007F0000701103007F074F801280CBF9DF80700BE
:100800004FF0FF3003B05DF804FB00BF103007F07D
:1008100041BA00BF0CF076BE2DE9F0410E4680468D
:100820000CF070FE174D286009F080F90746286823
:1008300009F06EF90446286809F05CF96401C0B259
:1008400004F4FF54BFB20443A7F2BC7744EA472440
:10085000A8F80040286809F023F90746286809F03D
:100860002DF90446286809F037F9FF02640107F4FE
:10087000FF2704F4FF54C0F346003C430443348094
:10088000BDE8F0818410002010B504460EF060FE33
:10089000204610BD10B5034B036004460AF018FA59
:1008A000204610BD74B8010010B504460EF04CFC93
:1008B000204610BDB0F8B231B0F8B0119BB289B289
:1008C0008B4202460FD00133632B86BF00210B46BB
:1008D00099B2063300EB83035868C2F8AC01A2F862
:1008E000B211043070470020704700BF38B504468D
:1008F00008460D4612F084FF2368024629465B68CD
:1009000020469847054620460EF0A8FE284438BDEC
:10091000464A474B102010801B781B0734D5F0B592
:10092000444E454D454C31782B782278DFF82CE148
:10093000434F824042EA03230B43FF22802132705F
:100940002A7022708EF800103970D9073D4A14D5EC
:100950001A2393603C4F3D4E3D4D3E4C3E4910792D
:1009600000233B7053709370D370D3603370137156
:100970002B70237013700870F0BD1F0705D4DE06BE
:1009800006D504239360E5E7704721239360E1E7F0
:100990009D0604D45C0604D516239360DAE79060C4
:1009A000D8E7180602D509239360D3E7D90502D505
:1009B0000A239360CEE79F0502D50D239360C9E714
:1009C0005E0502D50B239360C4E71D0502D51E23E7
:1009D0009360BFE7DC0402D502239360BAE7980472
:1009E00002D507239360B5E7590402D50623936027
:1009F000B0E71F0402D515239360ABE7DE0302D5F1
:100A000024239360A6E79D0302D522239360A1E7E8
:100A1000DC0202D5252393609CE71803F5D4590323
:100A2000F3D49B0244BF2323936093E70020054047
:100A300002D0074005C0074006C0074007C0074076
:100A400009C00740703D002000C0074001C00740BA
:100A500002C0074003C0074004C0074008C0074069
:100A6000002976D02DE9F04F0C469100631883B031
:100A70005D68002D57D06B185E68002E50D073183B
:100A80005F68002F49D07B18D3F80480B8F1000FBD
:100A90003CD008EB0103D3F80490B9F1000F32D039
:100AA00009EB0103D3F804A0BAF1000F27D00AEB39
:100AB0000103D3F804B0BBF1000F18D00BEB010316
:100AC0005B6863B1194401934968FFF7C9FF019B53
:100AD00093F825201AB11A681846536898479BF86E
:100AE000253023B1DBF8003058465B6898479AF808
:100AF000253023B1DAF8003050465B68984799F802
:100B00002530002B35D198F8253063BB97F8253078
:100B10001BB13B6838465B68984796F82530CBB9DF
:100B200095F8253063B994F8253013B903B0BDE8C2
:100B3000F08F23685B68204603B0BDE8F04F18478C
:100B40002B6828465B68984794F82530002BEDD039
:100B5000EFE77047336830465B68984795F8253073
:100B6000002BE0D0ECE7D8F8003040465B689847AF
:100B7000CCE7D9F8003048465B689847C3E700BF28
:100B800090F92420531C26D01B4B2DE9F04153F83B
:100B90002240D2B2ECB19300E1184D68B5B1E9182A
:100BA0004E6866B1F1184F6837B13B445968FFF79A
:100BB00057FF97F82530A3B996F8253063B995F813
:100BC00025301BB12B6828465B68984794F8253080
:100BD00063B9BDE8F0817047336830465B68984779
:100BE000EDE73B6838465B689847E5E723682046B1
:100BF0005B68BDE8F04118470037002038B505466E
:100C0000D0F8AC0120B10EF01BFA0023C5F8AC31CE
:100C1000B5F8B241B5F8B031A4B29BB29C420ED047
:100C20000134642C28BF0024A31D05EB83035868FE
:100C30000EF006FAB5F8B0319BB29C42F0D19BB2EF
:100C4000A5F8B23138BD00BF2DE9F04F524CB4F8D1
:100C5000B031B4F8B22199B293B2994238BF64313D
:100C6000CB1A012BADF5037D70DD4C4AD4F8AC51A5
:100C70001368494E01331360002D75D002A84FF45C
:100C80008072002101900BF0DBFF28460EF0D8F9AE
:100C90000023C4F8AC31404D2846FFF70BFE4FF45B
:100CA0008072014642A80BF0CBFFD4F8AC0120B112
:100CB0000EF0C6F90023C5F8AC31394BB3F900800A
:100CC000384BB3F90050384BD3E900674FF0000AB6
:100CD000D3460DF109040DF20929227814F8013CDC
:100CE00043EA02231BB24345C8BF98461846C8BF13
:100CF0004FF0010BAB42BCBF1D464FF0010A11F093
:100D000083F94FF0605111F0D3F9014611F0D0F999
:100D100010F024FD02460B463046394610F0C0FB69
:100D200002344C4506460F46D7D1BBF1000F2BD1FC
:100D3000BAF1000F2CD11D4A1D4913681A480978D1
:100D400003F58073C0E90067136019B90DF5037DE1
:100D5000BDE8F08F019917484FF4007206F0A0FF2C
:100D60000DF5037DBDE8F08F3046FFF7A3FD02AB24
:100D7000D6F8AC51019301464FF4807218460BF03F
:100D80005FFF002D87D080E7054BA3F80080CFE7F9
:100D9000044B1D80CFE700BF901500204C100020B1
:100DA00094350020F42E0020E0350020601900204A
:100DB000C4FAFF1FB835002038B50D21124C134876
:100DC0000DF0B6FF12480EF049FC2588114810219D
:100DD0000DF0AEFF29460E480EF0A6FC0C480EF0B2
:100DE0003DFC0D4B0D490E4A09881B7821800021DE
:100DF000A2F8B41113B10B4806F004FD6420BDE85D
:100E000038400CF0D5BB00BFE83C0020649F0100D7
:100E1000AC050020749F0100C4FAFF1F103D0020A4
:100E200090150020B8350020714B93E803002DE9A0
:100E3000F041704C704D714F714E0123238184E855
:100E4000030008226F4904F10C0012F097FD0822FC
:100E50006D4904F1140012F091FD08226B4904F170
:100E60001C0012F08BFD0822694904F1240012F0E5
:100E700085FD2946082204F16C0012F07FFD294609
:100E8000082204F1740012F079FD2946082204F1C9
:100E90007C0012F073FD2946082204F1840012F050
:100EA0006DFD5C4A5C4BD2F800801968404610F03A
:100EB000F7FF5A4BC4F8CC0005464146186810F0BD
:100EC000EFFF574BC4F8D00093E8030004F5FC7320
:100ED00083E803000923A4F8003208225149C4F82A
:100EE000D45004F50170C4F8D85012F047FD082220
:100EF0004D4904F5037012F041FD08224B4904F5F9
:100F0000057012F03BFD0822494904F5077012F004
:100F100035FD0822474904F5097012F02FFD08221B
:100F2000454904F50B7012F029FD0822434904F5E8
:100F30000D7012F023FD0822414904F50F7012F0E4
:100F40001DFD08223F4904F5117012F017FD3946C6
:100F5000082204F5197012F011FD3946082204F533
:100F60001B7012F00BFD3946082204F51D7012F0BB
:100F700005FD354B93E8030004F51F7282E803007A
:100F800004F5237304F5217282E8030083E803006B
:100F90000822314604F5257012F0F0FC3146082293
:100FA00004F5277012F0EAFC0822314604F5297096
:100FB00012F0E4FC254B186811F026F84FF0605150
:100FC00011F076F8224A234BC4F8C402C4F8C802D0
:100FD000C4F8CC02C4F8D022C4F8D422C4F8D82271
:100FE000C4F8DC32C4F8E032C4F8E432BDE8F08181
:100FF000889F0100482F0020B49F0100709F0100CE
:1010000000A00100949F01009C9F0100A49F01008B
:10101000AC9F01004810002064FBFF1F48FBFF1F2E
:1010200004A00100B89F0100C09F0100C89F0100FB
:10103000D09F0100D89F0100E09F0100E89F0100C0
:10104000F09F0100F89F01000CA0010004FAFF1FAF
:101050000000FA3C0000163EF0B58FB000230EAC45
:101060008DF814308DF815308DF808308DF810306B
:101070004FF47A764623204D204A2149039605A84D
:1010800044F8345D06F0CCFB9DF8143043BB1D4B97
:101090001B780BB90FB0F0BD002646234FF47A77CA
:1010A000194A1749019505A88DF814608DF8156047
:1010B0008DF808608DF81060039706F0B1FB9DF87D
:1010C0001430002BE6D07E22104905A806F0E8FD7A
:1010D00020460EF0C3FA05A806F094FB0FB0F0BD51
:1010E00043220B4905A806F0DBFD20460EF0B6FAB8
:1010F00005A806F087FBCAE7089F010014A00100BD
:1011000048150020CCFAFF1F60A0010068A0010074
:101110001CA00100264B1B680F2B0CD8DFE803F046
:101120000C1014181C2024282C3034383C4044085F
:10113000204B214A1A6070471E4B204A1A607047A4
:101140001C4B1F4A1A6070471A4B1E4A1A607047A0
:10115000184B1D4A1A607047164B1C4A1A6070479C
:10116000144B1B4A1A607047124B1A4A1A60704798
:10117000104B194A1A6070470E4B184A1A60704794
:101180000C4B174A1A6070470A4B164A1A60704790
:10119000084B154A1A607047064B144A1A6070478C
:1011A000044B134A1A607047024B124A1A60704788
:1011B00038FAFF1F48100020BD549341103377C008
:1011C000993918C0BE0D68BFCE71153F8D09034017
:1011D000CCC9624009A7A3407DDBD140C4160141C0
:1011E00054FC1741D0E83041195546419FAB5F414F
:1011F000A04176415E2E864108B5054B05481A7818
:10120000114604F0B3FCBDE80840FFF783BF00BF00
:1012100038FAFF1F7834002070B472B61E491F4C94
:101220001F4A802341250E20257010700B700B780B
:1012300013F0800F1B4B05D11B4802781A700A78F7
:101240001406FAD519491A4A097859701178997013
:10125000013A1278DA7062B672B6104D0E49104833
:10126000802241260F242E7004700A700A78150619
:1012700005D40D4802781A710A781206FAD50B497E
:101280000B4A0978597111789971013A1278DA711B
:1012900062B670BC704700BF000002400700024009
:1012A000060002409C3500200B0002400A0002406C
:1012B0000900024070B500212820124D0CF04EF9B3
:1012C00000232B60202428200BF08CFE10F09CFEC5
:1012D00029680C4E10F0E4FD013C2860F3D10A4966
:1012E00010F0E6FE4FF06A5110F0E2FE4FF074513C
:1012F00010F0DEFE0121306028200CF02FF930685C
:1013000070BD00BFF8350020EC51E8402DE9F04FEA
:1013100095B00CF0F7F88F4CDFF89C92206008F045
:1013200005FC05462068DFF8948208F0F1FB0646CC
:10133000206808F0DFFB8346206808F0B1FB074611
:10134000206808F0BBFB8246206808F0C5FB824994
:10135000039033462A46CDF800B0CDF808A0019797
:101360007E4812F017F97E4B7E4A1A60FFF7A2FF03
:101370000021C9F8000046238DF82C108DF82D109F
:101380008DF820108DF828100BA84FF47A74764A47
:1013900076490994CDF81C8006F042FA9DF82C306D
:1013A000002B40F00F81724F3B78002B40F0D18131
:1013B0004FF47A750024C223684A6C4909950BA83A
:1013C0000BAD8DF82C408DF82D408DF820408DF818
:1013D0002840CDF81C8006F023FA0FCD654E97F813
:1013E00000E006F110040FC40FCD0FC428689DF86B
:1013F0002010099A9DF8283020603171B260337353
:10140000BEF1000F2CD0554812F0FAF901465348AE
:101410000DF08EFC58480EF021F90A2157480DF0C6
:1014200087FC574B186810F099F9022402460B46C6
:10143000009451480EF080F94F480EF00FF9D9F89A
:10144000000010F08BF9009402460B464A480EF05B
:1014500073F901214B480DF06BFC47480EF0FEF884
:10146000347C444E002C00F037814749474C484AB1
:10147000484B494EDFF84881D6F800A003C92060E8
:1014800092E80300A06093E803004FF010090125E3
:10149000E060C4F810905046A582E58211F00AF889
:1014A0005146A061504610F0FBFC11F003F83B4A96
:1014B000E061D8F80030A4F8229092E803005B02C3
:1014C000606203F12400606021464FF002092C2283
:1014D0003348A362A4F8209006F0E2FB3B78002B8F
:1014E00035D009212F480DF023FCD8F800102248F0
:1014F0000EF01AF920480EF0B1F80E212A480DF02E
:1015000017FC2A4B1C4819680A2200230EF0CCF85D
:1015100019480EF0A3F8306810F020F9CDF80090CB
:1015200002460B4614480EF007F9032120480DF03F
:10153000FFFB11480EF092F807211E480DF0F8FB52
:1015400029460D480EF0F0F80B480EF087F815B05C
:10155000BDE8F08F8410002000A101002C100020B5
:10156000F83600201908000014A0010048150020DA
:1015700044FBFF1FA8350020AC05002030A101006E
:10158000F43500203CA101004CA1010050100020C6
:1015900054A101005CA101004034002064A10100BD
:1015A000B83500206CA1010078A10100A43500200D
:1015B00088A101008CA10100F8350020089F0100DE
:1015C000901800206548664C12F01AF963490246EB
:1015D0000BA806F065FB14A92C2301F83B3D012262
:1015E0000DEB030006F05CFB04F1080514F8011F85
:1015F00000230A2207A80EF057F8A542F6D114A935
:101600002C2401F8354D01220DEB040006F048FBB7
:101610005449554F07A80EF087F814A9012201F884
:10162000364D0DEB040006F03BFB504B186810F0F4
:1016300095F802250B460246009507A80EF07CF8A7
:1016400014A9012201F8374D0DEB040006F028FB28
:10165000D9F8000010F082F800950B46024607A862
:101660000EF06AF814A9012201F8384D0DEB0400C0
:1016700006F016FB3E4B186810F070F804250B4678
:101680000246009507A80EF057F814A9012201F8A8
:10169000394D0DEB040006F003FB364B186810F0D3
:1016A0005DF800950B46024607A80EF045F814A910
:1016B000012201F83A4D0DEB040006F0F1FA2E4B31
:1016C00007A819680EF030F807A80DF0C7FF0DEB5A
:1016D000040006F097F86BE6284B29491A681F4862
:1016E00001321A604FF47A7511F054FFC2231B4A7D
:1016F00024498DF82C408DF82D408DF820408DF830
:1017000028400BA80BAC0995CDF81C8006F088F892
:101710000FCC06F110050FC50FCC0FC59DF8283072
:101720009DF82010099A3373B260246831710B4818
:101730002C6012F065F8014608480DF0F9FA1248DD
:101740000DF08CFF337C002B7FF48FAE0F4A1370AB
:101750008BE60E210E480DF0EBFA29E62C10002046
:101760009B350020F189340144FBFF1F4810002005
:101770006C1900206017002064360020843400209B
:1017800040A1010048150020AC050020C4FAFF1F4D
:1017900020A1010038B50E4C0E480F4D0E210DF062
:1017A000C7FA20460DF05AFFFFF7B0FD0B4B284655
:1017B00000221A60FFF722FA01230B210848A5F83E
:1017C000B4310DF0B5FA2046BDE838400DF046BF03
:1017D000AC05002094A10100901500204C100020C1
:1017E000A4A101002DE9F04F2A4A2B4B2B49DFF829
:1017F000BC8085B00293136803910133136000230A
:101800000193029B53F804BF0293039B53F8049F78
:101810000393CB4535DA019C214A224952F8240032
:1018200051F8346010F0F0FB1F4B0BF10C058246B1
:1018300003EB4505E7001DE0288810F0E1FB4FF0C1
:10184000625110F035FC04465146204610F0E4FC8D
:101850000146304610F024FB2146064658F80700A2
:1018600010F0C4FD0BF1010B023508B147F8084038
:10187000CB4504D0BBF5007FDED30024E4E7094B61
:10188000DE51019B0133192B0193BAD105B0BDE89C
:10189000F08F00BF88340020D8FAFF1F40FAFF1FE6
:1018A0009410002094180020841A0020A017002013
:1018B00030B51C4C83B0204608F0C4FE2046012100
:1018C00008F016FC2046012108F00CFC20460022FE
:1018D000412108F003FC0222204613490DF082FE4C
:1018E000124B204619680DF01FFF204600225A2196
:1018F00008F0F4FB0E4B18680FF030FF01250B4683
:101900000246009520460DF017FF2A462046094959
:101910000DF068FE00222046114603B0BDE83040BD
:1019200008F0DCBB64170020C0A10100383400209F
:10193000F83500203CA1010008B50B2106480DF048
:10194000F7F906480DF08AFEFFF7B2FF0448BDE83C
:10195000084009F011B800BFC4A10100AC05002087
:101960006417002010B501212C4808F0BBFB0121B1
:101970002A4808F0BDFB00221146284808F0AEFBBB
:10198000274B1C684CBB0322264924480DF02AFE35
:1019900022480DF063FE244A244B11681B681F483F
:1019A000C91A0DF0C1FE032221491C480DF01AFE90
:1019B000204A214B1268194853F822100DF0B4FE4A
:1019C00002221E4915480DF00DFE22461C491348FF
:1019D0000DF008FE11480DF041FE022219490F4892
:1019E0000DF000FE184B0D4819680DF09DFE012208
:1019F00016490A480DF0F6FD0322154907480DF077
:101A0000F1FD144B054819680DF08EFE01220F49B7
:101A10000248BDE810400DF0E5BD00BF641700208E
:101A200090340020D0A10100801A002084100020F2
:101A3000D4A10100A8FAFF1F10FAFF1FD8A10100CE
:101A40000CBB0100DCA10100B0FAFF1F5CA5010086
:101A5000E0A101003CFAFF1F10B50122044608492D
:101A600008480DF0BFFD092C04DC01220649054899
:101A70000DF0B8FD21460348BDE810400DF054BEFE
:101A8000A4A401006417002090B7020030B583B011
:101A900002AD079C05F8082D8DF80200069A8DF816
:101AA00004304E3428468DF801108DF805208DF84D
:101AB000064008F04BF80BF02BFD03B030BD00BF23
:101AC00030B58BB0044611F09BFE00B201281ADD40
:101AD000B4F9003044F64412934200F0AF8015DDB3
:101AE00044F64952934200F09D802EDC44F6521297
:101AF000934200F08B8044F6484293427BD044F6F8
:101B00004D1293426ED001200BB030BD44F24E42D4
:101B1000934200F0D18059DD44F24172934200F0CB
:101B2000C28044F25372934200F0B48044F25242B5
:101B30009342E8D109AA8049E01C11F051FD7F4988
:101B40007F4A099B0B601360DDE745F24822934210
:101B500000F0958045F64822934273D044F65452E3
:101B60009342D0D109AD08A907AA04AB039502910D
:101B70000192009306AA05ABE01C724911F030FDFA
:101B8000069C059D049B07A804F5FA6407C8009508
:101B90000194FFF77BFF11216B480DF0C9F808F0A5
:101BA00053F8014669480DF0BFFD68480DF056FD39
:101BB0001B2167480DF0BCF80BF0A4FC01466348FC
:101BC0000DF0B2FD61480DF049FD9CE744F2414241
:101BD00093427AD044F24C42934294D15D4B00221E
:101BE0001A7090E709AAE01C534911F0F9FC5A4B0E
:101BF000099A1A6087E7E01C09AA4F49574C11F06F
:101C0000EFFC099810F000FA20607CE7E01C09AABC
:101C1000494911F0E5FC099B1D2B5FDC504B1E224E
:101C20001A6070E709AAE01C434911F0D9FC099B2E
:101C30004C4A003318BF0123137064E74A4B01225A
:101C40001A7060E7E01C09AA3B4911F0C9FC099B26
:101C5000B3F5FA4F45D04BDD4BF6803293425CD062
:101C6000424A934252D04AF6444293427FF44BAFE9
:101C70003F4A404B4049116003221A6043E7E01C91
:101C800009AA2D493D4C11F0ABFC099810F0BCF9A4
:101C9000206038E709AAE01C274911F0A1FC384B65
:101CA000099A1A602FE709AAE01C234911F098FC51
:101CB000344B099A1A6026E709AAE01C1E4911F064
:101CC0008FFC314B099A1A601DE709AAE01C1A49DA
:101CD00011F086FC1A4B099A1A6014E7204A136027
:101CE00011E7234A234B2949116002221A600AE7AF
:101CF000B3F5FA5F18D0B3F57A5F7FF404AF1C4AEE
:101D00001C4B2349116001221A60FCE6184A194B4A
:101D10002049116005221A60F5E6154A154B1E4947
:101D2000116004221A60EEE6114A124B1B49116041
:101D300000221A60E7E600BFE4A10100B0FAFF1F2D
:101D40003C340020E8A10100FCA10100AC0500200A
:101D500010A2010030FAFF1F9C17002064FBFF1F38
:101D60003CFAFF1FCCFAFF1F44FBFF1F0077010066
:101D700040340020A8FAFF1F00442C4748FBFF1FF7
:101D800038FAFF1F04FAFF1FD8FAFF1F0000FA46B7
:101D900000007A460080BB4700803B470000FA45C0
:101DA0002DE9F043A3B000274FF47A74DFF8B8911F
:101DB000674A68490A94012319A819AE17948DF847
:101DC00030708DF831708DF824708DF82C708DF88E
:101DD00064708DF865708DF858708DF86070CDF86E
:101DE0002090CDF8549005F01BFD0FCE0CAC0FC425
:101DF0000FCE0FC49DF83030306817999DF85860A9
:101E00009DF8602020608DF824600A918DF82C20C8
:101E1000002B3FD0B846FF268DF800800024012219
:101E200015A90CA805F05CFD22AB012803EB040208
:101E300004F1010322D002F8886C1CB2FF221D2C91
:101E400001DC0A2AEBD1013CA4B222AB234403F803
:101E5000888C9DF800302F2B04D0012C02D96846C5
:101E6000FFF72EFE9DF830301B070ED40CA805F0AE
:101E7000C9FCD7B9012023B0BDE8F0839DF85420F8
:101E80000D2A55D11D2CCADDDDE7139A119B9A420C
:101E9000C2D1EBE7142130480CF04AFF2F480DF077
:101EA000DDFB012023B0BDE8F0830B212C480CF0B2
:101EB0003FFF294600230A2228480DF0F5FB0024A5
:101EC00026480DF0CBFB4FF47A768DF864408DF800
:101ED00065408DF858408DF8604063231C4A1D49C9
:101EE000179619A819ACCDF8549005F099FC0FCCB1
:101EF0000CAE0FC60FCC0FC621689DF86030179A44
:101F00009DF8584031600CA829468DF82C300A9273
:101F10008DF8244005F01AFE022212490CA805F0A3
:101F2000BFFE0CA805F06EFC012023B0BDE8F083D5
:101F300022A921441CB2012C01F8882C7FF47FAF28
:101F4000542A7FF47CAF119D0746013D79E700BF1D
:101F50002CA201004815002048A20100AC05002079
:101F600038A2010044A20100089F010038B50546CF
:101F700007F0DCFD1E4C014620460DF0D5FB2D2060
:101F80000CF05AFF284607F0C3FD014620460DF02D
:101F9000CBFB2D200CF050FF284607F0ABFD01468F
:101FA00020460DF0C1FB012112480CF0C1FE28466D
:101FB00007F076FD014620460DF0B6FB3A200CF006
:101FC0003BFF284607F07AFD014620460DF0ACFBAA
:101FD0003A200CF031FF284607F07EFD01462046EE
:101FE0000DF0A2FB2046BDE838400DF037BB00BF26
:101FF000AC05002044A4010038B505460BF0B8F844
:10200000074C2070681C0BF0B3F86070A81C0BF034
:10201000AFF8A070E81C0BF0ABF8E070206838BD9A
:10202000881000202DE9F0410020FFF7E5FF1B4C50
:102030001B4F20600420FFF7DFFF386005460820B3
:102040000BF096F8DFF8648006460920C8F80060B7
:102050000BF08EF82368134A002B10601BDDB3F5DC
:10206000616FC4BF4FF4616323601D2D0DDC40F22E
:102070003A233B60052E84BF0423C8F800300D28A6
:1020800084BF04231360BDE8F081074B9D42C4BFA9
:102090003C233B60EEE71E232360E6E7B0FAFF1F18
:1020A0003CFAFF1F38FAFF1F80510100A8FAFF1FFA
:1020B00038B50A4C0B460546C9B223600BF072F8DE
:1020C0006178681C0BF06EF8A178A81C0BF06AF818
:1020D000E178E81CBDE838400BF064B888100020B7
:1020E00008B50B4B00201968FFF7E2FF094B0420ED
:1020F0001968FFF7DDFF084B082019780BF052F83C
:10210000064B09201978BDE808400BF04BB800BF1A
:10211000B0FAFF1F3CFAFF1FA8FAFF1F38FAFF1F93
:10212000F8B504460FF01AFB00220F4B0EF020FD0D
:1021300006460F4620460D4910F06EF810F094F94F
:102140000FF062FF0FF00AFB002204460D46084B19
:10215000304639460FF080FC02460B4620462946A1
:102160000FF09EF9F8BD00BF000059400000C842C2
:1021700000004E402DE9F0472428B8B002AF0FD040
:10218000A04BA14C1A68511CFF29A054C8BF0022C3
:1021900007F1D807D4BF19601A60BD46BDE8F087C3
:1021A000984D994C2B680A2B9A465EDD607894F81E
:1021B00002C094F803E0267994F80580A17994F898
:1021C0000790227A502808BFBCF14D0F0CBF0123A5
:1021D0000023BEF1540F14BF002303F001034B2E64
:1021E00014BF002303F00103B8F14C0F14BF002308
:1021F00003F001034F2914BF002103F00101B9F1DD
:10220000580F14BF002101F0010194F80990A37A3E
:102210002C2A14BF002201F00102B9F1320F14BFC1
:10222000002202F00102E17A2A2B14BF002302F0FF
:102230000103342914BF002303F001032BB1237BD6
:10224000372B02D1714B01221A70472808BFBEF10B
:10225000520F0CBF012000204D2E14BF002600F0AD
:10226000010616B1B8F1430F07D024220123D83755
:1022700022702B60BD46BDE8F087654B1A686E463C
:102280002AB9BCF1500F00F0B48001221A600AF1A3
:10229000FF334FF0000CE3185E499A4660466246F1
:1022A000E64605E003F8C48C0CF1010C514515D04D
:1022B00011F8018F131A07F1D8094B44B8F12C0F0C
:1022C0006344EFD1121A07F1D8031A446244013073
:1022D00002F8C4EC4FF0000C0201E7E7131A07F113
:1022E000D8021344634400214B4A03F8C41C07F18D
:1022F00023004A4B00924A494A4A11F071F93A4682
:10230000494907F1320011F06BF907F10C02474916
:1023100007F1410011F064F93A1D434907F15000FB
:1023200011F05EF907F11002404907F15F0011F06A
:1023300057F907F108023C4907F16E0011F050F916
:102340003B4B00933B4A3C4B354907F19B0011F056
:1023500047F93B78412B01D0B54686E737483A79B3
:1023600037493B7A0270F8680B70532A396908BF05
:1023700000F10040572B8A463FD0FFF7D1FE0FF007
:1023800039FDDFF8D890DFF8D88003465046C9F809
:102390000030FFF7C5FE0FF02DFD2A4B2A4A1B78AF
:1023A000C8F8000001211160002BD5D00321274877
:1023B0000CF0BEFCD9F800000FF0D0F90B4602215A
:1023C0000246009122480DF0B7F9042121480CF093
:1023D000AFFCD8F800000FF0C1F9022300930246C9
:1023E0000B461B480DF0A8F919480DF037F9B54612
:1023F0003BE7194A0221116047E701F100439A4681
:10240000BBE700BF8010002094340020F03500208E
:102410006819002093340020EC350020D4FAFF1F07
:10242000E8A2010040FAFF1FF4A20100F8A2010097
:10243000C8FAFF1FC0FAFF1F08FAFF1F7C10002018
:102440006036002044FBFF1F64360020FCA2010020
:10245000AC05002000A3010060FBFF1F6C190020E9
:10246000601700202DE9F0418846044616213148C6
:102470000CF05EFCB8F1000F4BDD0025013C2F464F
:102480002E4611E0002310222B480DF00DF90421F7
:102490002A480CF04DFC012D05F1010502DD2378E1
:1024A0001E443744A8450CD014F8010F08F048FC2E
:1024B00021780F29E6D8012121480CF039FC217838
:1024C000E0E7F6B2FFB2304608F03AFC384608F0D2
:1024D00037FC08F08DFC0F2E3C4625DD31460023ED
:1024E000102215480DF0E0F8042114480CF020FCEF
:1024F0000F2F03DC012112480CF01AFC21460023A7
:1025000010220D480DF0D0F80B48BDE8F0410DF059
:10251000A5B80024002008F013FC204608F010FCA9
:1025200008F066FC26462746012105480CF000FC11
:10253000D4E700BF08A30100AC05002020A30100E0
:1025400090B7020008B50CE00B4808F0D5FA00235C
:10255000C1B2102209480DF0A7F8012108480CF07B
:10256000E7FB054808F0FEFA0028EDDC0348BDE86B
:1025700008400DF073B800BF68360020AC0500209D
:1025800044A4010008B54D4B1B68012B10D001215C
:1025900005200AF0CFFF64200BF00AF831224849E9
:1025A00048480DF01FF84748BDE808400DF056B800
:1025B0001722454943480DF015F842480DF04EF8F2
:1025C00008F016FC0A200AF0F3FF17223F493D48A5
:1025D0000DF008F83B480DF041F808F009FC0A201E
:1025E0000AF0E6FF17223A4936480CF0FBFF35485F
:1025F0000DF034F808F0FCFB0A200AF0D9FF17228E
:10260000344930480CF0EEFF2E480DF027F808F062
:10261000EFFB0A200AF0CCFF17222F4929480CF0C3
:10262000E1FF28480DF01AF808F0E2FB17222B49C9
:1026300024480CF0D7FF23480DF010F80A200AF0C8
:10264000B7FF172226491F480CF0CCFF1D480DF09C
:1026500005F80A200AF0ACFF08F0CAFB32200AF0A5
:10266000A7FFFFF76FFF07211E480CF061FB1E4814
:102670000CF0F4FF2A211D48FFF7F4FE1A480CF075
:10268000EDFF4FF448700AF093FF092118480CF051
:102690004FFB15480CF0E2FFFFF754FF17221549D6
:1026A00008480CF09FFF07480CF0D8FF0A200AF0FA
:1026B0007FFFBDE8084008F09BBB00BF60FBFF1F29
:1026C000B4A201006836002028A3010040A3010045
:1026D00058A3010070A3010088A30100A0A301007A
:1026E000B8A30100D0A30100AC050020389F010071
:1026F000D8A30100E4A3010038B51D4C1D481E4DB0
:1027000007210CF015FB20460CF0A8FF2A211B48DE
:10271000FFF7A8FE20460CF0A1FF4FF448700AF026
:1027200047FF092128460CF003FB20460CF096FFDA
:10273000FFF708FF062112480CF0FAFA20460CF0C9
:102740008DFF0E210F48FFF78DFE20460CF086FF0F
:102750004FF448700AF02CFF284609210CF0E8FAE3
:1027600020460CF07BFFBDE83840FFF7EBBE00BF12
:10277000AC050020D0A30100D8A30100389F0100C0
:10278000FCA3010084A801002DE9F041334E344D33
:102790003368DFF8E88084B040F6A6600193002338
:1027A000019F2B6008F0EEF9FFF7ECFE2968336813
:1027B0000293029BD8F80020DB1B934210D279B918
:1027C000284808F0CFF900282648EFDD08F094F9F2
:1027D000C4B220460CF030FB2046FFF7CBFCEFE7FD
:1027E000102121480CF0A4FA3368039303991F4881
:1027F00000230A22C91B0CF057FF1C480CF02EFFC7
:1028000009211B480CF094FA296818480CF08CFF39
:1028100016480CF023FF174B1B68012B04D008F05F
:1028200057FA04B0BDE8F081172213490D480CF0A7
:10283000D9FE0C480CF012FF0A200AF0B9FE08F08D
:10284000D7FA32200AF0B4FEFFF77CFEFFF754FF00
:1028500008F03EFA04B0BDE8F08100BF8C3A0020D9
:10286000643600206836002004A40100AC05002076
:1028700018A4010060FBFF1FB8A30100BCFAFF1FF2
:102880002DE9F041184B194E194D82B0002240F647
:10289000A6601A6008F076F933680093DDF80080CE
:1028A0004EF660272B684BB11AE008F025F9C4B248
:1028B00020460CF0C1FA2046FFF75CFC0D4808F0FA
:1028C00051F900280B48F0DC33680193019BC8EBF9
:1028D0000303BB42E6D9084A0221012311602B60A1
:1028E00002B0BDE8F08100BF643600208C3A0020C1
:1028F000681900206836002060FBFF1F2DE9F04FAB
:1029000085B0FEF7D5FFAB48AB4C0CF0A7FE12220A
:10291000AA49A8480CF066FEA6480CF09FFE224685
:102920000921A74806F054F9237813F0C00300F0FA
:10293000A581402B00F019810D21A2480CF0F8F977
:10294000002319460A22A0480CF0AEFE9E480CF067
:1029500085FE0024274600230A2239469548DFF8E1
:10296000C0B2DFF8C0A20CF09FFE01229749914847
:102970000CF038FE0A22002321468E480CF094FE0B
:102980008C480CF06BFE8B4807F0F6FFDBF800601C
:10299000DAF8000030440FF037FB054630460FF000
:1029A00033FB29460FF038FC2946044688480FF0CF
:1029B00033FC214605464FF07E500FF06FFA294652
:1029C0000FF06CFA834B8146196820460FF070FBBC
:1029D000814B8046196848460FF06AFB0146404625
:1029E0000FF05EFA7D4B8046196828460FF060FBB9
:1029F000014640460FF054FA794B804618680FF0B4
:102A000003FB78490FF054FB774A03904146106866
:102A10000FF002FC039B014618460FF049FB0FF034
:102A200049FD0390002F40F0FF80704B00201F6095
:102A300021460FF0F1FB082106466D480CF078F9AD
:102A4000DBF8001060480CF06FFE5F480CF006FEEB
:102A50000A2168480CF06CF9DAF800105A480CF0BA
:102A600063FE59480CF0FAFD0D2163480CF060F943
:102A700020460EF073FE022402460B460094524894
:102A80000CF05AFE50480CF0E9FD12215B480CF0A6
:102A90004FF928460EF062FE009402460B464A4863
:102AA0000CF04AFE48480CF0D9FD0F2154480CF0B8
:102AB0003FF948460EF052FE009402460B4642484B
:102AC0000CF03AFE40480CF0C9FD0D214D480CF0C9
:102AD0002FF940460EF042FE009402460B463A485B
:102AE0000CF02AFE38480CF0B9FD03980FF088FA74
:102AF0000146074630460FF097FC2E2200210028A1
:102B000040F0D6802B48404D07F0E8FA0D223F49AF
:102B100028480CF067FD30463D490FF07DFB064626
:102B20000EF01CFE00940B46024622480CF004FEF8
:102B3000012238491F480CF055FD0E2136482E6001
:102B40000CF0F6F820480CF089FD28680EF006FE1F
:102B5000022402460B4600941B480CF0EDFD1A4877
:102B600005B0BDE8F04F0CF079BD637A227AE079C8
:102B7000013303EB022303EB004080020FF040FA25
:102B800026490FF095FA0FF095FC0D2104460D48EB
:102B90000CF0CEF8214600230A220B480CF084FDED
:102BA00009480CF05BFDC72C8CBFA4F1C8070027B7
:102BB000D1E600BF641700205017002024A40100B4
:102BC0006C15002038A40100AC05002048A40100C9
:102BD0000000204258FBFF1FB8FAFF1FB4FAFF1F86
:102BE00040FBFF1F00006145ACFAFF1F6419002085
:102BF0004CA4010058A4010064A4010074A40100C5
:102C000088A4010098A401003C2F0020C8A4010062
:102C100000C0A84708A50100D8A40100BD37063AA6
:102C2000B0FAFF1F3CFAFF1F38460FF0E9F90746DC
:102C300070000FF0E9F9314B19680FF039FA30499B
:102C40000FF02EF94FF08E410FF02AF92D490FF0B9
:102C5000E3FA2C490FF0E0FA014638460FF0DCFAAF
:102C60000EF07CFD0DF0FCFE0FF0A4F8264A0346A2
:102C7000136000FB06F00FF0C3F9D9E6657AA3797B
:102C8000E279A07A6179267A05F00304640003F002
:102C90000303920044EAD01001F00F0142EA8323BB
:102CA000084443EA96130738013303FA00F065E756
:102CB0001648174D07F012FA0E22164913480CF069
:102CC00091FC039B14491148A1FB0331090C00231B
:102CD0000A220CF0E9FC012210490C480CF082FC9D
:102CE00038460F490FF098FA0F2128600D480CF074
:102CF0001FF80D480CF0B2FC27E700BF403400205D
:102D00000000304200007A4464190020641700205B
:102D10003C2F0020A8A4010007452EC208A50100F1
:102D200000C0A847B8A40100AC050020F0B59DB0D4
:102D300000264FF47A753C4C3C48049502948DF87B
:102D400018608DF819608DF80C608DF8146004F02F
:102D500059FD37491CAF01F23C4004F0BBFD119511
:102D60000123344A31498DF84C608DF84D608DF85F
:102D700040608DF8486013A847F8344D13AC04F058
:102D80004FFD0FCC06AD0FC50FCC0FC59DF8180039
:102D900024689DF84010119A9DF848302C608DF8F9
:102DA0000C1004928DF8143008B91DB0F0BD3346F4
:102DB000C822214906A804F059FEB04206A81CDD2D
:102DC00004F020FD0B211D480BF0B2FF1A4810F053
:102DD00017FD014618480BF0ABFF19480CF03EFCFC
:102DE0003B4601AA1749144810F0FAFB9DF804303D
:102DF000772B06D001201DB0F0BD04F003FD304656
:102E0000D3E7114C0F9B114823600E210BF090FF6C
:102E100021680B4833460A220CF046FC08480CF0A7
:102E20001DFC0120C1E700BF089F010048150020DC
:102E30000C110020E8A4010078190020F8A401007A
:102E4000AC05002004A50100D82E00200CA501002F
:102E50002DE9F04F83B00F460190806800210130CA
:102E600016460FF0E7F8014629480FF0D5F9044659
:102E700030460FF0C5F801460FF012F80646384606
:102E80000FF0BEF8014630460FF012F90146204619
:102E90000FF0C2F94FF001084FF07E550746C146CA
:102EA0004FF0010A4FF0000B50460FF0ADF83946D5
:102EB0000FF0FEF804460FF0D7FA0FF0A5F8014620
:102EC00020460EF0EBFF294606460FF08FFA4FF032
:102ED000874148B120460FF089FA28B120460FF00B
:102EE00009FB35468046D1461AF1010A4BF1000B29
:102EF000BBF1000F08BFBAF1400FD5D1019809F11D
:102F0000FF3208F1FF3380E80C0003B0BDE8F08F1A
:102F10004054094C2DE9F04110298AB00C4607466F
:102F200063D0202904BF012309932246394607A80C
:102F3000FFF78EFF0798089E099D0294431C0136F7
:102F400001350393049605950FF05AF84FF07E5122
:102F50000EF0A6FF26490FF0ABF8804630460FF082
:102F60004FF8014640460FF057F94FF07C510FF0F3
:102F70009FF8064628460FF043F8014630460FF00A
:102F80004BF9054660000FF03FF8014628460FF068
:102F900043F90FF069FA174B01901A46009716494A
:102FA0001648174D174C0CF071FB174917480B6862
:102FB00023F010430B60079A089B120302F47F2250
:102FC000C3F30B0313432B609DF8243043F0E063FD
:102FD00023609DF8243043F08E4303600B6843F078
:102FE00010430B600AB0BDE8F081032309939CE70E
:102FF0004054894C00A24A041CA50100AC050020E5
:1030000004F1024008F0024080F0024088F00240E3
:103010002DE9F04F05469D4E9D4FDFF88C8296F8C6
:1030200000E02F60FF2085F82400DFF8809298F8F8
:103030000000BEF1060F59F820E04FF000038DB0FC
:103040000C4685F8253085F8263098BF3370BEF1E0
:10305000000F00F0AD808E455ED07346810001E028
:103060009C4259D00B445B68002BF9D1734600E0B9
:1030700053460B44D3F804A0BAF1000FF8D15C60BA
:103080003478029705EB010B4FFA80FCFF23062CE6
:10309000CBF804A08DF82DA08DF82EA085F824C0C3
:1030A0008DF82C30744604D800233370002C00F0C7
:1030B000B480A24229D0234601E0934225D00B449C
:1030C0005B68002BF9D104EB010EDEF80440002C04
:1030D000F9D1CEF804200CAB1944BCF1FF3F00F14C
:1030E00001034FF0000041F8240C88F800308DF8FF
:1030F0002CC0029705D0674951F82C2002AB9A42A8
:1031000076D028460DB0BDE8F08F013088F8000079
:1031100028460DB0BDE8F08F31780297FF240023D8
:1031200006298DF82C408DF82D308DF82E30574C17
:1031300000D823709645E8D07346810001E09A429A
:10314000E3D00B445B68002BF9D18E44DEF80440D9
:103150002CB1A6468E44DEF80440002CF9D10CAB0D
:1031600046B219440130731CCEF8042088F80000E0
:1031700041F8244C02978DF82C60C2D0454951F893
:10318000262002AB9A42BCD159F82630B00023B1B8
:103190001A1853685460002BFAD198F800300022B6
:1031A000013B88F8003049F8262041F82620A8E79E
:1031B00000283AD0374B96F800E043F820508100C1
:1031C00005EB010C002349F820408DF82D30CCF898
:1031D00004308DF82E304FFA80FCFF23BEF1060F2D
:1031E000029785F824C08DF82C307FF65DAF5DE73F
:1031F00059F82C304FEA8C0423B11A1953685060E7
:10320000002BFAD198F800300022013B88F80030FA
:1032100049F82C2041F82C2073E7E8B11D4B49F800
:10322000202002AA43F8202055E71B491B480B68C1
:10323000019243F080630B600368194923F08043D7
:10324000036015200AF096F8164B019A4FF400110E
:10325000196098F80000ADE70F4C10482368019200
:1032600043F08063236003680D4923F080430360CB
:1032700015200AF07FF80B4B019A4FF400111960EA
:1032800098F800004FFA80FC8100C7E7BCF3FF1FED
:103290002C9F01002037002004700440007004407F
:1032A0009504000000E100E04137002000370020D5
:1032B0002DE9F84309F014FFB64AB74B14681868B3
:1032C000B64BB74FB74D1D60044400254FF47A76D6
:1032D0003C609E60B44CB54AB5491D7118461D73DB
:1032E0000EF0D2F8042701231E20B24EB24A266007
:1032F0004FF496714FF0FF36E16060601946A060B0
:103300003846657584F8215084F82250656226613C
:10331000E6612663237584F82030A761A262E26229
:103320000AF01CF9E169B14200F09281C8B2294665
:103330000AF014F9A14FDFF80C83A1483146A14CE3
:1033400007F06CF922687D723D613D72FD60C7F83F
:1033500000800AB983E11A465369002BFBD15761FB
:103360000025994E994B95487D61BD80FD80BD72C9
:103370003B6002F03BFD012006F5A2522B46294698
:103380003572F560C6F8008070723261354600E033
:103390002A6942F82310727A8B4801339A42F7DC8B
:1033A0002268884B0AB95CE11A465369002BFBD1AD
:1033B000566141F23C4241F23D434FF00009844DD9
:1033C0008449854806F8029006F803904A4601238E
:1033D0003160C6F818044FF48061C6F81490A6F85E
:1033E0000490A6F8069086F80A907C480DF05CFAE6
:1033F000012005F118024B464946C5F8008085F8C2
:103400000890C5F80C9068722A61AE4601E0DEF8BB
:10341000102042F823106A7A6D4801339A42F6DC94
:103420002268684B0AB918E11A465369002BFBD190
:103430005561DFF81492DFF81482694B2B60002489
:1034400048466C61AC80EC80AC72A5F8B041C9F81C
:103450000070A5F8B241C5F8AC41A5F8B441C5F873
:10346000B841C9F8046089F8084089F80940C9F8EA
:103470000C4089F810400BF033FE4C4A59495A4E23
:1034800048460EF001F8404688F80840C8F8007039
:10349000C8F8045088F80940C8F80C4088F8104073
:1034A0000BF01EFE4046414A4E49504D0DF0ECFFD8
:1034B0004F4B5049504A86F825404FF0FF08316085
:1034C000012786F824801A603046384A4B497463D5
:1034D000B46386F83C4086F826700DF0D5FF484B63
:1034E00085F8248085F82540304A46492B602846D7
:1034F00085F8274085F8284085F826700DF0C4FF30
:10350000324629464048414D414F424EFFF780FD2B
:10351000264A41493C480DF0B7FF404A404B4149DB
:1035200011604FF47A7090603F49147464204FF03A
:10353000800E547414711473DC711C4A83F83C447B
:1035400083F83D4483F86A4483F86004C3F86C143C
:103550002846364985F804E02C600DF095FF344B81
:1035600018680EF051FD014638680EF055FE314BDB
:103570000146196030480EF04FFE214630602F485A
:103580000CF0F2F9094A2E492C48BDE8F8430DF039
:103590007BBF00BFB0FAFF1F3CFAFF1F6836002058
:1035A0009C17002074B8010044340020FCF9FF1F70
:1035B0009508000084050020A0BB0100DC2E00203F
:1035C00064170020E43C0020841A0020D0B00100E1
:1035D00090150020A8B00100A0A80100C82E00206E
:1035E0009CA80100A9080000401A0020F82E002025
:1035F00078340020D0B20100B4B00100BD06000054
:10360000E4B201001507000068180020402F0020D8
:10361000403400209010002011060000A835002042
:103620000C110020089F01000000023889080000EA
:1036300050FBFF1F8C10002000007A4480150020F2
:10364000E9F80000FC9E0100282F0020F81000205F
:10365000054F0648DFF8188071E61860E9E6276034
:103660007EE61860A5E600BFDC2E0020641700206F
:10367000FC9E010070B5134C82B006460D462046F4
:103680000A2103F01BF8C6F30721204602F022FDB1
:10369000F1B2204602F01EFDC5F30721204602F0DC
:1036A00019FDE9B2204602F015FD00230093627B6C
:1036B00021692046012303F08DFAB0FA80F0400919
:1036C00002B070BDE036002008B500213020FFF7C1
:1036D000D1FF00210220BDE80840FFF7CBBF00BFAB
:1036E00008B5A2213020FFF7C5FF43210220BDE825
:1036F0000840FFF7BFBF00BF0238032810B503DC46
:1037000000285FDA002400E00C2444F2600130203D
:10371000FFF7B0FF6C212620FFF7ACFF4FF4F871E4
:103720002820FFF7A7FF40F622712C20FFF7A2FF09
:1037300000213C20FFF79EFFFFF7D2FF2146042027
:10374000FFF798FF4FF498710620FFF793FF0021D1
:103750000A20FFF78FFF08210E20FFF78BFF4FF69F
:10376000FF711020FFF786FF47F67F712220FFF7D9
:1037700081FF00214FF49270FFF77CFF4FF48A71B4
:103780002420FFF777FF104C00212A20FFF772FF5B
:1037900009210E480BF0CCFA21680D480BF0C4FF4C
:1037A0000B480BF05BFF2168202041EA0111FFF775
:1037B00061FF014606480BF0B7FF05480BF04EFFCE
:1037C000012010BD8400A0E738FAFF1F38A50100D2
:1037D000AC0500202DE9F041214B224E86B010218E
:1037E000044653F82000FFF795FB1F4B5D7BD3F891
:1037F0001080284602F068FD012700231B4A019033
:1038000029464046039202931A460093049702F019
:103810006FFE2046FFF770FF30465522202102F050
:10382000D3F838B1F28842F0040292B23046242133
:1038300002F0CAF800210B4802F0E2F90C4B0948EB
:103840001A78114602F092F9064802F085F9054807
:1038500002F098F906B0BDE8F041FDF7CDBC00BF1D
:1038600010FAFF1F78340020E0360020A086010007
:1038700038FAFF1F70B50F4C82B00E460146204645
:10388000154602F01BFF3146204602F023FC294674
:10389000204602F01FFC0023627B21690093204632
:1038A000012303F097F90446052009F081FE204624
:1038B00002B070BDE036002038B5324C402220788E
:1038C0002421FFF7D7FF002840D12F4D20782A6808
:1038D00062F07F02D2B22521FFF7CCFF002838D159
:1038E000032226212078FFF7C5FF002834D1D622F5
:1038F00027212078FFF7BEFF88BB2A78207828216F
:10390000FFF7B8FF70BB0A2229212078FFF7B2FF2A
:1039100058BB81222A212078FFF7ACFF40BB11223F
:1039200064212078FFF7A6FF28BB032267212078B7
:10393000FFF7A0FF10BB207880220121FFF79AFF3C
:10394000002814BF6FF00E00002038BD6FF0050096
:1039500038BD6FF0060038BD6FF0070038BD6FF05E
:10396000080038BD6FF0090038BD6FF00A0038BD9F
:103970006FF00B0038BD6FF00C0038BD6FF00D001C
:1039800038BD00BF00FAFF1F0CFAFF1F344B1B7835
:1039900070B50446002B41D1002C45D0314C324E3D
:1039A000207801226B21FFF765FF03221A210546CB
:1039B0002078FFF75FFF10221B212078FFF75AFFC6
:1039C000092219212078FFF755FF207818221C21A1
:1039D000FFF750FF3368022B2DD0042B32D0082B79
:1039E00037D003221D212078FFF744FF2222372100
:1039F0002078FFF73FFF012238212078FFF73AFFB8
:103A0000FFF75AFF07226A212078FFF733FF20785B
:103A100060226A21FFF72EFF284670BD0921134856
:103A20000BF086F9002CB9D10E4B402218786B218F
:103A3000FFF720FF70BD00221C212078FFF71AFF3E
:103A40003368CAE708221C212078FFF713FF336888
:103A5000C5E710221C212078FFF70CFFC1E700BF4B
:103A600044FBFF1F00FAFF1F04FAFF1F44A50100DB
:103A700070B584B009F046FD0921064641480BF0B7
:103A800057F941480BF0EAFD0021082009F052FDEA
:103A9000FFF71AFE3D4B1B78002B6FD1AE213C483F
:103AA0003C4D06F0D7FD0A2009F082FD57E005F0F5
:103AB000E3FE0621384805F087FC0121052009F0C6
:103AC00039FD364B364A1A60FEF75EFE00210520AE
:103AD00009F030FD334807F035FFF021314807F099
:103AE00069FB314931480BF07BFF31492F480BF01E
:103AF000BDFF304B2D4819680BF0C6FF2E492B48EF
:103B00000BF0B4FF09F0FEFC014628480BF0D0FF93
:103B1000294926480BF0AAFF284B04221968684659
:103B20000BF044FF694621480BF09CFF68460BF000
:103B3000DBFE21491D480BF099FF214B0422196837
:103B400068460BF033FF694618480BF08BFF684658
:103B50000BF0CAFE00F01AFB124807F0ABFB09F0AD
:103B6000D1FC841B0023AC4219464FF005021548D6
:103B70009DDD154B154A1A6004B070BD0020FFF79B
:103B800005FF8BE760A50100AC050020CCFAFF1F04
:103B9000641700207F51010068180020BCFAFF1F45
:103BA00080380100443400200CBB01008015002047
:103BB0006CA5010064360020B0A101006C19002042
:103BC00060170020401A00200CED00E00400FA0508
:103BD00010B5094C20460FF013FE014620460BF0AD
:103BE000A7F82378522B06D163784D2B03D1BDE87B
:103BF0001040FFF73DBF10BDFC3500202DE9F04F10
:103C0000704B714A1C681568704B714A1B881668A6
:103C10007048DFF80882DFF808A2DFF808B2A1B028
:103C20000D21ADF81830CDF81E40CDF82250CDF85A
:103C30001A600BF07DF800230A22322166480BF04F
:103C400033FD65480BF00AFD0C2164480BF070F859
:103C500000230A22314660480BF026FD5E480BF037
:103C6000FDFC05215E480BF063F820460DF076FD63
:103C7000022402460B46009457480BF05DFD56485F
:103C80000BF0ECFC052157480BF052F828460DF0DC
:103C900065FD009402460B464F480BF04DFD4E4823
:103CA0000BF0DCFC504B514918680EF001FA0EF095
:103CB00001FC2146C4B24E488DF826400BF038F87E
:103CC00000230A22214644480BF0EEFC42480BF048
:103CD000C5FC162147480BF02BF83F480BF0BEFC03
:103CE000454A464B41491B6810688DF827300EF055
:103CF00093FA0EF0DFFB0DF127058DF84900002443
:103D000045E03F4B18680EF07FF9014630460EF053
:103D100083FA0DF023FD0CF08DFF3A4B0646186830
:103D20000F460DF01BFD0CF085FF0022CDE90201CE
:103D3000354B304639460DF065FD002206460F46EC
:103D4000324BDDE902010DF05DFD02460B463046C7
:103D500039460DF0A3FB0EF04DF8DAF800100EF026
:103D60009DF8DBF800100EF099F80EF0A3FBC6B238
:103D7000314600230A22184805F8016F0BF094FC25
:103D80000134022122480AF0D3FF192C4CD058F8F4
:103D90003460204930460EF047FB0028B1D1194B62
:103DA00018680DF0DBFC0CF045FF0022174B0DF0FE
:103DB00029FD02460B46002017490DF06FFB0EF05F
:103DC00019F8CAE76C190020601700204CFBFF1F90
:103DD0007419002070A50100AC05002080A5010029
:103DE00090A5010098A50100F835002000002041B1
:103DF000A0A50100A4A50100E8350020D82E0020D0
:103E0000883400208C100020000034400000244042
:103E1000BCA50100BD378635000058C094180020AD
:103E200064FBFF1F48100020B8480BF017FC0A2164
:103E3000B7480AF07DFFB5480BF010FC10AD002428
:103E4000B44B53F834000DF089FC0CF0F3FEB24B88
:103E50008046186889460DF081FC0CF0EBFE0022CC
:103E600006460F46AD4B404649460DF0CBFC0022BE
:103E700080468946AA4B304639460DF0C3FC0246BF
:103E80000B46404649460DF009FB0646DAF80000AD
:103E90000F460DF063FC02460B46304639460DF0E6
:103EA000FDFA0646DBF800000F460DF057FC02460F
:103EB0000B46304639460DF0F1FA0DF07BFFC6B2E5
:103EC000314600230A22914805F8016F0BF0ECFB04
:103ED0000134022193480AF02BFF082CB0D18B4803
:103EE0000BF0BCFB022190480AF022FF00230A22BB
:103EF0009DF8271085480BF0D7FB022189480AF06E
:103F000017FF022189480AF013FF00230A229DF8B7
:103F100049107E480BF0C8FB7C480BF09FFB0C213E
:103F200083480AF005FF834B78480221D3E9002338
:103F300000910BF001FC75480BF090FB06217E48C8
:103F40000AF0F6FE7D4B714819680A2200230BF037
:103F5000ABFB6E480BF082FB042179480AF0E8FEC7
:103F6000784B6A48B3F900100BF0DEFB67480BF0A2
:103F700075FB042174480AF0DBFE744B6348B3F907
:103F800000100BF0D1FB61480BF068FB1221704868
:103F90000AF0CEFE00230A2232215C480BF084FB9B
:103FA0005A480BF05BFB0DF117050DF14B060DF1B7
:103FB000490707E021460023102254480BF074FB08
:103FC000AF420AD015F8014F06F8014F0F2CF1D877
:103FD000012160480AF0ACFEECE75F4D4B480BF066
:103FE0003DFB2B786422059203BB5C4B1C781CB90B
:103FF000204621B0BDE8F08F05AB00935848594BDF
:10400000322213A908F038F80446002842D12B7850
:1040100053BB059B2BBB082153480AF089FE3B4844
:104020000BF01CFB204621B0BDE8F08FFDF740FCF3
:104030004E480BF013FB0C224D494C480BF0D2FAC2
:104040004A480BF00BFB00230A22DDF81A10474800
:104050000BF02AFB45480BF001FB444806F08CFCB2
:10406000C3E7FFF7B5FDD6E7FDF722FC224641493D
:104070003E480BF0B7FA3D480BF0F0FA08223E49F3
:104080003A480BF0AFFA39480BF0E8FA374806F037
:1040900073FCBEE7132139480AF04AFE21461B484B
:1040A0000BF042FB19480BF0D9FA2B78BBB9072C5F
:1040B0009ED10C2132480AF03BFE14480BF0CEFA98
:1040C0002B78002B94D022462E4928480BF08AFAF0
:1040D00026480BF0C3FA254806F04EFC88E7FDF7AA
:1040E000E7FB0022234921480BF07CFA1F480BF024
:1040F000B5FA092224491D480BF074FA1B480BF04D
:10410000ADFA1A4806F038FCD1E700BFAC05002034
:10411000C0A50100A01700208C1000200000344032
:1041200000002440BCA50100CCA50100D0A50100E1
:10413000D4A50100E0350020E4A5010060190020AD
:10414000ECA5010094350020F4A50100F42E002018
:10415000FCA5010090B7020054FBFF1F4EFBFF1FA0
:1041600044340020FC35002064A6010064170020C0
:1041700010A601000CBB010058A6010020A60100FA
:1041800040A6010050A6010034A6010030B5494DFB
:104190002B7883B0FBB902AC64230021464844F875
:1041A000043D0BF099FC23460146444A444807F07D
:1041B00079FF044620BB2B78002B4AD1019B002BB2
:1041C00044D108213F480AF0B3FD3F480BF046FABE
:1041D000204603B030BDFDF76BFB03223B493C4852
:1041E0000BF000FA3A480BF039FA334938480BF033
:1041F0000FFA37480BF032FA354806F0BDFBCAE734
:10420000132134480AF094FD21462F480BF08CFA14
:104210002D480BF023FA2B78002B30D1072CD7D167
:104220000C212D480AF084FD27480BF017FA2B7853
:10423000002BCDD02246294925480BF0D3F924483C
:104240000BF00CFA224806F097FBC1E7FFF7C0FC21
:10425000B7E7FDF72DFB224621491D480BF0C2F9B7
:104260001B480BF0FBF908221E4919480BF0BAF95C
:1042700017480BF0F3F9164806F07EFB9EE7FDF7B2
:1042800017FB0022164912480BF0ACF910480BF04E
:10429000E5F90B2214490E480BF0A4F921460C480D
:1042A0000BF042FA0A480BF0D9F9094806F064FB12
:1042B000B4E700BF54FBFF1F80150020FC35002031
:1042C0004434002064A60100AC05002070A6010063
:1042D0006417002020A6010040A6010050A601009E
:1042E0000CBB010058A6010074A601002DE9F04F97
:1042F0008BB072B69B4A4CF220504DF628111080BC
:1043000018231180013BFDD1974D984C98494FF6E9
:10431000FF734FF480602B802380088032F80E3CBE
:104320009BB243F0D30322F80E3C62B6FCF774FF55
:1043300001210F2009F012F900210F2009F0FAF8ED
:104340000121102009F00AF90121102009F0F2F8EA
:104350000121112009F002F90021112009F0EAF8E9
:104360000021222009F0FAF80021232009F0F6F8B4
:104370000121082009F0F2F80021282009F0EEF8C8
:10438000002008F009FE0021022009F0E7F80021D2
:10439000032009F0E3F80121042009F0DFF80021EF
:1043A000042009F0C7F80121052009F0D7F8012100
:1043B000082009F0BFF80121052009F0BBF86D4A7B
:1043C0006D486E4902F1640552F8043F50F8044FFD
:1043D000AA42A3EB040341F8043FF5D1684E694DAE
:1043E0004FF4FA7009F0E4F8674B717B306903937E
:1043F000002401230493019322462346029400944F
:1044000002F076F8336942F21072C3F86822642031
:104410002C6009F0CDF829685C48102223460BF087
:1044200043F95A480BF01AF94FF430532B606420CB
:1044300009F0BEF84FF434532B60642009F0B8F84B
:10444000534B1B788BB1122152480AF071FC4F4834
:104450000BF004F9032409F055F8FDF787FD4FF43C
:104460007A7009F0A5F8013CF5D1FCF723FF012390
:104470003C220221484806F05DF9FDF719FA474948
:1044800045480A220BF0AEF843480BF0E7F84248E3
:1044900006F072FA424B1968F1B9102009F04AF897
:1044A0000121112009F046F801210F2009F042F8FE
:1044B0004FF47A7009F07CF80121102009F03AF8E5
:1044C0000B22384934480BF08DF833480BF0C6F80E
:1044D000314806F051FAFEE7334C3448072103F027
:1044E0004FF804F58C650E21304803F091F828460A
:1044F00004F26C414FF038430A2204F089FA002894
:104500005ED12B4C2B492148002323703225FCF728
:10451000EDF9FDF7CDF9002227491F480BF062F8AD
:104520001D480BF09BF8082224491B480BF05AF851
:1045300019480BF093F8184806F01EFA4FF4C870AB
:1045400009F036F8FDF7B4F9134806F015FA4FF400
:10455000C87009F02DF8013DDDD14FF4C87009F0A5
:1045600027F84BE00E2005400420054006200540BA
:104570001620054040FAFF1FD8FAFF1F90100020B8
:10458000E036002010D00340801A0600AC05002061
:1045900044FBFF1F8CA601006417002080A60100C9
:1045A0005CFBFF1FA0A601000C11002044000020AE
:1045B000C4FAFF1F50A701000CBB0100ACA601000C
:1045C00004F23C40256003F01DF90121204604F06F
:1045D000D3F80146002800F04D82934C04F23C458C
:1045E0002846214603F076F900288AD094F83C3416
:1045F00013F0700F85D08D4B8D4C1D608D4DFDF7E8
:1046000011FD8D4923782A680A60002B40F004814F
:104610008A4B8B491B6808688A4FDFF89C828A4E58
:1046200013448342C8BF0B60FDF75AFD38680DF094
:10463000EBFC0146D8F800000DF0EEFD0346014604
:10464000336082480DF0E8FD814B1860FEF756F9A3
:10465000FDF772F97F4880490022002340F833209B
:1046600041F833200133192BF8D17C4BDFF84CE2B1
:104670007B487C491A78DFF84892DFF848C200236B
:10468000AEF80030DFF840E203800B60002000212C
:10469000C9F80030CCF80030CEE90001002A40F023
:1046A0009781DFF828E2704BDFF824C2DEF800E0E3
:1046B000D3F800906D4A6E496E48DCF800301268FD
:1046C0000968006800930EF5FA6ECDF804E04B46D9
:1046D000FDF7DCF9FDF7ECF8092267496748DFF8D8
:1046E000F4A1DFF8F4910AF07DFF64480AF0B6FF08
:1046F0001E220021614805F0F1FC052260495F4857
:104700000AF070FFDAF800000DF028F84FF0020B05
:104710000B460246CDF800B058480BF00DF857484C
:104720000AF09CFF0522574954480AF05BFFD9F86C
:1047300000000DF013F8CDF800B002460B464F48CC
:104740000AF0FAFF4D4806F017F94F4B1B78002B83
:1047500040F0C88041F2883008F02AFF00210F2085
:1047600008F0E8FE2378002B5AD14848DFF86C9116
:10477000474CDFF86CB105F0B7FAFCF755FB08F0D1
:10478000C1FE444B44491B682D680860434A90FBB6
:10479000F3F003FB0033591911602360D9F80020AE
:1047A0003F4B4048016053F822000DF02DFC82463B
:1047B0002846C8F800A00DF027FC51460DF078FC03
:1047C0004FF06E510DF074FC0DF04EFECBF8000072
:1047D00038680DF019FC014650460DF01DFD0346EA
:1047E0000146336019480DF017FD194B6E21186012
:1047F0002D480AF0A1FBD9F80000FEF7EBFF2B4A89
:1048000020682B492B4B106000204FF0FF320860CE
:104810001A600BB0BDE8F08FFDF7C2FA2A68F7E620
:10482000FCF71AFCA1E700BF0C110020F4360020B1
:10483000C4FAFF1FB0FAFF1F3C3400203CFAFF1FF0
:104840009C17002050FBFF1F8C10002000007A44B2
:104850009010002094180020A017002068FBFF1F74
:10486000F42E002060190020C0FAFF1FEC35002054
:10487000D4FAFF1F40FAFF1F24A70100641700208D
:1048800030A7010038A701004EFBFF1F15080000EC
:10489000801A0020D0FAFF1F84100020343400203A
:1048A00010FAFF1F242F00200082FF1F7419002020
:1048B000903400205C190020403400209435002002
:1048C000D82E002088340020E0350020C8FAFF1FD1
:1048D00008FAFF1F6C19002060170020A8FAFF1FBC
:1048E0009018002041F64C5008F074FF002008F0AA
:1048F000E7FF4FF47A7008F05BFE624807F022F899
:10490000002183465F4806F04BFC5F495D4807F095
:1049100061F8FCF7CDFF08225C495D480AF062FEB1
:1049200059465B480AF000FF59480AF097FE58487C
:1049300006F022F84FF49671524806F03BFC5549B8
:1049400055480BF04DF8554953480BF08FF8544B30
:10495000514819680BF098F852494F480BF086F807
:1049600008F0D0FD01464C480BF0A2F84D494A48EA
:104970000BF07CF80422DAF8001006A80BF016F809
:1049800006A945480BF06EF806A80AF0ADFF4549A8
:1049900041480BF06BF80422D9F8001006A80BF080
:1049A00005F806A93C480BF05DF806A80AF09CFF44
:1049B000394937480AF02CFE35480AF04FFE344892
:1049C00005F0DAFFFFF7E2FB2E4806F073FCC1E6C4
:1049D00035492F48DFF8C8A0FBF788FF33492C483A
:1049E000FBF784FF2A4805F0C7FFFDF749FFFCF7F6
:1049F0005FFF2D492648FBF779FF2D4B24481B68A4
:104A0000012B0CBF2B492C49FBF770FF2B49204889
:104A1000FBF76CFF1E4805F0AFFFD3464FF00009CF
:104A2000DAF80030002B7FF43CAEB9F1070F3FF409
:104A300038AEFDF7A9FEDBF80030002BF0D120499D
:104A40002048FBF753FFFCF733FF11480AF006FE3E
:104A50001D490F48FBF74AFF1C490D48FBF746FF6D
:104A60000B4805F089FF42F2107009F1010908F0C6
:104A70009FFDD5E7204603F07FFE00287FF4ADAD13
:104A80003FE500BF443400203834002040A7010037
:104A9000641700200CBB0100801500204CA701000A
:104AA00064360020B0A10100B8A60100BCA6010038
:104AB00060FBFF1FD0A60100D8A60100E0A6010000
:104AC000F0A60100AC05002004A7010014A7010016
:104AD00038B50C4605460121234805F003FB2AB2F0
:104AE0000021214805F0FAFA204605F01FF801469A
:104AF0001D480AF019FE2D211B4805F0B5FA204685
:104B000005F006F8014618480AF00EFE2D21164859
:104B100005F0AAFA204604F0EDFF014612480AF01B
:104B200003FE0222114910480AF05CFD204604F001
:104B3000B7FF092804DC01220D490B480AF052FD99
:104B4000204604F0ADFF014607480AF0EDFD20467F
:104B500004F0B4FFFCF780FF204604F0BDFFBDE881
:104B60003840FCF779BF00BF64170020BCA50100E6
:104B700090B702002DE9F04FDFF81483AA4E95B0EC
:104B800008F0C0FCD8F80040306034B1012C00F0CF
:104B9000CB8030BF15B0BDE8F08F642008F008FD71
:104BA00072B6A24F4AF202624BF280433A803B80D7
:104BB00062B600E00124FCF77DFB9D490DF016FC78
:104BC000002800F09C8072B64AF202624BF28043E9
:104BD0003A803B8062B6AE21964805F03BFD0C2141
:104BE000954808F0CFFF95480AF038FD0023194694
:104BF0000522934804F040FE0A2008F0D9FC9148B1
:104C000004F086FA41F2883008F0D2FC14AD4FF47B
:104C10007A730024DFF87CE209938B4A8B4945F8CC
:104C200034ED46230BA88DF82C408DF82D408DF8DF
:104C300020408DF8284002F0F3FD9DF82C30002B29
:104C4000B8D0834928460AF06FFD14A92C2401F836
:104C5000354D01220DEB040003F022F87D49284672
:104C60000AF062FD14A9012201F8364D0DEB040093
:104C700003F016F814A9012201F8374D0DEB0400DA
:104C800003F00EF8FCF716FB0CF068FD4FF0020E77
:104C9000CDF800E00B46024628460AF04DFD14A967
:104CA000012201F8384D0DEB040002F0F9FF6A4BC8
:104CB00018680CF053FD4FF004090B460246CDF87E
:104CC000009028460AF038FD14A9012201F8394D58
:104CD0000DEB040002F0E4FF604B18680CF03EFDA1
:104CE000CDF8009002460B4628460AF025FD2846DE
:104CF0000AF0B4FC0DEB040002F084FD5AE7002C2E
:104D000040F03E83564CDFF890A19AF80030002B1B
:104D100040F02A83326823689A4280F2E282D8F80F
:104D20000040012C7FF435AF72B6404B4AF202616D
:104D30004BF2804219801A8062B6FBF785FF494A20
:104D400041F23D43D15C19B10021D154FCF74AFD39
:104D5000454A464B12681B689A42FFF61AAF444B0D
:104D6000444C1868DFF830A10DF04EF942490DF0BF
:104D700053FA21680DF094F8404920600DF054FB7F
:104D800010B100238AF80030FCF716F872B6274BF2
:104D90004AF202614BF2804219801A8062B69AF898
:104DA0000030002B40F078830121052008F0C2FB81
:104DB000FCF77EFD072232491E48324D0AF012FCF4
:104DC0001C480AF04BFC1B4805F0D6FD01211120C0
:104DD00008F0B0FB0021102008F0ACFB01210F20EF
:104DE00008F0A8FB4FF47A7008F0E2FB01211020D4
:104DF00008F0A0FB08F086FB04462220346008F08F
:104E0000F1F80A210746204809F092FF1F480AF0EE
:104E100025FC33682A68C82FA3EB040361DD9A429E
:104E20005FDDDFF808903BE0841000200C20054097
:104E30009A9959406417002070A70100840500204A
:104E4000401A00206818002014A001004815002016
:104E50007065656CF18934016C19002060170020C1
:104E6000801A0020841A00204C1000209018002086
:104E7000B0FAFF1FF435002000006145CDCCCC3DD9
:104E8000C8A701002CFAFF1FD0A70100AC05002025
:104E900090340020089F010054FBFF1FC82F20DD25
:104EA00008F030FB3060222008F09CF801460746ED
:104EB000BF480AF039FCBE480AF0D0FB4FF4FA6054
:104EC00008F076FB72B64AF202624BF28043A9F810
:104ED0000020A9F8003062B633682A681B1B934291
:104EE000DCDB9A4280F257829AF80030002B40F0C7
:104EF000E48308F007FB04462320346008F072F8CE
:104F00000B21AC4809F014FFA9480AF0A7FB33684D
:104F10002A681B1B01279A429AF80030C0F28B8244
:104F2000002B40F08D8208F0EDFA19218346A2484B
:104F3000C6F800B009F0FCFE9D48DFF890920AF038
:104F40008DFB222008F04EF804464FF47A7008F0EA
:104F50002FFB0A21994809F0EBFE214694480AF0FC
:104F6000E3FB93480AF07AFB08F0CCFA306072B6A3
:104F70004AF202624BF28043A9F80020A9F80030FF
:104F800062B633682A68CBEB03039342A4F114049E
:104F9000ACBF00230123B4F5757F98BF0023BB424B
:104FA000CFD800210F2008F0C5FA0021102008F00A
:104FB000C1FA0021112008F0BDFA814C4FF47A703B
:104FC00008F0F6FA0121102008F0B4FA04F58C6517
:104FD000642008F0EDFA284604F26C414FF03843A3
:104FE0000A2203F015FD002840F05D820021102008
:104FF00008F0A0FA4FF47A7008F0DAFA01211020D4
:1050000008F098FA4FF47A7008F0D2FA11216D483E
:1050100009F08EFE66480AF021FB6B4B1B78002BD3
:1050200000F0608272B6694B4AF202614BF2804234
:1050300019801A8062B6664B1B78002B73D09AF8E1
:105040000030002B40F00E83624BDFF8F4B1624F6A
:10505000DFF8F09147F230521A60FDF795FB04211A
:105060005E4809F065FE5E4B18680CF077FB06247D
:1050700002460B4600944E480AF05EFB4C480AF08C
:10508000EDFA0421574809F053FE574B18680CF00D
:1050900065FB00940B46024645480AF04DFB444828
:1050A0000AF0DCFA306804F025FD504BDBF80050C4
:1050B0001A6803922D1A306804F02AFD3C68241AFD
:1050C000306804F0EDFCD9F800301B1AB3FA83F312
:1050D0005B093068029304F0F1FC039A029BB5FA75
:1050E00085F502406D09B4FA84F415406409404A1C
:1050F0002C401C420146106015D03E4B3E4A1C68B5
:105100003D68DBF80030D9F800001268009504F51E
:10511000FA640194FCF7BAFC0A21384809F008FE49
:1051200023480AF09BFA364C0021052008F002FAC9
:105130002278002A00F07182324D334C2B682168AE
:105140008B4211DB82B19AF80020002A40F078826D
:105150002E4A2F4812681344236006F0F3FBFEF733
:105160004DFD2B4806F0A6F82A482B4900220023C3
:1051700040F8332041F833200133192BF8D1274D63
:10518000274C284F284E294829499AF80020002307
:105190002B802380002500243B6033600360C1E93D
:1051A0000045002A40F03482224F2348234D4BE033
:1051B000AC050020DCA7010000A801001CA801002C
:1051C0000C11002070A80100701900200C2005406F
:1051D00068FBFF1FBCFAFF1F08FAFF1F28A8010089
:1051E0006C19002030A801006017002064360020F0
:1051F000D4FAFF1FC8FAFF1FEC35002038A80100C1
:105200004EFBFF1F34340020242F00209C17002069
:105210004434002094180020A0170020943500206A
:10522000F42E0020D82E00208834002060190020A1
:10523000E0350020801A0020641700208C34002004
:10524000C0FAFF1F40FAFF1FA84EAE2105F002FA78
:105250003C6808F057F9A64AA64B1268201A841A2F
:1052600024EAE47983FB09234B444FEAE970C0EB5D
:10527000E3200CF061FA0BF0F3FB0CF073FD9E4C95
:105280009E4B286004FB009483FB04232344834645
:10529000E017C0EB63100CF04FFA0BF0E1FB0CF0E1
:1052A00061FD03011A1AC31A04EB830492004FF440
:1052B000616303FB0B2BDFF8949234605C440E2C8B
:1052C000C9F8000000F346819AF80030002B40F046
:1052D000A881002301210520C8F8003008F02AF930
:1052E00057E40D218648874D09F022FD86480AF0D3
:1052F000B5F92B68002B00F09B81844B844A216810
:105300001B6812688348844D01600B441A440E21C7
:10531000824822602B6009F00BFD08F0F3F8FCF7DF
:1053200025FE0B217E4809F003FD2868FCF71EFED0
:105330000B217C4809F0FCFC2068FCF717FE0D21CE
:10534000794809F0F5FC794B1868FCF70FFE6E48B8
:105350000AF084F9AE21764805F07CF90123C8F8FB
:105360000030FCF717FADAE4FCF7A2FAFCF7FAFAD5
:1053700031683720FFF7ACFB6D4805F0FDFAC9E452
:105380006C4C08F0BFF8236830608342BCBF00F566
:1053900096702060B7E49AF80070002F67D108F08B
:1053A000B1F804462320346007F01CFE0B2181462F
:1053B000614809F0BDFC54480AF050F933682A6886
:1053C000B9F1C80FCCBF394647F001011B1B0029BA
:1053D0007FF4A1AD9A427FF79EADDFF874B103E090
:1053E000B9F1C80F7FF797AD08F08CF83060232033
:1053F00007F0F8FD0146814643480AF095F9424816
:105400000AF02CF94FF4FA6008F0D2F872B64AF2BA
:1054100002624BF28043ABF80020ABF8003062B67A
:1054200033682A681B1B9342B4BF394647F0010119
:105430000029D5D06FE5002B40F02581012772E5CA
:1054400001233C2202213A4805F074F9FCF730FAB6
:105450000A223A4936480AF0C5F835480AF0FEF8FB
:10546000002F40F02081324805F086FA5BE50123E9
:105470003C2202212E4805F05DF9FCF719FA0A22B8
:105480002F492B480AF0AEF829480AF0E7F8002720
:10549000274805F071FA82E701233C2202212448C3
:1054A00005F048F980E404F23C40256002F0AAF9D6
:1054B0000121204603F060F9002800F01881214CFA
:1054C00004F23C452846214602F004FA00283FF445
:1054D0008DAD94F83C3413F0700F3FF487AD1A4B48
:1054E0001D609AE5FDF722FC9CE500BF4C170020EB
:1054F00034FAFF1FC5B3A291F0F1FFFF89888888B5
:1055000080A70100D8FAFF1FAC050020B0FAFF1FEA
:105510003CFAFF1F741900203434002090A70100CA
:10552000A0A70100ACA70100B8A70100242F00200C
:1055300064170020801A0020DCA70100E8A7010002
:1055400064A801000C110020F436002098350020DA
:105550000C2005406A4C0021082007F0EBFFFEF705
:10556000B3F8237863B30621664809F0E1FB07F03E
:10557000C9FF014664480AF0D7F80821634809F0DA
:10558000D7FB396860480AF0CFF85F480AF066F840
:1055900007F0B8FFFCF7EAFC10215D4809F0C8FBF2
:1055A000296859480AF0C0F8D9F8001056480AF09E
:1055B000BBF8316854480AF0B7F853480AF04EF87F
:1055C000642007F0F5FF72B6524B4AF202614BF2CB
:1055D000804219801A8062B64F48337899F80020CB
:1055E000297804F049F94D4803F092FD23781BB166
:1055F00007F088FFFCF7BAFC0121082007F09AFFAA
:10560000642007F0D5FF464B1868FEF7E3F85BE629
:105610004FF47A7007F0CCFFC6E5FEF7EFFA227878
:105620008AE501233C2202213E4805F083F850E63A
:105630000A210E20FEF71EF84FF0FF332B605CE6C8
:10564000FCF736F937480AF009F80C223649354894
:1056500009F0C8FF33480AF001F8324805F08CF928
:105660002B6875E5FCF724F92E4809F0F7FF0322B3
:105670002E492C4809F0B6FF2A4809F0EFFF2948C7
:1056800005F07AF9E0E401233C220221254805F0E7
:1056900051F8FCF70DF90A222549224809F0A2FF2A
:1056A000204809F0DBFF0A2222491E4809F09AFF30
:1056B0001C4809F0D3FF0127D5E601233C22022133
:1056C000184805F037F8FCF7F3F80A221A4915488C
:1056D00009F088FF134809F0C1FF0A221549114853
:1056E00009F080FF0F4809F0B9FF0127D0E6014615
:1056F000204603F041F800287FF4E1AE76E400BFD5
:1057000044FBFF1F98A70100AC05002044A801003E
:1057100050A801000C200540401A00206818002005
:10572000A8FAFF1F6417002010A60100B8A6010008
:10573000E8A70100F4A7010064A80100F8B5002162
:10574000054609F0C1FC002800F0D08041F23C433E
:10575000EB5C072B00F2CA80DFE803F0C9D0D7DE8C
:10576000E5ECF304D5F81C74C5F8380405F5876436
:105770003B1D224607F5827705F23C4133F8026B68
:1057800042F8046F9F42F9D1D5F8207405F5C7623D
:105790003B1D07F5827733F8026B42F8046F9F4296
:1057A000F9D1D5F8247405F638023B1D07F5827748
:1057B00033F8026B42F8046F9F42F9D1D5F8287490
:1057C00005F638223B1D07F5827733F8026B42F865
:1057D000046F9F42F9D1D5F82C7405F638423B1D71
:1057E00007F5827733F8026B42F8046F9F42F9D1D4
:1057F000D5F8307405F638623B1D07F5827733F82B
:10580000026B42F8046F9F42F9D1D5F8347405F564
:1058100081523B1D183207F5827733F8026B42F84C
:10582000046F9F42F9D105F59152031D183200F51E
:10583000827033F8026B42F8046F8342F9D1D5F8D5
:10584000180480B105F5886200F5006732F9043C60
:1058500030F9026B03FB06F3DB13874222F8043CAA
:1058600002F10402F2D105F5A2500430384E0AF0DC
:10587000FDFF05F2164705F1160054F8041F21FB41
:1058800001F1B1FA81F336F81320B1FBF2F31A44B7
:105890005308B1FBF3F10B445B0820F8023FB84218
:1058A000EBD141F23D430122EA54D5F81C0409F042
:1058B000C7FBD5F8200409F0C3FBD5F8240409F090
:1058C000BFFBD5F8280409F0BBFB41F23C4304229E
:1058D000EA5405F586610EC9D5F82C04C5F81C04F8
:1058E000C5F82014C5F82424C5F82834F8BD41F2C1
:1058F0003C430122C5F81C04EA54F8BD41F23C4384
:105900000222C5F82004EA54F8BD41F23C430322C8
:10591000C5F82404EA54F8BD41F23C430422C5F81A
:105920002804EA54F8BD41F23C430522C5F82C0492
:10593000EA54F8BD41F23C430622C5F83004EA546B
:10594000F8BD41F23C430722C5F83404EA54F8BDDF
:10595000D4B00100002070470020704770B5194C8A
:10596000064682B00D462046317A00F0A7FEC5F308
:105970000721204600F0AEFBE9B2204600F0AAFB6A
:105980000023627B21690093204601F023F910B1C6
:10599000002002B070BD2569327A617B019001233D
:1059A00000932846022301F03DF90128F0D920692F
:1059B00001F052F90502206901F04EF9284302B0C6
:1059C00070BD00BFE036002070B5154C242908BF1B
:1059D000C28082B00D46017A2046164600F06EFE67
:1059E000C5F30721204600F075FBE9B2204600F020
:1059F00071FBC6F30721204600F06CFBF1B2204694
:105A000000F068FB00230093627B2169204601239C
:105A100001F0E0F8B0FA80F0400902B070BD00BFBC
:105A2000E03600202DE9F0413E4B012606715F7BF8
:105A3000D3F8108086B00446384600F045FC0025B7
:105A4000394B019039462A464046039304962B462B
:105A50000295009500F04CFD052007F0A9FD2046B9
:105A600044F260023021FFF7AFFF20466C2226216E
:105A7000FFF7AAFF20464FF4F9722821FFF7A4FF91
:105A8000204640F622722C21FFF79EFF204644F26A
:105A900046423C21FFF798FF204640F2371224216E
:105AA000FFF792FF204644F2FF023021FFF78CFF00
:105AB000732202212046FFF787FF4FF4C87007F0DA
:105AC00077FD204641F61D522E21FFF77DFF04226F
:105AD00011462046FFF778FF20464FF498720621C2
