:1000000000800020BD01000031D20000E9D10000D5
:10001000E9D10000E9D10000E9D10000E9D10000F8
:10002000E9D10000E9D10000E9D1000031D200009F
:1000300031D20000E9D100002DF4000031F40000BD
:1000400031D2000031D2000031D2000031D20000A4
:1000500031D2000031D2000031D2000031D2000094
:1000600031D2000031D2000031D2000031D2000084
:1000700031D2000031D2000031D2000031D2000074
:1000800031D2000031D2000031D2000031D2000064
:1000900031D2000031D2000031D2000031D2000054
:1000A000157200002172000031D2000031D2000030
:1000B00031D2000031D2000031D2000031D2000034
:1000C00031D2000031D2000031D2000031D2000024
:1000D00031D2000031D2000031D2000031D2000014
:1000E00031D2000031D2000031D2000031D2000004
:1000F00031D2000085DD000031D2000031D2000095
:1001000031D2000031D2000031D2000031D20000E3
:1001100031D2000031D2000031D2000031D20000D3
:1001200031D2000031D2000031D2000031D20000C3
:1001300031D2000031D20000F5AD0000C1AA0000AC
:1001400031D2000031D2000031D2000031D20000A3
:1001500089F500009DF50000B1F50000C5F500002F
:1001600031D2000049E0000031D2000031D200005D
:1001700031D2000031D2000031D2000031D2000073
:1001800031D2000031D2000031D2000031D2000063
:1001900031D2000031D2000031D2000031D2000053
:1001A00031D2000031D2000031D2000031D2000043
:1001B00031D2000031D20000E9F10000564B4CF280
:1001C000205210B51A804DF628121A8000BF00BFC9
:1001D00000F09EFB514B4FF010621A60504A9A603B
:1001E000504ADA60504A136813F4807304D14F49BF
:1001F0000B604FF4A85313604D4B1A78110703D5C9
:100200001A7842F008021A704A4B4B492A221A7097
:100210004A4A4B4B8B4204D252F8040F43F8040B6A
:10022000F8E7484B484900228B4202D243F8042B9E
:10023000FAE74649464A002352F8230041F82300D2
:1002400001336F2BF8D1434B434A802103F8011B44
:100250009342FBD1414B3D4A1A60414B8A221A70AE
:10026000A3F5805324225A70A0221A709A7992071B
:10027000FCD59A79D406FCD43A4A937903F00C035E
:10028000082B384BF9D105221A7143225A719A79F9
:100290009006FCD5334A9179324B4906FBD5324A58
:1002A0004FF0817111600521516020221A709A79F6
:1002B00002F00C020C2AFAD12C4B2D4A1A602D4B5D
:1002C0002D4A1A6000225A60072243F8042C2B4A58
:1002D000C3F80C2D62B60DF0B5F9144B1B68DA07A4
:1002E00005D527480DF00EF9264B274A1A60274BF3
:1002F0001B785B0609D5234C234B22689A4204D114
:100300001F480DF0FFF80023236012F0C1FA0CF033
:1003100093FF0FF005FCFEE70E20054030800440FF
:10032000823F04000100002B10D0034014D0034092
:1003300002D0074000E0074010100020B8BB0200C8
:1003400020F9FF1F10100020983D002000F4FF1F2F
:100350000000000000E400E05FE400E008ED00E0E1
:1003600000500640004006404480044004800440A1
:10037000C010050014E000E03F190100000020203B
:1003800035FD46621CE00340A5C3945A00F00740C7
:10039000FFFFFFFFFFFFFFFFFFFFFFFFFFFFFFFF6D
:1003A000FFFFFFFFFFFFFFFFFFFFFFFFFFFFFFFF5D
:1003B000FFFFFFFFFFFFFFFFFFFFFFFFFFFFFFFF4D
:1003C000FFFFFFFFFFFFFFFFFFFFFFFFFFFFFFFF3D
:1003D000FFFFFFFFFFFFFFFFFFFFFFFFFFFFFFFF2D
:1003E000FFFFFFFFFFFFFFFFFFFFFFFFFFFFFFFF1D
:1003F000FFFFFFFFFFFFFFFFFFFFFFFFFFFFFFFF0D
:10040000FFFFFFFFFFFFFFFFFFFFFFFFDEF9FFFF23
:1004100010B5054C237833B9044B13B10448AFF33E
:1004200000800123237010BD101000200000000088
:10043000B4BB0200084B10B51BB108490848AFF324
:1004400000800848036803B910BD074B002BFBD0A0
:10045000BDE81040184700BF000000001410002045
:10046000B4BB020010100020000000000020704704
:10047000704700BF027C02F0080202F0FF0332B1B5
:10048000C36A406A181A48BF6FF0004070471846A8
:10049000704700BFF8B55548554D564C297803783C
:1004A0002278DFF868E1544F544E120442EA0323E5
:1004B000FF222A700270802022708EF800003870AF
:1004C000B2794F480B4312F00C0FC36002D1B379DD
:1004D000DC063DD4494A9379C3F38103032B40D012
:1004E000464B9A79C2F38102022A42D0434A937959
:1004F000C3F38103022B53D0404A9379C3F38103A2
:10050000022B61D03D4A9379C3F38103012B51D073
:100510003A4A9379C3F38103012B5CD0374B9A7924
:1005200012F00C0F03D19A79D20600D49B79354D85
:10053000354B2A7853F82240D4B1236820469B6873
:1005400098472B7804EB83046468002CF5D1F8BD40
:10055000B3799806EBD5294A9379C3F38103032B2A
:10056000BED19379D906BBD493799B06DFD4B7E784
:10057000F8BD9A79D706B9D49A799606B6D559783E
:1005800001F0020101F0FF020029AFD120211A7011
:100590001A461970937903F00C030C2BFAD1C6E7B5
:1005A0009379DD06A8D493799C06A5D4537898074F
:1005B000BDD5A1E79379DF06AAD593799E06A7D486
:1005C00053789D07B3D4A3E79379D9069AD4537887
:1005D0009B07ACD496E79379DC069FD59379980670
:1005E0009CD453789907A2D598E700BF06C007406E
:1005F00005C0074007C0074009C00740004006404B
:10060000703D0020403700200037002008C0074020
:1006100090F92410104B03604B1C06D0F0B40F4E21
:1006200056F82130984201D0F0BC70470C4F57F873
:10063000213033B18D0000245A1953685460002BC7
:10064000FAD1084C23780022013B237047F821207F
:1006500046F82120E8E700BFEC9E0100203700208B
:10066000003700204137002038B590F924506B1C2A
:100670001BD00E4B0E4953F825400E4BEDB24FF0F8
:10068000FF320D701A6084B1AD0002E02C44646842
:100690005CB194F82530002BF8D0236820462C4418
:1006A0001B6898476468002CF3D138BD00370020E0
:1006B00040370020B8F3FF1F704700BF90F92410A7
:1006C000104B03604B1C06D0F0B40F4E56F821308F
:1006D000984201D0F0BC70470C4F57F8213033B12D
:1006E0008D0000245A1953685460002BFAD1084C2D
:1006F00023780022013B237047F8212046F821206F
:10070000E8E700BFEC9E0100203700200037002002
:100710004137002090F92410104B03604B1C06D089
:10072000F0B40F4E56F82130984201D0F0BC70471B
:100730000C4F57F8213033B18D0000245A195368FB
:100740005460002BFAD1084C23780022013B23701F
:1007500047F8212046F82120E8E700BFEC9E010081
:1007600020370020003700204137002010B500213D
:1007700004460EF0A3FCB0B1B4F8B4319BB2C3B1DF
:10078000B4F8B031B4F8B2219BB20133632BC8BFC7
:10079000002392B2934207D09A1D04EB82029BB2CF
:1007A0005060A4F8B03110BDD4F8B8310133C4F8AA
:1007B000B831BDE810400EF03DBC00BF103007F06E
:1007C00069BA00BF00B583B002AB012203F8011D76
:1007D0001030194607F05EFA03B05DF804FB00BF65
:1007E000103007F079B900BF00B583B001220DF1D8
:1007F0000701103007F06EF801280CBF9DF80700C4
:100800004FF0FF3003B05DF804FB00BF103007F07D
:100810003BBA00BF0CF070BE2DE9F0410E46804699
:100820000CF06AFE174D286009F07AF9074628682F
:1008300009F068F90446286809F056F96401C0B265
:1008400004F4FF54BFB20443A7F2BC7744EA472440
:10085000A8F80040286809F01DF90746286809F043
:1008600027F90446286809F031F9FF02640107F40A
:10087000FF2704F4FF54C0F346003C430443348094
:10088000BDE8F0818410002010B504460EF05AFE39
:10089000204610BD10B5034B036004460AF012FA5F
:1008A000204610BD28B8010010B504460EF046FCE5
:1008B000204610BDB0F8B231B0F8B0119BB289B289
:1008C0008B4202460FD00133632B86BF00210B46BB
:1008D00099B2063300EB83035868C2F8AC01A2F862
:1008E000B211043070470020704700BF38B504468D
:1008F00008460D4612F064FF2368024629465B68ED
:1009000020469847054620460EF0A2FE284438BDF2
:10091000464A474B102010801B781B0734D5F0B592
:10092000444E454D454C31782B782278DFF82CE148
:10093000434F824042EA03230B43FF22802132705F
:100940002A7022708EF800103970D9073D4A14D5EC
:100950001A2393603C4F3D4E3D4D3E4C3E4910792D
:1009600000233B7053709370D370D3603370137156
:100970002B70237013700870F0BD1F0705D4DE06BE
:1009800006D504239360E5E7704721239360E1E7F0
:100990009D0604D45C0604D516239360DAE79060C4
:1009A000D8E7180602D509239360D3E7D90502D505
:1009B0000A239360CEE79F0502D50D239360C9E714
:1009C0005E0502D50B239360C4E71D0502D51E23E7
:1009D0009360BFE7DC0402D502239360BAE7980472
:1009E00002D507239360B5E7590402D50623936027
:1009F000B0E71F0402D515239360ABE7DE0302D5F1
:100A000024239360A6E79D0302D522239360A1E7E8
:100A1000DC0202D5252393609CE71803F5D4590323
:100A2000F3D49B0244BF2323936093E70020054047
:100A300002D0074005C0074006C0074007C0074076
:100A400009C00740703D002000C0074001C00740BA
:100A500002C0074003C0074004C0074008C0074069
:100A6000002976D02DE9F04F0C469100631883B031
:100A70005D68002D57D06B185E68002E50D073183B
:100A80005F68002F49D07B18D3F80480B8F1000FBD
:100A90003CD008EB0103D3F80490B9F1000F32D039
:100AA00009EB0103D3F804A0BAF1000F27D00AEB39
:100AB0000103D3F804B0BBF1000F18D00BEB010316
:100AC0005B6863B1194401934968FFF7C9FF019B53
:100AD00093F825201AB11A681846536898479BF86E
:100AE000253023B1DBF8003058465B6898479AF808
:100AF000253023B1DAF8003050465B68984799F802
:100B00002530002B35D198F8253063BB97F8253078
:100B10001BB13B6838465B68984796F82530CBB9DF
:100B200095F8253063B994F8253013B903B0BDE8C2
:100B3000F08F23685B68204603B0BDE8F04F18478C
:100B40002B6828465B68984794F82530002BEDD039
:100B5000EFE77047336830465B68984795F8253073
:100B6000002BE0D0ECE7D8F8003040465B689847AF
:100B7000CCE7D9F8003048465B689847C3E700BF28
:100B800090F92420531C26D01B4B2DE9F04153F83B
:100B90002240D2B2ECB19300E1184D68B5B1E9182A
:100BA0004E6866B1F1184F6837B13B445968FFF79A
:100BB00057FF97F82530A3B996F8253063B995F813
:100BC00025301BB12B6828465B68984794F8253080
:100BD00063B9BDE8F0817047336830465B68984779
:100BE000EDE73B6838465B689847E5E723682046B1
:100BF0005B68BDE8F04118470037002038B505466E
:100C0000D0F8AC0120B10EF015FA0023C5F8AC31D4
:100C1000B5F8B241B5F8B031A4B29BB29C420ED047
:100C20000134642C28BF0024A31D05EB83035868FE
:100C30000EF000FAB5F8B0319BB29C42F0D19BB2F5
:100C4000A5F8B23138BD00BF2DE9F04F524CB4F8D1
:100C5000B031B4F8B22199B293B2994238BF64313D
:100C6000CB1A012BADF5037D70DD4C4AD4F8AC51A5
:100C70001368494E01331360002D75D002A84FF45C
:100C80008072002101900BF0D5FF28460EF0D2F9BA
:100C90000023C4F8AC31404D2846FFF70BFE4FF45B
:100CA0008072014642A80BF0C5FFD4F8AC0120B118
:100CB0000EF0C0F90023C5F8AC31394BB3F9008010
:100CC000384BB3F90050384BD3E900674FF0000AB6
:100CD000D3460DF109040DF20929227814F8013CDC
:100CE00043EA02231BB24345C8BF98461846C8BF13
:100CF0004FF0010BAB42BCBF1D464FF0010A11F093
:100D00007FF94FF0605111F0CFF9014611F0CCF9A5
:100D100010F020FD02460B463046394610F0BCFB71
:100D200002344C4506460F46D7D1BBF1000F2BD1FC
:100D3000BAF1000F2CD11D4A1D4913681A480978D1
:100D400003F58073C0E90067136019B90DF5037DE1
:100D5000BDE8F08F019917484FF4007206F09AFF32
:100D60000DF5037DBDE8F08F3046FFF7A3FD02AB24
:100D7000D6F8AC51019301464FF4807218460BF03F
:100D800059FF002D87D080E7054BA3F80080CFE7FF
:100D9000044B1D80CFE700BF901500204C100020B1
:100DA00094350020F42E0020E0350020601900204A
:100DB000C4FAFF1FB835002038B50D21124C134876
:100DC0000DF0B0FF12480EF043FC258811481021A9
:100DD0000DF0A8FF29460E480EF0A0FC0C480EF0BE
:100DE00037FC0D4B0D490E4A09881B7821800021E4
:100DF000A2F8B41113B10B4806F0FEFC6420BDE864
:100E000038400CF0CFBB00BFE83C0020249F01001D
:100E1000AC050020349F0100C4FAFF1F103D0020E4
:100E200090150020B8350020714B93E803002DE9A0
:100E3000F041704C704D714F714E0123238184E855
:100E4000030008226F4904F10C0012F077FD08221C
:100E50006D4904F1140012F071FD08226B4904F190
:100E60001C0012F06BFD0822694904F1240012F005
:100E700065FD2946082204F16C0012F05FFD294649
:100E8000082204F1740012F059FD2946082204F1E9
:100E90007C0012F053FD2946082204F1840012F070
:100EA0004DFD5C4A5C4BD2F800801968404610F05A
:100EB000F3FF5A4BC4F8CC0005464146186810F0C1
:100EC000EBFF574BC4F8D00093E8030004F5FC7324
:100ED00083E803000923A4F8003208225149C4F82A
:100EE000D45004F50170C4F8D85012F027FD082240
:100EF0004D4904F5037012F021FD08224B4904F519
:100F0000057012F01BFD0822494904F5077012F024
:100F100015FD0822474904F5097012F00FFD08225B
:100F2000454904F50B7012F009FD0822434904F508
:100F30000D7012F003FD0822414904F50F7012F004
:100F4000FDFC08223F4904F5117012F0F7FC394608
:100F5000082204F5197012F0F1FC3946082204F554
:100F60001B7012F0EBFC3946082204F51D7012F0DC
:100F7000E5FC354B93E8030004F51F7282E803009B
:100F800004F5237304F5217282E8030083E803006B
:100F90000822314604F5257012F0D0FC31460822B3
:100FA00004F5277012F0CAFC0822314604F52970B6
:100FB00012F0C4FC254B186811F022F84FF0605174
:100FC00011F072F8224A234BC4F8C402C4F8C802D4
:100FD000C4F8CC02C4F8D022C4F8D422C4F8D82271
:100FE000C4F8DC32C4F8E032C4F8E432BDE8F08181
:100FF000489F0100482F0020749F0100309F01008E
:10100000C09F0100549F01005C9F0100649F01008C
:101010006C9F01004810002064FBFF1F48FBFF1F6E
:10102000C49F0100789F0100809F0100889F0100FC
:10103000909F0100989F0100A09F0100A89F0100C0
:10104000B09F0100B89F0100CC9F010004FAFF1F70
:101050000000FA3C0000163EF0B58FB000230EAC45
:101060008DF814308DF815308DF808308DF810306B
:101070004FF47A764623204D204A2149039605A84D
:1010800044F8345D06F0C6FB9DF8143043BB1D4B9D
:101090001B780BB90FB0F0BD002646234FF47A77CA
:1010A000194A1749019505A88DF814608DF8156047
:1010B0008DF808608DF81060039706F0ABFB9DF883
:1010C0001430002BE6D07E22104905A806F0E2FD80
:1010D00020460EF0BDFA05A806F08EFB0FB0F0BD5D
:1010E00043220B4905A806F0D5FD20460EF0B0FAC4
:1010F00005A806F081FBCAE7C89E0100D49F010045
:1011000048150020CCFAFF1F20A0010028A00100F4
:10111000DC9F0100264B1B680F2B0CD8DFE803F087
:101120000C1014181C2024282C3034383C4044085F
:10113000204B214A1A6070471E4B204A1A607047A4
:101140001C4B1F4A1A6070471A4B1E4A1A607047A0
:10115000184B1D4A1A607047164B1C4A1A6070479C
:10116000144B1B4A1A607047124B1A4A1A60704798
:10117000104B194A1A6070470E4B184A1A60704794
:101180000C4B174A1A6070470A4B164A1A60704790
:10119000084B154A1A607047064B144A1A6070478C
:1011A000044B134A1A607047024B124A1A60704788
:1011B00038FAFF1F48100020BD549341103377C008
:1011C000993918C0BE0D68BFCE71153F8D09034017
:1011D000CCC9624009A7A3407DDBD140C4160141C0
:1011E00054FC1741D0E83041195546419FAB5F414F
:1011F000A04176415E2E864108B5054B05481A7818
:10120000114604F0ADFCBDE80840FFF783BF00BF06
:1012100038FAFF1F7834002070B472B61E491F4C94
:101220001F4A802341250E20257010700B700B780B
:1012300013F0800F1B4B05D11B4802781A700A78F7
:101240001406FAD519491A4A097859701178997013
:10125000013A1278DA7062B672B6104D0E49104833
:10126000802241260F242E7004700A700A78150619
:1012700005D40D4802781A710A781206FAD50B497E
:101280000B4A0978597111789971013A1278DA711B
:1012900062B670BC704700BF000002400700024009
:1012A000060002409C3500200B0002400A0002406C
:1012B0000900024070B500212820124D0CF048F9B9
:1012C00000232B60202428200BF086FE10F098FECF
:1012D00029680C4E10F0E0FD013C2860F3D10A496A
:1012E00010F0E2FE4FF06A5110F0DEFE4FF0745144
:1012F00010F0DAFE0121306028200CF029F9306866
:1013000070BD00BFF8350020EC51E8402DE9F04FEA
:1013100095B00CF0F1F88F4CDFF89C92206008F04B
:10132000FFFB05462068DFF8948208F0EBFB0646D9
:10133000206808F0D9FB8346206808F0ABFB07461D
:10134000206808F0B5FB8246206808F0BFFB8249A0
:10135000039033462A46CDF800B0CDF808A0019797
:101360007E4812F00FF97E4B7E4A1A60FFF7A2FF0B
:101370000021C9F8000046238DF82C108DF82D109F
:101380008DF820108DF828100BA84FF47A74764A47
:1013900076490994CDF81C8006F03CFA9DF82C3073
:1013A000002B40F00F81724F3B78002B40F0D18131
:1013B0004FF47A750024C223684A6C4909950BA83A
:1013C0000BAD8DF82C408DF82D408DF820408DF818
:1013D0002840CDF81C8006F01DFA0FCD654E97F819
:1013E00000E006F110040FC40FCD0FC428689DF86B
:1013F0002010099A9DF8283020603171B260337353
:10140000BEF1000F2CD0554812F0DAF901465348CE
:101410000DF088FC58480EF01BF90A2157480DF0D2
:1014200081FC574B186810F095F9022402460B46D0
:10143000009451480EF07CF94F480EF009F9D9F8A4
:10144000000010F087F9009402460B464A480EF05F
:101450006FF901214B480DF065FC47480EF0F8F894
:10146000347C444E002C00F037814749474C484AB1
:10147000484B494EDFF84881D6F800A003C92060E8
:1014800092E80300A06093E803004FF010090125E3
:10149000E060C4F810905046A582E58211F006F88D
:1014A0005146A061504610F0F7FC10F0FFFF3B4A98
:1014B000E061D8F80030A4F8229092E803005B02C3
:1014C000606203F12400606021464FF002092C2283
:1014D0003348A362A4F8209006F0DCFB3B78002B95
:1014E00035D009212F480DF01DFCD8F800102248F6
:1014F0000EF014F920480EF0ABF80E212A480DF03A
:1015000011FC2A4B1C4819680A2200230EF0C6F869
:1015100019480EF09DF8306810F01CF9CDF80090D5
:1015200002460B4614480EF003F9032120480DF043
:10153000F9FB11480EF08CF807211E480DF0F2FB64
:1015400029460D480EF0EAF80B480EF081F815B068
:10155000BDE8F08F84100020C0A001002C100020F6
:10156000F836002019080000D49F0100481500201B
:1015700044FBFF1FA8350020AC050020F0A00100AF
:10158000F4350020FCA001000CA101005010002047
:1015900014A101001CA101004034002024A101007D
:1015A000B83500202CA1010038A10100A43500208D
:1015B00048A101004CA10100F8350020C89E01009F
:1015C000901800206548664C12F0FAF8634902460C
:1015D0000BA806F05FFB14A92C2301F83B3D012268
:1015E0000DEB030006F056FB04F1080514F8011F8B
:1015F00000230A2207A80EF051F8A542F6D114A93B
:101600002C2401F8354D01220DEB040006F042FBBD
:101610005449554F07A80EF081F814A9012201F88A
:10162000364D0DEB040006F035FB504B186810F0FA
:1016300091F802250B460246009507A80EF078F8AF
:1016400014A9012201F8374D0DEB040006F022FB2E
:10165000D9F8000010F07EF800950B46024607A866
:101660000EF066F814A9012201F8384D0DEB0400C4
:1016700006F010FB3E4B186810F06CF804250B4682
:101680000246009507A80EF053F814A9012201F8AC
:10169000394D0DEB040006F0FDFA364B186810F0DA
:1016A00059F800950B46024607A80EF041F814A918
:1016B000012201F83A4D0DEB040006F0EBFA2E4B37
:1016C00007A819680EF02AF807A80DF0C1FF0DEB66
:1016D000040006F091F86BE6284B29491A681F4868
:1016E00001321A604FF47A7511F04CFFC2231B4A85
:1016F00024498DF82C408DF82D408DF820408DF830
:1017000028400BA80BAC0995CDF81C8006F082F898
:101710000FCC06F110050FC50FCC0FC59DF8283072
:101720009DF82010099A3373B260246831710B4818
:101730002C6012F045F8014608480DF0F3FA124803
:101740000DF086FF337C002B7FF48FAE0F4A1370B1
:101750008BE60E210E480DF0E5FA29E62C1000204C
:101760009B350020F189340144FBFF1F4810002005
:101770006C1900206017002064360020843400209B
:1017800000A1010048150020AC050020C4FAFF1F8D
:10179000E0A0010038B50E4C0E480F4D0E210DF0A3
:1017A000C1FA20460DF054FFFFF7B0FD0B4B284661
:1017B00000221A60FFF722FA01230B210848A5F83E
:1017C000B4310DF0AFFA2046BDE838400DF040BF0F
:1017D000AC05002054A10100901500204C10002001
:1017E00064A101002DE9F04F2A4A2B4B2B49DFF869
:1017F000BC8085B00293136803910133136000230A
:101800000193029B53F804BF0293039B53F8049F78
:101810000393CB4535DA019C214A224952F8240032
:1018200051F8346010F0ECFB1F4B0BF10C058246B5
:1018300003EB4505E7001DE0288810F0DDFB4FF0C5
:10184000625110F031FC04465146204610F0E0FC95
:101850000146304610F020FB2146064658F80700A6
:1018600010F0C0FD0BF1010B023508B147F808403C
:10187000CB4504D0BBF5007FDED30024E4E7094B61
:10188000DE51019B0133192B0193BAD105B0BDE89C
:10189000F08F00BF88340020D8FAFF1F40FAFF1FE6
:1018A0009410002094180020841A0020A017002013
:1018B00030B51C4C83B0204608F0BEFE2046012106
:1018C00008F010FC2046012108F006FC204600220A
:1018D000412108F0FDFB0222204613490DF07CFE59
:1018E000124B204619680DF019FF204600225A219C
:1018F00008F0EEFB0E4B18680FF02CFF01250B468D
:101900000246009520460DF013FF2A46204609495D
:101910000DF062FE00222046114603B0BDE83040C3
:1019200008F0D6BB6417002080A1010038340020E5
:10193000F8350020FCA0010008B50B2106480DF089
:10194000F1F906480DF084FEFFF7B2FF0448BDE848
:10195000084009F00BB800BF84A10100AC050020CD
:101960006417002010B501212C4808F0B5FB0121B7
:101970002A4808F0B7FB00221146284808F0A8FBC7
:10198000274B1C684CBB0322264924480DF024FE3B
:1019900022480DF05DFE244A244B11681B681F4845
:1019A000C91A0DF0BBFE032221491C480DF014FE9C
:1019B000204A214B1268194853F822100DF0AEFE50
:1019C00002221E4915480DF007FE22461C49134805
:1019D0000DF002FE11480DF03BFE022219490F489E
:1019E0000DF0FAFD184B0D4819680DF097FE012215
:1019F00016490A480DF0F0FD0322154907480DF07D
:101A0000EBFD144B054819680DF088FE01220F49C3
:101A10000248BDE810400DF0DFBD00BF6417002094
:101A20009034002090A10100801A00208410002032
:101A300094A10100A8FAFF1F10FAFF1F98A101004E
:101A4000C0BA01009CA10100B0FAFF1F1CA5010053
:101A5000A0A101003CFAFF1F10B50122044608496D
:101A600008480DF0B9FD092C04DC0122064905489F
:101A70000DF0B2FD21460348BDE810400DF04EBE0A
:101A800064A401006417002044B7020030B583B09D
:101A900002AD079C05F8082D8DF80200069A8DF816
:101AA00004304E3428468DF801108DF805208DF84D
:101AB000064008F045F80BF025FD03B030BD00BF2F
:101AC00030B58BB0044611F07BFE00B201281ADD60
:101AD000B4F9003044F64412934200F0AF8015DDB3
:101AE00044F64952934200F09D802EDC44F6521297
:101AF000934200F08B8044F6484293427BD044F6F8
:101B00004D1293426ED001200BB030BD44F24E42D4
:101B1000934200F0D18059DD44F24172934200F0CB
:101B2000C28044F25372934200F0B48044F25242B5
:101B30009342E8D109AA8049E01C11F049FD7F4990
:101B40007F4A099B0B601360DDE745F24822934210
:101B500000F0958045F64822934273D044F65452E3
:101B60009342D0D109AD08A907AA04AB039502910D
:101B70000192009306AA05ABE01C724911F028FD02
:101B8000069C059D049B07A804F5FA6407C8009508
:101B90000194FFF77BFF11216B480DF0C3F808F0AB
:101BA0004DF8014669480DF0B9FD68480DF050FD4B
:101BB0001B2167480DF0B6F80BF09EFC0146634808
:101BC0000DF0ACFD61480DF043FD9CE744F241424D
:101BD00093427AD044F24C42934294D15D4B00221E
:101BE0001A7090E709AAE01C534911F0F1FC5A4B16
:101BF000099A1A6087E7E01C09AA4F49574C11F06F
:101C0000E7FC099810F0FCF920607CE7E01C09AAC9
:101C1000494911F0DDFC099B1D2B5FDC504B1E2256
:101C20001A6070E709AAE01C434911F0D1FC099B36
:101C30004C4A003318BF0123137064E74A4B01225A
:101C40001A7060E7E01C09AA3B4911F0C1FC099B2E
:101C5000B3F5FA4F45D04BDD4BF6803293425CD062
:101C6000424A934252D04AF6444293427FF44BAFE9
:101C70003F4A404B4049116003221A6043E7E01C91
:101C800009AA2D493D4C11F0A3FC099810F0B8F9B0
:101C9000206038E709AAE01C274911F099FC384B6D
:101CA000099A1A602FE709AAE01C234911F090FC59
:101CB000344B099A1A6026E709AAE01C1E4911F064
:101CC00087FC314B099A1A601DE709AAE01C1A49E2
:101CD00011F07EFC1A4B099A1A6014E7204A13602F
:101CE00011E7234A234B2949116002221A600AE7AF
:101CF000B3F5FA5F18D0B3F57A5F7FF404AF1C4AEE
:101D00001C4B2349116001221A60FCE6184A194B4A
:101D10002049116005221A60F5E6154A154B1E4947
:101D2000116004221A60EEE6114A124B1B49116041
:101D300000221A60E7E600BFA4A10100B0FAFF1F6D
:101D40003C340020A8A10100BCA10100AC0500208A
:101D5000D0A1010030FAFF1F9C17002064FBFF1F79
:101D60003CFAFF1FCCFAFF1F44FBFF1F0077010066
:101D700040340020A8FAFF1F00442C4748FBFF1FF7
:101D800038FAFF1F04FAFF1FD8FAFF1F0000FA46B7
:101D900000007A460080BB4700803B470000FA45C0
:101DA0002DE9F043A3B000274FF47A74DFF8B8911F
:101DB000674A68490A94012319A819AE17948DF847
:101DC00030708DF831708DF824708DF82C708DF88E
:101DD00064708DF865708DF858708DF86070CDF86E
:101DE0002090CDF8549005F015FD0FCE0CAC0FC42B
:101DF0000FCE0FC49DF83030306817999DF85860A9
:101E00009DF8602020608DF824600A918DF82C20C8
:101E1000002B3FD0B846FF268DF800800024012219
:101E200015A90CA805F056FD22AB012803EB04020E
:101E300004F1010322D002F8886C1CB2FF221D2C91
:101E400001DC0A2AEBD1013CA4B222AB234403F803
:101E5000888C9DF800302F2B04D0012C02D96846C5
:101E6000FFF72EFE9DF830301B070ED40CA805F0AE
:101E7000C3FCD7B9012023B0BDE8F0839DF85420FE
:101E80000D2A55D11D2CCADDDDE7139A119B9A420C
:101E9000C2D1EBE7142130480CF044FF2F480DF07D
:101EA000D7FB012023B0BDE8F0830B212C480CF0B8
:101EB00039FF294600230A2228480DF0EFFB0024B1
:101EC00026480DF0C5FB4FF47A768DF864408DF806
:101ED00065408DF858408DF8604063231C4A1D49C9
:101EE000179619A819ACCDF8549005F093FC0FCCB7
:101EF0000CAE0FC60FCC0FC621689DF86030179A44
:101F00009DF8584031600CA829468DF82C300A9273
:101F10008DF8244005F014FE022212490CA805F0A9
:101F2000B9FE0CA805F068FC012023B0BDE8F083E1
:101F300022A921441CB2012C01F8882C7FF47FAF28
:101F4000542A7FF47CAF119D0746013D79E700BF1D
:101F5000ECA101004815002008A20100AC050020FA
:101F6000F8A1010004A20100C89E010038B5054691
:101F700007F0D6FD1E4C014620460DF0CFFB2D206C
:101F80000CF054FF284607F0BDFD014620460DF039
:101F9000C5FB2D200CF04AFF284607F0A5FD0146A1
:101FA00020460DF0BBFB012112480CF0BBFE284679
:101FB00007F070FD014620460DF0B0FB3A200CF012
:101FC00035FF284607F074FD014620460DF0A6FBBC
:101FD0003A200CF02BFF284607F078FD01462046FA
:101FE0000DF09CFB2046BDE838400DF031BB00BF32
:101FF000AC05002004A4010038B505460BF0B2F88A
:10200000074C2070681C0BF0ADF86070A81C0BF03A
:10201000A9F8A070E81C0BF0A5F8E070206838BDA6
:10202000881000202DE9F0410020FFF7E5FF1B4C50
:102030001B4F20600420FFF7DFFF386005460820B3
:102040000BF090F8DFF8648006460920C8F80060BD
:102050000BF088F82368134A002B10601BDDB3F5E2
:10206000616FC4BF4FF4616323601D2D0DDC40F22E
:102070003A233B60052E84BF0423C8F800300D28A6
:1020800084BF04231360BDE8F081074B9D42C4BFA9
:102090003C233B60EEE71E232360E6E7B0FAFF1F18
:1020A0003CFAFF1F38FAFF1F80510100A8FAFF1FFA
:1020B00038B50A4C0B460546C9B223600BF06CF8E4
:1020C0006178681C0BF068F8A178A81C0BF064F824
:1020D000E178E81CBDE838400BF05EB888100020BD
:1020E00008B50B4B00201968FFF7E2FF094B0420ED
:1020F0001968FFF7DDFF084B082019780BF04CF842
:10210000064B09201978BDE808400BF045B800BF20
:10211000B0FAFF1F3CFAFF1FA8FAFF1F38FAFF1F93
:10212000F8B504460FF016FB00220F4B0EF01CFD15
:1021300006460F4620460D4910F06AF810F090F957
:102140000FF05EFF0FF006FB002204460D46084B21
:10215000304639460FF07CFC02460B4620462946A5
:102160000FF09AF9F8BD00BF000059400000C842C6
:1021700000004E402DE9F0472428B8B002AF0FD040
:10218000A04BA14C1A68511CFF29A054C8BF0022C3
:1021900007F1D807D4BF19601A60BD46BDE8F087C3
:1021A000984D994C2B680A2B9A465EDD607894F81E
:1021B00002C094F803E0267994F80580A17994F898
:1021C0000790227A502808BFBCF14D0F0CBF0123A5
:1021D0000023BEF1540F14BF002303F001034B2E64
:1021E00014BF002303F00103B8F14C0F14BF002308
:1021F00003F001034F2914BF002103F00101B9F1DD
:10220000580F14BF002101F0010194F80990A37A3E
:102210002C2A14BF002201F00102B9F1320F14BFC1
:10222000002202F00102E17A2A2B14BF002302F0FF
:102230000103342914BF002303F001032BB1237BD6
:10224000372B02D1714B01221A70472808BFBEF10B
:10225000520F0CBF012000204D2E14BF002600F0AD
:10226000010616B1B8F1430F07D024220123D83755
:1022700022702B60BD46BDE8F087654B1A686E463C
:102280002AB9BCF1500F00F0B48001221A600AF1A3
:10229000FF334FF0000CE3185E499A4660466246F1
:1022A000E64605E003F8C48C0CF1010C514515D04D
:1022B00011F8018F131A07F1D8094B44B8F12C0F0C
:1022C0006344EFD1121A07F1D8031A446244013073
:1022D00002F8C4EC4FF0000C0201E7E7131A07F113
:1022E000D8021344634400214B4A03F8C41C07F18D
:1022F00023004A4B00924A494A4A11F069F93A468A
:10230000494907F1320011F063F907F10C0247491E
:1023100007F1410011F05CF93A1D434907F1500003
:1023200011F056F907F11002404907F15F0011F072
:102330004FF907F108023C4907F16E0011F048F926
:102340003B4B00933B4A3C4B354907F19B0011F056
:102350003FF93B78412B01D0B54686E737483A79BB
:1023600037493B7A0270F8680B70532A396908BF05
:1023700000F10040572B8A463FD0FFF7D1FE0FF007
:1023800035FDDFF8D890DFF8D88003465046C9F80D
:102390000030FFF7C5FE0FF029FD2A4B2A4A1B78B3
:1023A000C8F8000001211160002BD5D00321274877
:1023B0000CF0B8FCD9F800000FF0CCF90B46022164
:1023C0000246009122480DF0B3F9042121480CF097
:1023D000A9FCD8F800000FF0BDF9022300930246D3
:1023E0000B461B480DF0A4F919480DF031F9B5461C
:1023F0003BE7194A0221116047E701F100439A4681
:10240000BBE700BF8010002094340020F03500208E
:102410006819002093340020EC350020D4FAFF1F07
:10242000A8A2010040FAFF1FB4A20100B8A2010057
:10243000C8FAFF1FC0FAFF1F08FAFF1F7C10002018
:102440006036002044FBFF1F64360020BCA2010060
:10245000AC050020C0A2010060FBFF1F6C1900202A
:10246000601700202DE9F0418846044616213148C6
:102470000CF058FCB8F1000F4BDD0025013C2F4655
:102480002E4611E0002310222B480DF007F90421FD
:102490002A480CF047FC012D05F1010502DD2378E7
:1024A0001E443744A8450CD014F8010F08F042FC34
:1024B00021780F29E6D8012121480CF033FC21783E
:1024C000E0E7F6B2FFB2304608F034FC384608F0D8
:1024D00031FC08F087FC0F2E3C4625DD31460023F9
:1024E000102215480DF0DAF8042114480CF01AFCFB
:1024F0000F2F03DC012112480CF014FC21460023AD
:1025000010220D480DF0CAF80B48BDE8F0410DF05F
:102510009FB80024002008F00DFC204608F00AFCBB
:1025200008F060FC26462746012105480CF0FAFB1E
:10253000D4E700BFC8A20100AC050020E0A2010062
:1025400044B7020008B50CE00B4808F0CFFA0023AE
:10255000C1B2102209480DF0A1F8012108480CF081
:10256000E1FB054808F0F8FA0028EDDC0348BDE877
:1025700008400DF06DB800BF68360020AC050020A3
:1025800004A4010008B54D4B1B68012B10D001219C
:1025900005200AF0C9FF64200BF004F831224849F5
:1025A00048480DF019F84748BDE808400DF050B80C
:1025B0001722454943480DF00FF842480DF048F8FE
:1025C00008F010FC0A200AF0EDFF17223F493D48B1
:1025D0000DF002F83B480DF03BF808F003FC0A2030
:1025E0000AF0E0FF17223A4936480CF0F5FF35486B
:1025F0000DF02EF808F0F6FB0A200AF0D3FF1722A0
:10260000344930480CF0E8FF2E480DF021F808F06E
:10261000E9FB0A200AF0C6FF17222F4929480CF0CF
:10262000DBFF28480DF014F808F0DCFB17222B49DB
:1026300024480CF0D1FF23480DF00AF80A200AF0D4
:10264000B1FF172226491F480CF0C6FF1D480CF0A9
:10265000FFFF0A200AF0A6FF08F0C4FB32200AF0B0
:10266000A1FFFFF76FFF07211E480CF05BFB1E4820
:102670000CF0EEFF2A211D48FFF7F4FE1A480CF07B
:10268000E7FF4FF448700AF08DFF092118480CF05D
:1026900049FB15480CF0DCFFFFF754FF17221549E2
:1026A00008480CF099FF07480CF0D2FF0A200AF006
:1026B00079FFBDE8084008F095BB00BF60FBFF1F35
:1026C00074A2010068360020E8A2010000A3010006
:1026D00018A3010030A3010048A3010060A301007A
:1026E00078A3010090A30100AC050020F89E010032
:1026F00098A30100A4A3010038B51D4C1D481E4D30
:1027000007210CF00FFB20460CF0A2FF2A211B48EA
:10271000FFF7A8FE20460CF09BFF4FF448700AF02C
:1027200041FF092128460CF0FDFA20460CF090FFED
:10273000FFF708FF062112480CF0F4FA20460CF0CF
:1027400087FF0E210F48FFF78DFE20460CF080FF1B
:102750004FF448700AF026FF284609210CF0E2FAEF
:1027600020460CF075FFBDE83840FFF7EBBE00BF18
:10277000AC05002090A3010098A30100F89E010081
:10278000BCA3010038A801002DE9F041334E344DBF
:102790003368DFF8E88084B040F6A6600193002338
:1027A000019F2B6008F0E8F9FFF7ECFE2968336819
:1027B0000293029BD8F80020DB1B934210D279B918
:1027C000284808F0C9F900282648EFDD08F08EF9FE
:1027D000C4B220460CF02AFB2046FFF7CBFCEFE703
:1027E000102121480CF09EFA3368039303991F4887
:1027F00000230A22C91B0CF051FF1C480CF028FFD3
:1028000009211B480CF08EFA296818480CF086FF45
:1028100016480CF01DFF174B1B68012B04D008F065
:1028200051FA04B0BDE8F081172213490D480CF0AD
:10283000D3FE0C480CF00CFF0A200AF0B3FE08F09F
:10284000D1FA32200AF0AEFEFFF77CFEFFF754FF0C
:1028500008F038FA04B0BDE8F08100BF8C3A0020DF
:102860006436002068360020C4A30100AC050020B7
:10287000D8A3010060FBFF1F78A30100BCFAFF1F73
:102880002DE9F041184B194E194D82B0002240F647
:10289000A6601A6008F070F933680093DDF80080D4
:1028A0004EF660272B684BB11AE008F01FF9C4B24E
:1028B00020460CF0BBFA2046FFF75CFC0D4808F000
:1028C0004BF900280B48F0DC33680193019BC8EBFF
:1028D0000303BB42E6D9084A0221012311602B60A1
:1028E00002B0BDE8F08100BF643600208C3A0020C1
:1028F000681900206836002060FBFF1F2DE9F04FAB
:1029000085B0FEF7D5FFAB48AB4C0CF0A1FE122210
:10291000AA49A8480CF060FEA6480CF099FE224691
:102920000921A74806F04EF9237813F0C00300F000
:10293000A581402B00F019810D21A2480CF0F2F97D
:10294000002319460A22A0480CF0A8FE9E480CF06D
:102950007FFE0024274600230A2239469548DFF8E7
:10296000C0B2DFF8C0A20CF099FE0122974991484D
:102970000CF032FE0A22002321468E480CF08EFE17
:102980008C480CF065FE8B4807F0F0FFDBF8006028
:10299000DAF8000030440FF033FB054630460FF004
:1029A0002FFB29460FF034FC2946044688480FF0D7
:1029B0002FFC214605464FF07E500FF06BFA29465A
:1029C0000FF068FA834B8146196820460FF06CFBC4
:1029D000814B8046196848460FF066FB0146404629
:1029E0000FF05AFA7D4B8046196828460FF05CFBC1
:1029F000014640460FF050FA794B804618680FF0B8
:102A0000FFFA78490FF050FB774A0390414610686F
:102A10000FF0FEFB039B014618460FF045FB0FF03D
:102A200045FD0390002F40F0FF80704B00201F6099
:102A300021460FF0EDFB082106466D480CF072F9B7
:102A4000DBF8001060480CF069FE5F480CF000FEF7
:102A50000A2168480CF066F9DAF800105A480CF0C0
:102A60005DFE59480CF0F4FD0D2163480CF05AF955
:102A700020460EF06FFE022402460B460094524898
:102A80000CF056FE50480CF0E3FD12215B480CF0B0
:102A900049F928460EF05EFE009402460B464A486D
:102AA0000CF046FE48480CF0D3FD0F2154480CF0C2
:102AB00039F948460EF04EFE009402460B46424855
:102AC0000CF036FE40480CF0C3FD0D214D480CF0D3
:102AD00029F940460EF03EFE009402460B463A4865
:102AE0000CF026FE38480CF0B3FD03980FF084FA82
:102AF0000146074630460FF093FC2E2200210028A5
:102B000040F0D6802B48404D07F0E2FA0D223F49B5
:102B100028480CF061FD30463D490FF079FB064630
:102B20000EF018FE00940B46024622480CF000FE00
:102B3000012238491F480CF04FFD0E2136482E6007
:102B40000CF0F0F820480CF083FD28680EF002FE2F
:102B5000022402460B4600941B480CF0E9FD1A487B
:102B600005B0BDE8F04F0CF073BD637A227AE079CE
:102B7000013303EB022303EB004080020FF03CFA29
:102B800026490FF091FA0FF091FC0D2104460D48F3
:102B90000CF0C8F8214600230A220B480CF07EFDF9
:102BA00009480CF055FDC72C8CBFA4F1C8070027BD
:102BB000D1E600BF6417002050170020E4A30100F5
:102BC0006C150020F8A30100AC05002008A401004A
:102BD0000000204258FBFF1FB8FAFF1FB4FAFF1F86
:102BE00040FBFF1F00006145ACFAFF1F6419002085
:102BF0000CA4010018A4010024A4010034A40100C5
:102C000048A4010058A401003C2F002088A4010022
:102C100000C0A847C8A4010098A40100BD37063A27
:102C2000B0FAFF1F3CFAFF1F38460FF0E5F90746E0
:102C300070000FF0E5F9314B19680FF035FA3049A3
:102C40000FF02AF94FF08E410FF026F92D490FF0C1
:102C5000DFFA2C490FF0DCFA014638460FF0D8FABB
:102C60000EF078FD0DF0F8FE0FF0A0F8264A0346AE
:102C7000136000FB06F00FF0BFF9D9E6657AA3797F
:102C8000E279A07A6179267A05F00304640003F002
:102C90000303920044EAD01001F00F0142EA8323BB
:102CA000084443EA96130738013303FA00F065E756
:102CB0001648174D07F00CFA0E22164913480CF06F
:102CC0008BFC039B14491148A1FB0331090C002321
:102CD0000A220CF0E3FC012210490C480CF07CFCA9
:102CE00038460F490FF094FA0F2128600D480CF078
:102CF00019F80D480CF0ACFC27E700BF4034002069
:102D00000000304200007A4464190020641700205B
:102D10003C2F002068A4010007452EC2C8A4010072
:102D200000C0A84778A40100AC050020F0B59DB014
:102D300000264FF47A753C4C3C48049502948DF87B
:102D400018608DF819608DF80C608DF8146004F02F
:102D500053FD37491CAF01F23C4004F0B5FD11951D
:102D60000123344A31498DF84C608DF84D608DF85F
:102D700040608DF8486013A847F8344D13AC04F058
:102D800049FD0FCC06AD0FC50FCC0FC59DF818003F
:102D900024689DF84010119A9DF848302C608DF8F9
:102DA0000C1004928DF8143008B91DB0F0BD3346F4
:102DB000C822214906A804F053FEB04206A81CDD33
:102DC00004F01AFD0B211D480BF0ACFF1A4810F05F
:102DD000F7FC014618480BF0A5FF19480CF038FC29
:102DE0003B4601AA1749144810F0F2FB9DF8043045
:102DF000772B06D001201DB0F0BD04F0FDFC30465D
:102E0000D3E7114C0F9B114823600E210BF08AFF72
:102E100021680B4833460A220CF040FC08480CF0AD
:102E200017FC0120C1E700BFC89E01004815002023
:102E30000C110020A8A4010078190020B8A40100FA
:102E4000AC050020C4A40100D82E0020CCA40100B1
:102E50002DE9F04F83B00F460190806800210130CA
:102E600016460FF0E3F8014629480FF0D1F9044661
:102E700030460FF0C1F801460FF00EF8064638460E
:102E80000FF0BAF8014630460FF00EF90146204621
:102E90000FF0BEF94FF001084FF07E550746C146CE
:102EA0004FF0010A4FF0000B50460FF0A9F83946D9
:102EB0000FF0FAF804460FF0D3FA0FF0A1F801462C
:102EC00020460EF0E7FF294606460FF08BFA4FF03A
:102ED000874148B120460FF085FA28B120460FF00F
:102EE00005FB35468046D1461AF1010A4BF1000B2D
:102EF000BBF1000F08BFBAF1400FD5D1019809F11D
:102F0000FF3208F1FF3380E80C0003B0BDE8F08F1A
:102F10004054094C2DE9F04110298AB00C4607466F
:102F200063D0202904BF012309932246394607A80C
:102F3000FFF78EFF0798089E099D0294431C0136F7
:102F400001350393049605950FF056F84FF07E5126
:102F50000EF0A2FF26490FF0A7F8804630460FF08A
:102F60004BF8014640460FF053F94FF07C510FF0FB
:102F70009BF8064628460FF03FF8014630460FF012
:102F800047F9054660000FF03BF8014628460FF070
:102F90003FF90FF065FA174B01901A460097164952
:102FA0001648174D174C0CF06BFB174917480B6868
:102FB00023F010430B60079A089B120302F47F2250
:102FC000C3F30B0313432B609DF8243043F0E063FD
:102FD00023609DF8243043F08E4303600B6843F078
:102FE00010430B600AB0BDE8F081032309939CE70E
:102FF0004054894C00A24A04DCA40100AC05002026
:1030000004F1024008F0024080F0024088F00240E3
:103010002DE9F04F05469D4E9D4FDFF88C8296F8C6
:1030200000E02F60FF2085F82400DFF8809298F8F8
:103030000000BEF1060F59F820E04FF000038DB0FC
:103040000C4685F8253085F8263098BF3370BEF1E0
:10305000000F00F0AD808E455ED07346810001E028
:103060009C4259D00B445B68002BF9D1734600E0B9
:1030700053460B44D3F804A0BAF1000FF8D15C60BA
:103080003478029705EB010B4FFA80FCFF23062CE6
:10309000CBF804A08DF82DA08DF82EA085F824C0C3
:1030A0008DF82C30744604D800233370002C00F0C7
:1030B000B480A24229D0234601E0934225D00B449C
:1030C0005B68002BF9D104EB010EDEF80440002C04
:1030D000F9D1CEF804200CAB1944BCF1FF3F00F14C
:1030E00001034FF0000041F8240C88F800308DF8FF
:1030F0002CC0029705D0674951F82C2002AB9A42A8
:1031000076D028460DB0BDE8F08F013088F8000079
:1031100028460DB0BDE8F08F31780297FF240023D8
:1031200006298DF82C408DF82D308DF82E30574C17
:1031300000D823709645E8D07346810001E09A429A
:10314000E3D00B445B68002BF9D18E44DEF80440D9
:103150002CB1A6468E44DEF80440002CF9D10CAB0D
:1031600046B219440130731CCEF8042088F80000E0
:1031700041F8244C02978DF82C60C2D0454951F893
:10318000262002AB9A42BCD159F82630B00023B1B8
:103190001A1853685460002BFAD198F800300022B6
:1031A000013B88F8003049F8262041F82620A8E79E
:1031B00000283AD0374B96F800E043F820508100C1
:1031C00005EB010C002349F820408DF82D30CCF898
:1031D00004308DF82E304FFA80FCFF23BEF1060F2D
:1031E000029785F824C08DF82C307FF65DAF5DE73F
:1031F00059F82C304FEA8C0423B11A1953685060E7
:10320000002BFAD198F800300022013B88F80030FA
:1032100049F82C2041F82C2073E7E8B11D4B49F800
:10322000202002AA43F8202055E71B491B480B68C1
:10323000019243F080630B600368194923F08043D7
:10324000036015200AF090F8164B019A4FF4001114
:10325000196098F80000ADE70F4C10482368019200
:1032600043F08063236003680D4923F080430360CB
:1032700015200AF079F80B4B019A4FF400111960F0
:1032800098F800004FFA80FC8100C7E7BCF3FF1FED
:10329000EC9E0100203700200470044000700440C0
:1032A0009504000000E100E04137002000370020D5
:1032B0002DE9F84309F00EFFB64AB74B14681868B9
:1032C000B64BB74FB74D1D60044400254FF47A76D6
:1032D0003C609E60B44CB54AB5491D7118461D73DB
:1032E0000EF0CEF8042701231E20B24EB24A26600B
:1032F0004FF496714FF0FF36E16060601946A060B0
:103300003846657584F8215084F82250656226613C
:10331000E6612663237584F82030A761A262E26229
:103320000AF016F9E169B14200F09281C8B229466B
:103330000AF00EF9A14FDFF80C83A1483146A14CE9
:1033400007F066F922687D723D613D72FD60C7F845
:1033500000800AB983E11A465369002BFBD15761FB
:103360000025994E994B95487D61BD80FD80BD72C9
:103370003B6002F035FD012006F5A2522B4629469E
:103380003572F560C6F8008070723261354600E033
:103390002A6942F82310727A8B4801339A42F7DC8B
:1033A0002268884B0AB95CE11A465369002BFBD1AD
:1033B000566141F23C4241F23D434FF00009844DD9
:1033C0008449854806F8029006F803904A4601238E
:1033D0003160C6F818044FF48061C6F81490A6F85E
:1033E0000490A6F8069086F80A907C480DF058FAEA
:1033F000012005F118024B464946C5F8008085F8C2
:103400000890C5F80C9068722A61AE4601E0DEF8BB
:10341000102042F823106A7A6D4801339A42F6DC94
:103420002268684B0AB918E11A465369002BFBD190
:103430005561DFF81492DFF81482694B2B60002489
:1034400048466C61AC80EC80AC72A5F8B041C9F81C
:103450000070A5F8B241C5F8AC41A5F8B441C5F873
:10346000B841C9F8046089F8084089F80940C9F8EA
:103470000C4089F810400BF02DFE4C4A59495A4E29
:1034800048460DF0FDFF404688F80840C8F8007037
:10349000C8F8045088F80940C8F80C4088F8104073
:1034A0000BF018FE4046414A4E49504D0DF0E8FFE2
:1034B0004F4B5049504A86F825404FF0FF08316085
:1034C000012786F824801A603046384A4B497463D5
:1034D000B46386F83C4086F826700DF0D1FF484B67
:1034E00085F8248085F82540304A46492B602846D7
:1034F00085F8274085F8284085F826700DF0C0FF34
:10350000324629464048414D414F424EFFF780FD2B
:10351000264A41493C480DF0B3FF404A404B4149DF
:1035200011604FF47A7090603F49147464204FF03A
:10353000800E547414711473DC711C4A83F83C447B
:1035400083F83D4483F86A4483F86004C3F86C143C
:103550002846364985F804E02C600DF091FF344B85
:1035600018680EF04DFD014638680EF051FE314BE3
:103570000146196030480EF04BFE214630602F485E
:103580000CF0EEF9094A2E492C48BDE8F8430DF03D
:1035900077BF00BFB0FAFF1F3CFAFF1F683600205C
:1035A0009C17002028B8010044340020FCF9FF1FBC
:1035B000950800008405002054BB0100DC2E00208B
:1035C00064170020E43C0020841A002084B001002D
:1035D000901500205CB0010054A80100C82E002006
:1035E00050A80100A9080000401A0020F82E002071
:1035F0007834002084B2010068B00100BD060000EC
:1036000098B201001507000068180020402F002024
:10361000403400209010002011060000A835002042
:103620000C110020C89E010000000238890800002B
:1036300050FBFF1F8C10002000007A4480150020F2
:10364000E1F80000BC9E0100282F0020F8100020A7
:10365000054F0648DFF8188071E61860E9E6276034
:103660007EE61860A5E600BFDC2E0020641700206F
:10367000BC9E010070B5134C82B006460D46204634
:103680000A2103F015F8C6F30721204602F01CFDBD
:10369000F1B2204602F018FDC5F30721204602F0E2
:1036A00013FDE9B2204602F00FFD00230093627B78
:1036B00021692046012303F087FAB0FA80F040091F
:1036C00002B070BDE036002008B500213020FFF7C1
:1036D000D1FF00210220BDE80840FFF7CBBF00BFAB
:1036E00008B5A2213020FFF7C5FF43210220BDE825
:1036F0000840FFF7BFBF00BF0238032810B503DC46
:1037000000285FDA002400E00C2444F2600130203D
:10371000FFF7B0FF6C212620FFF7ACFF4FF4F871E4
:103720002820FFF7A7FF40F622712C20FFF7A2FF09
:1037300000213C20FFF79EFFFFF7D2FF2146042027
:10374000FFF798FF4FF498710620FFF793FF0021D1
:103750000A20FFF78FFF08210E20FFF78BFF4FF69F
:10376000FF711020FFF786FF47F67F712220FFF7D9
:1037700081FF00214FF49270FFF77CFF4FF48A71B4
:103780002420FFF777FF104C00212A20FFF772FF5B
:1037900009210E480BF0C6FA21680D480BF0BEFF58
:1037A0000B480BF055FF2168202041EA0111FFF77B
:1037B00061FF014606480BF0B1FF05480BF048FFDA
:1037C000012010BD8400A0E738FAFF1FF8A4010013
:1037D000AC0500202DE9F041214B224E86B010218E
:1037E000044653F82000FFF795FB1F4B5D7BD3F891
:1037F0001080284602F062FD012700231B4A019039
:1038000029464046039202931A460093049702F019
:1038100069FE2046FFF770FF30465522202102F056
:10382000CDF838B1F28842F0040292B23046242139
:1038300002F0C4F800210B4802F0DCF90C4B0948F7
:103840001A78114602F08CF9064802F07FF9054813
:1038500002F092F906B0BDE8F041FDF7CDBC00BF23
:1038600010FAFF1F78340020E0360020A086010007
:1038700038FAFF1F70B50F4C82B00E460146204645
:10388000154602F015FF3146204602F01DFC294680
:10389000204602F019FC0023627B21690093204638
:1038A000012303F091F90446052009F07BFE204630
:1038B00002B070BDE036002038B5324C402220788E
:1038C0002421FFF7D7FF002840D12F4D20782A6808
:1038D00062F07F02D2B22521FFF7CCFF002838D159
:1038E000032226212078FFF7C5FF002834D1D622F5
:1038F00027212078FFF7BEFF88BB2A78207828216F
:10390000FFF7B8FF70BB0A2229212078FFF7B2FF2A
:1039100058BB81222A212078FFF7ACFF40BB11223F
:1039200064212078FFF7A6FF28BB032267212078B7
:10393000FFF7A0FF10BB207880220121FFF79AFF3C
:10394000002814BF6FF00E00002038BD6FF0050096
:1039500038BD6FF0060038BD6FF0070038BD6FF05E
:10396000080038BD6FF0090038BD6FF00A0038BD9F
:103970006FF00B0038BD6FF00C0038BD6FF00D001C
:1039800038BD00BF00FAFF1F0CFAFF1F344B1B7835
:1039900070B50446002B41D1002C45D0314C324E3D
:1039A000207801226B21FFF765FF03221A210546CB
:1039B0002078FFF75FFF10221B212078FFF75AFFC6
:1039C000092219212078FFF755FF207818221C21A1
:1039D000FFF750FF3368022B2DD0042B32D0082B79
:1039E00037D003221D212078FFF744FF2222372100
:1039F0002078FFF73FFF012238212078FFF73AFFB8
:103A0000FFF75AFF07226A212078FFF733FF20785B
:103A100060226A21FFF72EFF284670BD0921134856
:103A20000BF080F9002CB9D10E4B402218786B2195
:103A3000FFF720FF70BD00221C212078FFF71AFF3E
:103A40003368CAE708221C212078FFF713FF336888
:103A5000C5E710221C212078FFF70CFFC1E700BF4B
:103A600044FBFF1F00FAFF1F04FAFF1F04A501001B
:103A700070B584B009F040FD0921064641480BF0BD
:103A800051F941480BF0E4FD0021082009F04CFDFC
:103A9000FFF71AFE3D4B1B78002B6FD1AE213C483F
:103AA0003C4D06F0D1FD0A2009F07CFD57E005F001
:103AB000DDFE0621384805F081FC0121052009F0D2
:103AC00033FD364B364A1A60FEF75EFE00210520B4
:103AD00009F02AFD334807F02FFF7821314807F01D
:103AE00063FB314931480BF077FF31492F480BF028
:103AF000B9FF304B2D4819680BF0C2FF2E492B48F7
:103B00000BF0B0FF09F0F8FC014628480BF0CCFFA1
:103B1000294926480BF0A6FF284B0422196868465D
:103B20000BF040FF694621480BF098FF68460BF008
:103B3000D7FE21491D480BF095FF214B042219683F
:103B400068460BF02FFF694618480BF087FF684660
:103B50000BF0C6FE00F01AFB124807F0A5FB09F0B7
:103B6000CBFC841B0023AC4219464FF005021548DC
:103B70009DDD154B154A1A6004B070BD0020FFF79B
:103B800005FF8BE720A50100AC050020CCFAFF1F44
:103B9000641700207F51010068180020BCFAFF1F45
:103BA0008038010044340020C0BA01008015002094
:103BB0002CA501006436002070A101006C190020C2
:103BC00060170020401A00200CED00E00400FA0508
:103BD00010B5094C20460FF0F3FD014620460BF0CE
:103BE000A1F82378522B06D163784D2B03D1BDE881
:103BF0001040FFF73DBF10BDFC3500202DE9F04F10
:103C0000704B714A1C681568704B714A1B881668A6
:103C10007048DFF80882DFF808A2DFF808B2A1B028
:103C20000D21ADF81830CDF81E40CDF82250CDF85A
:103C30001A600BF077F800230A22322166480BF055
:103C40002DFD65480BF004FD0C2164480BF06AF86B
:103C500000230A22314660480BF020FD5E480BF03D
:103C6000F7FC05215E480BF05DF820460DF072FD73
:103C7000022402460B46009457480BF059FD564863
:103C80000BF0E6FC052157480BF04CF828460DF0E8
:103C900061FD009402460B464F480BF049FD4E482B
:103CA0000BF0D6FC504B514918680EF0FDF90EF0A0
:103CB000FDFB2146C4B24E488DF826400BF032F889
:103CC00000230A22214644480BF0E8FC42480BF04E
:103CD000BFFC162147480BF025F83F480BF0B8FC15
:103CE000454A464B41491B6810688DF827300EF055
:103CF0008FFA0EF0DBFB0DF127058DF8490000244B
:103D000045E03F4B18680EF07BF9014630460EF057
:103D10007FFA0DF01FFD0CF089FF3A4B064618683C
:103D20000F460DF017FD0CF081FF0022CDE90201D6
:103D3000354B304639460DF061FD002206460F46F0
:103D4000324BDDE902010DF059FD02460B463046CB
:103D500039460DF09FFB0EF049F8DAF800100EF02E
:103D600099F8DBF800100EF095F80EF09FFBC6B244
:103D7000314600230A22184805F8016F0BF08EFC2B
:103D80000134022122480AF0CDFF192C4CD058F8FA
:103D90003460204930460EF043FB0028B1D1194B66
:103DA00018680DF0D7FC0CF041FF0022174B0DF006
:103DB00025FD02460B46002017490DF06BFB0EF067
:103DC00015F8CAE76C190020601700204CFBFF1F94
:103DD0007419002030A50100AC05002040A50100A9
:103DE00050A5010058A50100F83500200000204131
:103DF00060A5010064A50100E8350020D82E002050
:103E0000883400208C100020000034400000244042
:103E10007CA50100BD378635000058C094180020ED
:103E200064FBFF1F48100020B8480BF011FC0A216A
:103E3000B7480AF077FFB5480BF00AFC10AD002434
:103E4000B44B53F834000DF085FC0CF0EFFEB24B90
:103E50008046186889460DF07DFC0CF0E7FE0022D4
:103E600006460F46AD4B404649460DF0C7FC0022C2
:103E700080468946AA4B304639460DF0BFFC0246C3
:103E80000B46404649460DF005FB0646DAF80000B1
:103E90000F460DF05FFC02460B46304639460DF0EA
:103EA000F9FA0646DBF800000F460DF053FC024617
:103EB0000B46304639460DF0EDFA0DF077FFC6B2ED
:103EC000314600230A22914805F8016F0BF0E6FB0A
:103ED0000134022193480AF025FF082CB0D18B4809
:103EE0000BF0B6FB022190480AF01CFF00230A22C7
:103EF0009DF8271085480BF0D1FB022189480AF074
:103F000011FF022189480AF00DFF00230A229DF8C3
:103F100049107E480BF0C2FB7C480BF099FB0C214A
:103F200083480AF0FFFE834B78480221D3E900233F
:103F300000910BF0FDFB75480BF08AFB06217E48D3
:103F40000AF0F0FE7D4B714819680A2200230BF03D
:103F5000A5FB6E480BF07CFB042179480AF0E2FED9
:103F6000784B6A48B3F900100BF0D8FB67480BF0A8
:103F70006FFB042174480AF0D5FE744B6348B3F913
:103F800000100BF0CBFB61480BF062FB1221704874
:103F90000AF0C8FE00230A2232215C480BF07EFBA7
:103FA0005A480BF055FB0DF117050DF14B060DF1BD
:103FB000490707E021460023102254480BF06EFB0E
:103FC000AF420AD015F8014F06F8014F0F2CF1D877
:103FD000012160480AF0A6FEECE75F4D4B480BF06C
:103FE00037FB2B786422059203BB5C4B1C781CB911
:103FF000204621B0BDE8F08F05AB00935848594BDF
:10400000322213A908F032F80446002842D12B7856
:1040100053BB059B2BBB082153480AF083FE3B484A
:104020000BF016FB204621B0BDE8F08FFDF740FCF9
:104030004E480BF00DFB0C224D494C480BF0CCFACE
:104040004A480BF005FB00230A22DDF81A10474806
:104050000BF024FB45480BF0FBFA444806F086FCC5
:10406000C3E7FFF7B5FDD6E7FDF722FC224641493D
:104070003E480BF0B1FA3D480BF0EAFA08223E49FF
:104080003A480BF0A9FA39480BF0E2FA374806F043
:104090006DFCBEE7132139480AF044FE21461B4857
:1040A0000BF03CFB19480BF0D3FA2B78BBB9072C6B
:1040B0009ED10C2132480AF035FE14480BF0C8FAA4
:1040C0002B78002B94D022462E4928480BF084FAF6
:1040D00026480BF0BDFA254806F048FC88E7FDF7B6
:1040E000E7FB0022234921480BF076FA1F480BF02A
:1040F000AFFA092224491D480BF06EFA1B480BF059
:10410000A7FA1A4806F032FCD1E700BFAC05002040
:1041100080A50100A01700208C1000200000344072
:10412000000024407CA501008CA5010090A50100A1
:1041300094A50100E0350020A4A50100601900202D
:10414000ACA5010094350020B4A50100F42E002098
:10415000BCA5010044B7020054FBFF1F4EFBFF1F2C
:1041600044340020FC35002024A601006417002000
:10417000D0A50100C0BA010018A60100E0A5010009
:1041800000A6010010A60100F4A5010030B5474DBE
:104190002B7883B0FBB902AC64230021444844F877
:1041A000043D0BF095FC23460146424A424807F085
:1041B00073FF044620BB2B78002B4AD1019B002BB8
:1041C00044D108213D480AF0ADFD3D480BF040FACE
:1041D000204603B030BDFDF76BFB032239493A4856
:1041E0000BF0FAF938480BF033FA314936480BF046
:1041F00009FA35480BF02CFA334806F0B7FBCAE74A
:10420000132132480AF08EFD21462D480BF086FA24
:104210002B480BF01DFA2B78002B30D1072CD7D16F
:104220000C212B480AF07EFD25480BF011FA2B7863
:10423000002BCDD02246274923480BF0CDF9224848
:104240000BF006FA204806F091FBC1E7FFF7C0FC2F
:10425000B7E7FDF72DFB22461F491B480BF0BCF9C1
:1042600019480BF0F5F908221C4917480BF0B4F96E
:1042700015480BF0EDF9144806F078FB9EE7FDF7C2
:1042800017FB0022144910480BF0A6F90E480BF05A
:10429000DFF9092212490C480BF09EF90A480BF08D
:1042A000D7F9094806F062FBB8E700BF54FBFF1FCF
:1042B00080150020FC3500204434002024A6010095
:1042C000AC05002030A6010064170020E0A5010025
:1042D00000A6010010A60100C0BA010018A6010046
:1042E000F4A501002DE9F04F8BB072B69B4A4CF259
:1042F00020504DF62811108018231180013BFDD16C
:10430000974D984C98494FF6FF734FF480602B807F
:104310002380088032F80E3C9BB243F0D30322F88E
:104320000E3C62B6FCF778FF01210F2009F010F96E
:1043300000210F2009F0F8F80121102009F008F9F8
:104340000121102009F0F0F80121112009F000F9F5
:104350000021112009F0E8F80021222009F0F8F8E6
:104360000021232009F0F4F80121082009F0F0F8D9
:104370000021282009F0ECF8002008F007FE0021B9
:10438000022009F0E5F80021032009F0E1F80121FD
:10439000042009F0DDF80021042009F0C5F801210E
:1043A000052009F0D5F80121082009F0BDF8012108
:1043B000052009F0B9F86D4A6D486E4902F16405AF
:1043C00052F8043F50F8044FAA42A3EB040341F80B
:1043D000043FF5D1684E694D4FF4FA7009F0E2F8E8
:1043E000674B717B3069039300240123049301938D
:1043F000224623460294009402F074F8336942F294
:104400001072C3F8682264202C6009F0CBF8296888
:104410005C48102223460BF041F95A480BF018F97A
:104420004FF430532B60642009F0BCF84FF4345340
:104430002B60642009F0B6F8534B1B788BB1122126
:1044400052480AF06FFC4F480BF002F9032409F0C0
:1044500053F8FDF78BFD4FF47A7009F0A3F8013C97
:10446000F5D1FCF727FF01233C220221484806F042
:104470005BF9FDF71DFA474945480A220BF0ACF8F5
:1044800043480BF0E5F8424806F070FA424B1968D1
:10449000F1B9102009F048F80121112009F044F881
:1044A00001210F2009F040F84FF47A7009F07AF8F2
:1044B0000121102009F038F80B22384934480BF05C
:1044C0008BF833480BF0C4F8314806F04FFAFEE79A
:1044D000334C3448072103F04DF804F58C650E2168
:1044E000304803F08FF8284604F26C414FF038430F
:1044F0000A2204F087FA00285ED12B4C2B49214870
:10450000002323703225FCF7F1F9FDF7D1F90022E1
:1045100027491F480BF060F81D480BF099F8082256
:1045200024491B480BF058F819480BF091F818482B
:1045300006F01CFA4FF4C87009F034F8FDF7B8F92A
:10454000134806F013FA4FF4C87009F02BF8013D38
:10455000DDD14FF4C87009F025F84BE00E2005407E
:1045600004200540062005401620054040FAFF1FA4
:10457000D8FAFF1F90100020E036002010D0034032
:10458000801A0600AC05002044FBFF1F40A6010076
:104590006417002034A601005CFBFF1F54A6010035
:1045A0000C11002044000020C4FAFF1F04A70100E2
:1045B000C0BA010060A6010004F23C40256003F08F
:1045C0001BF90121204604F0D1F80146002800F033
:1045D0004C82934C04F23C452846214603F074F982
:1045E00000288AD094F83C3413F0700F85D08D4B9E
:1045F0008D4C1D608D4DFDF715FD8D4923782A6882
:104600000A60002B40F004818A4B8B491B680868C4
:104610008A4FDFF89C828A4E13448342C8BF0B60E6
:10462000FDF75EFD38680DF0EBFC0146D8F80000A0
:104630000DF0EEFD03460146336082480DF0E8FDC3
:10464000814B1860FEF75AF9FDF776F97F488049EB
:104650000022002340F8332041F833200133192B86
:10466000F8D17C4BDFF84CE27B487C491A78DFF8C4
:104670004892DFF848C20023AEF80030DFF840E28D
:1046800003800B6000200021C9F80030CCF8003016
:10469000CEE90001002A40F09681DFF828E2704B55
:1046A000DFF824C2DEF800E0D3F800906D4A6E49CE
:1046B0006E48DCF8003012680968006800930EF557
:1046C000FA6ECDF804E04B46FDF7E0F9FDF7F0F89F
:1046D000092267496748DFF8F4A1DFF8F4910AF08E
:1046E0007BFF64480AF0B4FF1E220021614805F0F8
:1046F000EFFC052260495F480AF06EFFDAF800001F
:104700000DF028F84FF0020B0B460246CDF800B032
:1047100058480BF00DF857480AF09AFF0522574900
:1047200054480AF059FFD9F800000DF013F8CDF8FD
:1047300000B002460B464F480AF0FAFF4D4806F01B
:1047400015F94F4B1B78002B40F0C88041F28830A0
:1047500008F028FF00210F2008F0E6FE2378002B48
:104760005AD14848DFF86C91474CDFF86CB105F03E
:10477000B5FAFCF759FB08F0BFFE444B44491B68EF
:104780002D680860434A90FBF3F003FB003359198E
:1047900011602360D9F800203F4B4048016053F876
:1047A00022000DF02DFC82462846C8F800A00DF02E
:1047B00027FC51460DF078FC4FF06E510DF074FC63
:1047C0000DF04EFECBF8000038680DF019FC0146E4
:1047D00050460DF01DFD03460146336019480DF0AB
:1047E00017FD194B6E2118602D480AF09FFBD9F870
:1047F0000000FEF7EFFF2B4A20682B492B4B10607F
:1048000000204FF0FF3208601A600BB0BDE8F08F57
:10481000FDF7C6FA2A68F7E6FCF71EFCA1E700BF21
:104820000C110020F4360020C4FAFF1FB0FAFF1F5D
:104830003C3400203CFAFF1F9C17002050FBFF1F58
:104840008C10002000007A44901000209418002062
:10485000A017002068FBFF1FF42E00206019002025
:10486000C0FAFF1FEC350020D4FAFF1F40FAFF1FEB
:10487000D8A6010064170020E4A60100ECA6010000
:104880004EFBFF1F15080000801A0020D0FAFF1F02
:10489000841000203434002010FAFF1F242F002041
:1048A0000082FF1F74190020903400205C19002042
:1048B0004034002094350020D82E00208834002079
:1048C000E0350020C8FAFF1F08FAFF1F6C1900200E
:1048D00060170020A8FAFF1F9018002041F64C50E6
:1048E00008F072FF002008F0E5FF4FF47A7008F03E
:1048F00059FE614807F020F8002183465E4806F023
:1049000049FC5E495C4807F05FF8FCF7D1FF0822DC
:104910005B495C480AF060FE59465A480AF0FEFEC0
:1049200058480AF095FE574806F020F8782152487A
:1049300006F03AFC544955480BF04EF85449534898
:104940000BF090F8534B514819680BF099F8524905
:104950004E480BF087F808F0CFFD01464B480BF0AE
:10496000A3F84D4949480BF07DF80422DAF800100D
:1049700006A80BF017F806A944480BF06FF806A834
:104980000AF0AEFF444941480BF06CF80422D9F814
:10499000001006A80BF006F806A93C480BF05EF8DC
:1049A00006A80AF09DFF394936480AF02BFE354823
:1049B0000AF04EFE334805F0D9FFFFF7E7FB2E481B
:1049C00006F072FCC2E635492E48DFF8C8A0FBF7B6
:1049D0008DFF33492B48FBF789FF2A4805F0C6FFB6
:1049E000FDF74EFFFCF764FF2C492648FBF77EFFDE
:1049F0002C4B24481B68012B0CBF2B492B49FBF780
:104A000075FF2B491F48FBF771FF1E4805F0AEFFED
:104A1000D3464FF00009DAF80030002B7FF43DAEAA
:104A2000B9F1070F3FF439AEFDF7AEFEDBF8003009
:104A3000002BF0D11F492048FBF758FFFCF738FF47
:104A400010480AF005FE1D490E48FBF74FFF1C49B0
:104A50000C48FBF74BFF0B4805F088FF42F2107043
:104A600009F1010908F09EFDD5E7204603F07EFE1E
:104A700000287FF4AEAD40E54434002038340020F7
:104A8000F4A6010064170020C0BA010080150020C0
:104A900000A701006436002070A101006CA601008F
:104AA00070A6010060FBFF1F84A601008CA6010018
:104AB00094A60100A4A60100AC050020B8A6010040
:104AC000C8A6010038B50C4605460121234805F06B
:104AD00003FB2AB20021214805F0FAFA204605F02E
:104AE0001FF801461D480AF019FE2D211B4805F04C
:104AF000B5FA204605F006F8014618480AF00EFE01
:104B00002D21164805F0AAFA204604F0EDFF0146D3
:104B100012480AF003FE0222114910480AF05CFD17
:104B2000204604F0B7FF092804DC01220D490B4898
:104B30000AF052FD204604F0ADFF014607480AF096
:104B4000EDFD204604F0B4FFFCF786FF204604F09C
:104B5000BDFFBDE83840FCF77FBF00BF64170020F1
:104B60007CA5010044B702002DE9F04FDFF8148363
:104B7000AA4E95B008F0C0FCD8F80040306034B1BF
:104B8000012C00F0CB8030BF15B0BDE8F08F642061
:104B900008F008FD72B6A24F4AF202624BF280435F
:104BA0003A803B8062B600E00124FCF783FB9D491C
:104BB0000DF018FC002800F09C8072B64AF20262E8
:104BC0004BF280433A803B8062B6AE21964805F0B6
:104BD0003BFD0C21954808F0CFFF95480AF038FDC1
:104BE000002319460522934804F040FE0A2008F0ED
:104BF000D9FC914804F086FA41F2883008F0D2FCE2
:104C000014AD4FF47A730024DFF87CE209938B4AE9
:104C10008B4945F834ED46230BA88DF82C408DF8D0
:104C20002D408DF820408DF8284002F0F3FD9DF8CE
:104C30002C30002BB8D0834928460AF06FFD14A908
:104C40002C2401F8354D01220DEB040003F022F86D
:104C50007D4928460AF062FD14A9012201F8364D6B
:104C60000DEB040003F016F814A9012201F8374DEA
:104C70000DEB040003F00EF8FCF71CFB0CF06AFDD2
:104C80004FF0020ECDF800E00B46024628460AF02F
:104C90004FFD14A9012201F8384D0DEB040002F07C
:104CA000F9FF6A4B18680CF055FD4FF004090B46EC
:104CB0000246CDF8009028460AF03AFD14A90122D8
:104CC00001F8394D0DEB040002F0E4FF604B186869
:104CD0000CF040FDCDF8009002460B4628460AF045
:104CE00027FD28460AF0B4FC0DEB040002F084FD19
:104CF0005AE7002C40F03E83564CDFF890A19AF81A
:104D00000030002B40F02A83326823689A4280F2F8
:104D1000E282D8F80040012C7FF435AF72B6404BE8
:104D20004AF202614BF2804219801A8062B6FBF7A8
:104D30008BFF494A41F23D43D15C19B10021D15466
:104D4000FCF750FD454A464B12681B689A42FFF635
:104D50001AAF444B444C1868DFF830A10DF050F9FD
:104D600042490DF055FA21680DF096F8404920604F
:104D70000DF056FB10B100238AF80030FCF71CF848
:104D800072B6274B4AF202614BF2804219801A80B8
:104D900062B69AF80030002B40F07883012105209C
:104DA00008F0C2FBFCF784FD072232491E48324D51
:104DB0000AF012FC1C480AF04BFC1B4805F0D6FD1B
:104DC0000121112008F0B0FB0021102008F0ACFBFD
:104DD00001210F2008F0A8FB4FF47A7008F0E2FBE5
:104DE0000121102008F0A0FB08F086FB04462220D9
:104DF000346008F0F1F80A210746204809F092FFD4
:104E00001F480AF025FC33682A68C82FA3EB040367
:104E100061DD9A425FDDDFF808903BE084100020FE
:104E20000C2005409A9959406417002024A70100DE
:104E300084050020401A002068180020D49F01003B
:104E4000481500207065656CF18934016C190020EB
:104E500060170020801A0020841A00204C100020C7
:104E600090180020B0FAFF1FF435002000006145C3
:104E7000CDCCCC3D7CA701002CFAFF1F84A70100FC
:104E8000AC05002090340020C89E010054FBFF1F99
:104E9000C82F20DD08F030FB3060222008F09CF89D
:104EA00001460746BF480AF039FCBE480AF0D0FB6D
:104EB0004FF4FA6008F076FB72B64AF202624BF2E7
:104EC0008043A9F80020A9F8003062B633682A6848
:104ED0001B1B9342DCDB9A4280F257829AF8003027
:104EE000002B40F0E48308F007FB044623203460E5
:104EF00008F072F80B21AC4809F014FFA9480AF039
:104F0000A7FB33682A681B1B01279A429AF80030D6
:104F1000C0F28B82002B40F08D8208F0EDFA19214F
:104F20008346A248C6F800B009F0FCFE9D48DFF8B1
:104F300090920AF08DFB222008F04EF804464FF4C0
:104F40007A7008F02FFB0A21994809F0EBFE214600
:104F500094480AF0E3FB93480AF07AFB08F0CCFA95
:104F6000306072B64AF202624BF28043A9F8002028
:104F7000A9F8003062B633682A68CBEB030393428A
:104F8000A4F11404ACBF00230123B4F5757F98BFCE
:104F90000023BB42CFD800210F2008F0C5FA002122
:104FA000102008F0C1FA0021112008F0BDFA814C50
:104FB0004FF47A7008F0F6FA0121102008F0B4FAE4
:104FC00004F58C65642008F0EDFA284604F26C4183
:104FD0004FF038430A2203F015FD002840F05D82AF
:104FE0000021102008F0A0FA4FF47A7008F0DAFAE5
:104FF0000121102008F098FA4FF47A7008F0D2FAE4
:1050000011216D4809F08EFE66480AF021FB6B4BBA
:105010001B78002B00F0608272B6694B4AF2026185
:105020004BF2804219801A8062B6664B1B78002BC7
:1050300073D09AF80030002B40F00E83624BDFF8FB
:10504000F4B1624FDFF8F09147F230521A60FDF789
:105050009BFB04215E4809F065FE5E4B18680CF06E
:1050600079FB062402460B4600944E480AF060FB8A
:105070004C480AF0EDFA0421574809F053FE574B0B
:1050800018680CF067FB00940B46024645480AF08E
:105090004FFB44480AF0DCFA306804F025FD504B21
:1050A000DBF800501A6803922D1A306804F02AFDCC
:1050B0003C68241A306804F0EDFCD9F800301B1A63
:1050C000B3FA83F35B093068029304F0F1FC039AAE
:1050D000029BB5FA85F502406D09B4FA84F41540D7
:1050E0006409404A2C401C420146106015D03E4BDA
:1050F0003E4A1C683D68DBF80030D9F800001268B1
:10510000009504F5FA640194FCF7C0FC0A213848C4
:1051100009F008FE23480AF09BFA364C00210520CE
:1051200008F002FA2278002A00F07182324D334CE6
:105130002B6821688B4211DB82B19AF80020002A8B
:1051400040F078822E4A2F4812681344236006F0FC
:10515000F3FBFEF753FD2B4806F0A6F82A482B492F
:105160000022002340F8332041F833200133192B6B
:10517000F8D1274D274C284F284E294829499AF81D
:10518000002000232B802380002500243B60336017
:105190000360C1E90045002A40F03482224F2348D1
:1051A000234D4BE0AC05002090A70100B4A70100FF
:1051B000D0A701000C11002024A8010070190020C4
:1051C0000C20054068FBFF1FBCFAFF1F08FAFF1FF9
:1051D000DCA701006C190020E4A701006017002083
:1051E00064360020D4FAFF1FC8FAFF1FEC350020F8
:1051F000ECA701004EFBFF1F34340020242F0020B9
:105200009C1700204434002094180020A017002090
:1052100094350020F42E0020D82E00208834002061
:1052200060190020E0350020801A0020641700205B
:105230008C340020C0FAFF1F40FAFF1FA84EAE2199
:1052400005F002FA3C6808F057F9A64AA64B126826
:10525000201A841A24EAE47983FB09234B444FEA99
:10526000E970C0EBE3200CF063FA0BF0F5FB0CF0F7
:1052700075FD9E4C9E4B286004FB009483FB042329
:1052800023448346E017C0EB63100CF051FA0BF097
:10529000E3FB0CF063FD03011A1AC31A04EB830449
:1052A00092004FF4616303FB0B2BDFF894923460A0
:1052B0005C440E2CC9F8000000F346819AF80030D7
:1052C000002B40F0A881002301210520C8F8003000
:1052D00008F02AF957E40D218648874D09F022FD90
:1052E00086480AF0B5F92B68002B00F09B81844BAF
:1052F000844A21681B6812688348844D01600B440E
:105300001A440E21824822602B6009F00BFD08F040
:10531000F3F8FCF72BFE0B217E4809F003FD28680B
:10532000FCF724FE0B217C4809F0FCFC2068FCF70C
:105330001DFE0D21794809F0F5FC794B1868FCF742
:1053400015FE6E480AF084F9AE21764805F07CF926
:105350000123C8F80030FCF71DFADAE4FCF7A8FADC
:10536000FCF700FB31683720FFF7ACFB6D4805F018
:10537000FDFAC9E46C4C08F0BFF823683060834242
:10538000BCBF00F596702060B7E49AF80070002F5B
:1053900067D108F0B1F804462320346007F01CFE02
:1053A0000B218146614809F0BDFC54480AF050F9D0
:1053B00033682A68B9F1C80FCCBF394647F00101FC
:1053C0001B1B00297FF4A1AD9A427FF79EADDFF849
:1053D00074B103E0B9F1C80F7FF797AD08F08CF80E
:1053E0003060232007F0F8FD0146814643480AF06B
:1053F00095F942480AF02CF94FF4FA6008F0D2F817
:1054000072B64AF202624BF28043ABF80020ABF86E
:10541000003062B633682A681B1B9342B4BF39461A
:1054200047F001010029D5D06FE5002B40F0258120
:10543000012772E501233C2202213A4805F074F964
:10544000FCF736FA0A223A4936480AF0C5F83548D8
:105450000AF0FEF8002F40F02081324805F086FA6D
:105460005BE501233C2202212E4805F05DF9FCF7A3
:105470001FFA0A222F492B480AF0AEF829480AF0F1
:10548000E7F80027274805F071FA82E701233C225C
:105490000221244805F048F980E404F23C402560EC
:1054A00002F0AAF90121204603F060F9002800F07B
:1054B0001881214C04F23C452846214602F004FAAA
:1054C00000283FF48DAD94F83C3413F0700F3FF496
:1054D00087AD1A4B1D609AE5FDF728FC9CE500BFDF
:1054E0004C17002034FAFF1FC5B3A291F0F1FFFF63
:1054F0008988888834A70100D8FAFF1FAC050020EE
:10550000B0FAFF1F3CFAFF1F74190020343400204A
:1055100044A7010054A7010060A701006CA7010087
:10552000242F002064170020801A002090A701007B
:105530009CA7010018A801000C110020F4360020DF
:10554000983500200C2005406A4C0021082007F007
:10555000EBFFFEF7B9F8237863B30621664809F03C
:10556000E1FB07F0C9FF014664480AF0D7F80821BB
:10557000634809F0D7FB396860480AF0CFF85F4804
:105580000AF066F807F0B8FFFCF7F0FC10215D4860
:1055900009F0C8FB296859480AF0C0F8D9F800108A
:1055A00056480AF0BBF8316854480AF0B7F8534837
:1055B0000AF04EF8642007F0F5FF72B6524B4AF23B
:1055C00002614BF2804219801A8062B64F483378EC
:1055D00099F80020297804F049F94D4803F092FD2C
:1055E00023781BB107F088FFFCF7C0FC01210820DD
:1055F00007F09AFF642007F0D5FF464B1868FEF7C6
:10560000E9F85BE64FF47A7007F0CCFFC6E5FEF7E9
:10561000F5FA22788AE501233C2202213E4805F072
:1056200083F850E60A210E20FEF724F84FF0FF33EE
:105630002B605CE6FCF73CF937480AF009F80C22CD
:105640003649354809F0C8FF33480AF001F83248B6
:1056500005F08CF92B6875E5FCF72AF92E4809F05E
:10566000F7FF03222E492C4809F0B6FF2A4809F01B
:10567000EFFF294805F07AF9E0E401233C220221FA
:10568000254805F051F8FCF713F90A22254922486C
:1056900009F0A2FF204809F0DBFF0A2222491E4838
:1056A00009F09AFF1C4809F0D3FF0127D5E6012332
:1056B0003C220221184805F037F8FCF7F9F80A22D5
:1056C0001A49154809F088FF134809F0C1FF0A225A
:1056D0001549114809F080FF0F4809F0B9FF01276B
:1056E000D0E60146204603F041F800287FF4E1AE01
:1056F00076E400BF44FBFF1F4CA70100AC0500206F
:10570000F8A7010004A801000C200540401A002061
:1057100068180020A8FAFF1F64170020D0A5010018
:105720006CA601009CA70100A8A7010018A8010011
:10573000F8B50021054609F0C1FC002800F0D08032
:1057400041F23C43EB5C072B00F2CA80DFE803F038
:10575000C9D0D7DEE5ECF304D5F81C74C5F83804DD
:1057600005F587643B1D224607F5827705F23C412B
:1057700033F8026B42F8046F9F42F9D1D5F82074D8
:1057800005F5C7623B1D07F5827733F8026B42F8D7
:10579000046F9F42F9D1D5F8247405F638023B1DF9
:1057A00007F5827733F8026B42F8046F9F42F9D114
:1057B000D5F8287405F638223B1D07F5827733F8B3
:1057C000026B42F8046F9F42F9D1D5F82C7405F6AC
:1057D00038423B1D07F5827733F8026B42F8046FBD
:1057E0009F42F9D1D5F8307405F638623B1D07F5B4
:1057F000827733F8026B42F8046F9F42F9D1D5F8F3
:10580000347405F581523B1D183207F5827733F861
:10581000026B42F8046F9F42F9D105F59152031DC6
:10582000183200F5827033F8026B42F8046F83423D
:10583000F9D1D5F8180480B105F5886200F5006744
:1058400032F9043C30F9026B03FB06F3DB138742A9
:1058500022F8043C02F10402F2D105F5A250043012
:10586000384E0AF0FFFF05F2164705F1160054F80E
:10587000041F21FB01F1B1FA81F336F81320B1FBCB
:10588000F2F31A445308B1FBF3F10B445B0820F820
:10589000023FB842EBD141F23D430122EA54D5F830
:1058A0001C0409F0C7FBD5F8200409F0C3FBD5F8A8
:1058B000240409F0BFFBD5F8280409F0BBFB41F232
:1058C0003C430422EA5405F586610EC9D5F82C0440
:1058D000C5F81C04C5F82014C5F82424C5F82834DC
:1058E000F8BD41F23C430122C5F81C04EA54F8BD5E
:1058F00041F23C430222C5F82004EA54F8BD41F2CB
:105900003C430322C5F82404EA54F8BD41F23C4369
:105910000422C5F82804EA54F8BD41F23C430522AC
:10592000C5F82C04EA54F8BD41F23C430622C5F800
:105930003004EA54F8BD41F23C430722C5F8340470
:10594000EA54F8BD88B0010000207047002070477D
:1059500070B5194C064682B00D462046317A00F0EB
:10596000A7FEC5F30721204600F0AEFBE9B22046B2
:1059700000F0AAFB0023627B21690093204601F01E
:1059800023F910B1002002B070BD2569327A617B25
:105990000190012300932846022301F03DF90128DC
:1059A000F0D9206901F052F90502206901F04EF9A1
:1059B000284302B070BD00BFE036002070B5154C22
:1059C000242908BFC28082B00D46017A20461646BF
:1059D00000F06EFEC5F30721204600F075FBE9B22A
:1059E000204600F071FBC6F30721204600F06CFB57
:1059F000F1B2204600F068FB00230093627B21692E
:105A00002046012301F0E0F8B0FA80F0400902B02E
:105A100070BD00BFE03600202DE9F0413E4B01266D
:105A200006715F7BD3F8108086B00446384600F0DC
:105A300045FC0025394B019039462A4640460393E0
:105A400004962B460295009500F04CFD052007F0CA
:105A5000A9FD204644F260023021FFF7AFFF204647
:105A60006C222621FFF7AAFF20464FF4F972282165
:105A7000FFF7A4FF204640F622722C21FFF79EFF7D
:105A8000204644F246423C21FFF798FF204640F270
:105A900037122421FFF792FF204644F2FF02302103
:105AA000FFF78CFF732202212046FFF787FF4FF498
:105AB000C87007F077FD204641F61D522E21FFF7F2
:105AC0007DFF042211462046FFF778FF20464FF461
:105AD00098720621FFF772FF204610220A21FFF775
