:1000000000800020BD01000081D1000039D1000036
:1000100039D1000039D1000039D1000039D10000B8
:1000200039D1000039D1000039D1000081D1000060
:1000300081D1000039D100007DF3000081F3000080
:1000400081D1000081D1000081D1000081D1000068
:1000500081D1000081D1000081D1000081D1000058
:1000600081D1000081D1000081D1000081D1000048
:1000700081D1000081D1000081D1000081D1000038
:1000800081D1000081D1000081D1000081D1000028
:1000900081D1000081D1000081D1000081D1000018
:1000A000657100007171000081D1000081D10000F4
:1000B00081D1000081D1000081D1000081D10000F8
:1000C00081D1000081D1000081D1000081D10000E8
:1000D00081D1000081D1000081D1000081D10000D8
:1000E00081D1000081D1000081D1000081D10000C8
:1000F00081D10000D5DC000081D1000081D1000059
:1001000081D1000081D1000081D1000081D10000A7
:1001100081D1000081D1000081D1000081D1000097
:1001200081D1000081D1000081D1000081D1000087
:1001300081D1000081D1000045AD000011AA00006E
:1001400081D1000081D1000081D1000081D1000067
:10015000D9F40000EDF4000001F5000015F50000F1
:1001600081D1000099DF000081D1000081D1000021
:1001700081D1000081D1000081D1000081D1000037
:1001800081D1000081D1000081D1000081D1000027
:1001900081D1000081D1000081D1000081D1000017
:1001A00081D1000081D1000081D1000081D1000007
:1001B00081D1000081D1000039F10000564B4CF292
:1001C000205210B51A804DF628121A8000BF00BFC9
:1001D00000F09EFB514B4FF010621A60504A9A603B
:1001E000504ADA60504A136813F4807304D14F49BF
:1001F0000B604FF4A85313604D4B1A78110703D5C9
:100200001A7842F008021A704A4B4B492A221A7097
:100210004A4A4B4B8B4204D252F8040F43F8040B6A
:10022000F8E7484B484900228B4202D243F8042B9E
:10023000FAE74649464A002352F8230041F82300D2
:1002400001336F2BF8D1434B434A802103F8011B44
:100250009342FBD1414B3D4A1A60414B8A221A70AE
:10026000A3F5805324225A70A0221A709A7992071B
:10027000FCD59A79D406FCD43A4A937903F00C035E
:10028000082B384BF9D105221A7143225A719A79F9
:100290009006FCD5334A9179324B4906FBD5324A58
:1002A0004FF0817111600521516020221A709A79F6
:1002B00002F00C020C2AFAD12C4B2D4A1A602D4B5D
:1002C0002D4A1A6000225A60072243F8042C2B4A58
:1002D000C3F80C2D62B60DF05DF9144B1B68DA07FC
:1002E00005D527480DF0B6F8264B274A1A60274B4C
:1002F0001B785B0609D5234C234B22689A4204D114
:100300001F480DF0A7F80023236012F069FA0CF0E3
:100310003BFF0FF0ADFBFEE70E20054030800440B0
:10032000823F04000100002B10D0034014D0034092
:1003300002D0074000E007400810002048BB020040
:1003400020F9FF1F08100020983D002000F4FF1F37
:100350000000000000E400E05FE400E008ED00E0E1
:1003600000500640004006404480044004800440A1
:10037000C010050014E000E03F190100000020203B
:1003800068213B621CE00340A5C3945A00F007407B
:10039000FFFFFFFFFFFFFFFFFFFFFFFFFFFFFFFF6D
:1003A000FFFFFFFFFFFFFFFFFFFFFFFFFFFFFFFF5D
:1003B000FFFFFFFFFFFFFFFFFFFFFFFFFFFFFFFF4D
:1003C000FFFFFFFFFFFFFFFFFFFFFFFFFFFFFFFF3D
:1003D000FFFFFFFFFFFFFFFFFFFFFFFFFFFFFFFF2D
:1003E000FFFFFFFFFFFFFFFFFFFFFFFFFFFFFFFF1D
:1003F000FFFFFFFFFFFFFFFFFFFFFFFFFFFFFFFF0D
:10040000FFFFFFFFFFFFFFFFFFFFFFFFDEF9FFFF23
:1004100010B5054C237833B9044B13B10448AFF33E
:1004200000800123237010BD081000200000000090
:1004300044BB0200084B10B51BB108490848AFF394
:1004400000800848036803B910BD074B002BFBD0A0
:10045000BDE81040184700BF000000000C1000204D
:1004600044BB02000810002000000000002070477C
:10047000704700BF027C02F0080202F0FF0332B1B5
:10048000C36A406A181A48BF6FF0004070471846A8
:10049000704700BFF8B55548554D564C297803783C
:1004A0002278DFF868E1544F544E120442EA0323E5
:1004B000FF222A700270802022708EF800003870AF
:1004C000B2794F480B4312F00C0FC36002D1B379DD
:1004D000DC063DD4494A9379C3F38103032B40D012
:1004E000464B9A79C2F38102022A42D0434A937959
:1004F000C3F38103022B53D0404A9379C3F38103A2
:10050000022B61D03D4A9379C3F38103012B51D073
:100510003A4A9379C3F38103012B5CD0374B9A7924
:1005200012F00C0F03D19A79D20600D49B79354D85
:10053000354B2A7853F82240D4B1236820469B6873
:1005400098472B7804EB83046468002CF5D1F8BD40
:10055000B3799806EBD5294A9379C3F38103032B2A
:10056000BED19379D906BBD493799B06DFD4B7E784
:10057000F8BD9A79D706B9D49A799606B6D559783E
:1005800001F0020101F0FF020029AFD120211A7011
:100590001A461970937903F00C030C2BFAD1C6E7B5
:1005A0009379DD06A8D493799C06A5D4537898074F
:1005B000BDD5A1E79379DF06AAD593799E06A7D486
:1005C00053789D07B3D4A3E79379D9069AD4537887
:1005D0009B07ACD496E79379DC069FD59379980670
:1005E0009CD453789907A2D598E700BF06C007406E
:1005F00005C0074007C0074009C00740004006404B
:10060000703D0020403700200037002008C0074020
:1006100090F92410104B03604B1C06D0F0B40F4E21
:1006200056F82130984201D0F0BC70470C4F57F873
:10063000213033B18D0000245A1953685460002BC7
:10064000FAD1084C23780022013B237047F821207F
:1006500046F82120E8E700BF6C9E0100203700200B
:10066000003700204137002038B590F924506B1C2A
:100670001BD00E4B0E4953F825400E4BEDB24FF0F8
:10068000FF320D701A6084B1AD0002E02C44646842
:100690005CB194F82530002BF8D0236820462C4418
:1006A0001B6898476468002CF3D138BD00370020E0
:1006B00040370020B8F3FF1F704700BF90F92410A7
:1006C000104B03604B1C06D0F0B40F4E56F821308F
:1006D000984201D0F0BC70470C4F57F8213033B12D
:1006E0008D0000245A1953685460002BFAD1084C2D
:1006F00023780022013B237047F8212046F821206F
:10070000E8E700BF6C9E0100203700200037002082
:100710004137002090F92410104B03604B1C06D089
:10072000F0B40F4E56F82130984201D0F0BC70471B
:100730000C4F57F8213033B18D0000245A195368FB
:100740005460002BFAD1084C23780022013B23701F
:1007500047F8212046F82120E8E700BF6C9E010001
:1007600020370020003700204137002010B500213D
:1007700004460EF04BFCB0B1B4F8B4319BB2C3B137
:10078000B4F8B031B4F8B2219BB20133632BC8BFC7
:10079000002392B2934207D09A1D04EB82029BB2CF
:1007A0005060A4F8B03110BDD4F8B8310133C4F8AA
:1007B000B831BDE810400EF0E5BB00BF103007F0C7
:1007C00011BA00BF00B583B002AB012203F8011DCE
:1007D0001030194607F006FA03B05DF804FB00BFBD
:1007E000103007F021B900BF00B583B001220DF130
:1007F0000701103007F016F801280CBF9DF807001C
:100800004FF0FF3003B05DF804FB00BF103007F07D
:10081000E3B900BF0CF018BE2DE9F0410E4680464A
:100820000CF012FE174D286009F022F907462868DF
:1008300009F010F90446286809F0FEF86401C0B216
:1008400004F4FF54BFB20443A7F2BC7744EA472440
:10085000A8F80040286809F0C5F80746286809F09C
:10086000CFF80446286809F0D9F8FF02640107F4BC
:10087000FF2704F4FF54C0F346003C430443348094
:10088000BDE8F0818010002010B504460EF002FE95
:10089000204610BD10B5034B036004460AF0BAF9B8
:1008A000204610BDB8B7010010B504460EF0EEFBAF
:1008B000204610BDB0F8B231B0F8B0119BB289B289
:1008C0008B4202460FD00133632B86BF00210B46BB
:1008D00099B2063300EB83035868C2F8AC01A2F862
:1008E000B211043070470020704700BF38B504468D
:1008F00008460D4612F024FF2368024629465B682D
:1009000020469847054620460EF04AFE284438BD4A
:10091000464A474B102010801B781B0734D5F0B592
:10092000444E454D454C31782B782278DFF82CE148
:10093000434F824042EA03230B43FF22802132705F
:100940002A7022708EF800103970D9073D4A14D5EC
:100950001A2393603C4F3D4E3D4D3E4C3E4910792D
:1009600000233B7053709370D370D3603370137156
:100970002B70237013700870F0BD1F0705D4DE06BE
:1009800006D504239360E5E7704721239360E1E7F0
:100990009D0604D45C0604D516239360DAE79060C4
:1009A000D8E7180602D509239360D3E7D90502D505
:1009B0000A239360CEE79F0502D50D239360C9E714
:1009C0005E0502D50B239360C4E71D0502D51E23E7
:1009D0009360BFE7DC0402D502239360BAE7980472
:1009E00002D507239360B5E7590402D50623936027
:1009F000B0E71F0402D515239360ABE7DE0302D5F1
:100A000024239360A6E79D0302D522239360A1E7E8
:100A1000DC0202D5252393609CE71803F5D4590323
:100A2000F3D49B0244BF2323936093E70020054047
:100A300002D0074005C0074006C0074007C0074076
:100A400009C00740703D002000C0074001C00740BA
:100A500002C0074003C0074004C0074008C0074069
:100A6000002976D02DE9F04F0C469100631883B031
:100A70005D68002D57D06B185E68002E50D073183B
:100A80005F68002F49D07B18D3F80480B8F1000FBD
:100A90003CD008EB0103D3F80490B9F1000F32D039
:100AA00009EB0103D3F804A0BAF1000F27D00AEB39
:100AB0000103D3F804B0BBF1000F18D00BEB010316
:100AC0005B6863B1194401934968FFF7C9FF019B53
:100AD00093F825201AB11A681846536898479BF86E
:100AE000253023B1DBF8003058465B6898479AF808
:100AF000253023B1DAF8003050465B68984799F802
:100B00002530002B35D198F8253063BB97F8253078
:100B10001BB13B6838465B68984796F82530CBB9DF
:100B200095F8253063B994F8253013B903B0BDE8C2
:100B3000F08F23685B68204603B0BDE8F04F18478C
:100B40002B6828465B68984794F82530002BEDD039
:100B5000EFE77047336830465B68984795F8253073
:100B6000002BE0D0ECE7D8F8003040465B689847AF
:100B7000CCE7D9F8003048465B689847C3E700BF28
:100B800090F92420531C26D01B4B2DE9F04153F83B
:100B90002240D2B2ECB19300E1184D68B5B1E9182A
:100BA0004E6866B1F1184F6837B13B445968FFF79A
:100BB00057FF97F82530A3B996F8253063B995F813
:100BC00025301BB12B6828465B68984794F8253080
:100BD00063B9BDE8F0817047336830465B68984779
:100BE000EDE73B6838465B689847E5E723682046B1
:100BF0005B68BDE8F04118470037002038B505466E
:100C0000D0F8AC0120B10EF0BDF90023C5F8AC312D
:100C1000B5F8B241B5F8B031A4B29BB29C420ED047
:100C20000134642C28BF0024A31D05EB83035868FE
:100C30000EF0A8F9B5F8B0319BB29C42F0D19BB24E
:100C4000A5F8B23138BD00BF2DE9F04F524CB4F8D1
:100C5000B031B4F8B22199B293B2994238BF64313D
:100C6000CB1A012BADF5037D70DD4C4AD4F8AC51A5
:100C70001368494E01331360002D75D002A84FF45C
:100C80008072002101900BF07DFF28460EF07AF96A
:100C90000023C4F8AC31404D2846FFF70BFE4FF45B
:100CA0008072014642A80BF06DFFD4F8AC0120B170
:100CB0000EF068F90023C5F8AC31394BB3F9008068
:100CC000384BB3F90050384BD3E900674FF0000AB6
:100CD000D3460DF109040DF20929227814F8013CDC
:100CE00043EA02231BB24345C8BF98461846C8BF13
:100CF0004FF0010BAB42BCBF1D464FF0010A11F093
:100D000027F94FF0605111F077F9014611F074F9AD
:100D100010F0C8FC02460B463046394610F064FB22
:100D200002344C4506460F46D7D1BBF1000F2BD1FC
:100D3000BAF1000F2CD11D4A1D4913681A480978D1
:100D400003F58073C0E90067136019B90DF5037DE1
:100D5000BDE8F08F019917484FF4007206F042FF8A
:100D60000DF5037DBDE8F08F3046FFF7A3FD02AB24
:100D7000D6F8AC51019301464FF4807218460BF03F
:100D800001FF002D87D080E7054BA3F80080CFE757
:100D9000044B1D80CFE700BF8C15002044100020BD
:100DA00094350020F02E0020E03500205C19002052
:100DB000C4FAFF1FB835002038B50D21124C134876
:100DC0000DF058FF12480EF0EBFB2588114810215A
:100DD0000DF050FF29460E480EF048FC0C480EF06E
:100DE000DFFB0D4B0D490E4A09881B78218000213D
:100DF000A2F8B41113B10B4806F0A6FC6420BDE8BC
:100E000038400CF077BB00BFE83C0020A49E0100F6
:100E1000A8050020B49E0100C4FAFF1F103D002069
:100E20008C150020B8350020714B93E803002DE9A4
:100E3000F041704C704D714F714E0123238184E855
:100E4000030008226F4904F10C0012F037FD08225C
:100E50006D4904F1140012F031FD08226B4904F1D0
:100E60001C0012F02BFD0822694904F1240012F045
:100E700025FD2946082204F16C0012F01FFD2946C9
:100E8000082204F1740012F019FD2946082204F129
:100E90007C0012F013FD2946082204F1840012F0B0
:100EA0000DFD5C4A5C4BD2F800801968404610F09A
:100EB0009BFF5A4BC4F8CC0005464146186810F019
:100EC00093FF574BC4F8D00093E8030004F5FC737C
:100ED00083E803000923A4F8003208225149C4F82A
:100EE000D45004F50170C4F8D85012F0E7FC082281
:100EF0004D4904F5037012F0E1FC08224B4904F55A
:100F0000057012F0DBFC0822494904F5077012F065
:100F1000D5FC0822474904F5097012F0CFFC0822DD
:100F2000454904F50B7012F0C9FC0822434904F549
:100F30000D7012F0C3FC0822414904F50F7012F045
:100F4000BDFC08223F4904F5117012F0B7FC394688
:100F5000082204F5197012F0B1FC3946082204F594
:100F60001B7012F0ABFC3946082204F51D7012F01C
:100F7000A5FC354B93E8030004F51F7282E80300DB
:100F800004F5237304F5217282E8030083E803006B
:100F90000822314604F5257012F090FC31460822F3
:100FA00004F5277012F08AFC0822314604F52970F6
:100FB00012F084FC254B186810F0CAFF4FF0605106
:100FC00011F01AF8224A234BC4F8C402C4F8C8022C
:100FD000C4F8CC02C4F8D022C4F8D422C4F8D82271
:100FE000C4F8DC32C4F8E032C4F8E432BDE8F08181
:100FF000C89E0100482F0020F49E0100B09E010011
:10100000409F0100D49E0100DC9E0100E49E01008F
:10101000EC9E01004010002060FBFF1F48FBFF1FFB
:10102000449F0100F89E0100009F0100089F0100FD
:10103000109F0100189F0100209F0100289F0100C0
:10104000309F0100389F01004C9F010004FAFF1FF0
:101050000000FA3C0000163EF0B58FB000230EAC45
:101060008DF814308DF815308DF808308DF810306B
:101070004FF47A764623204D204A2149039605A84D
:1010800044F8345D06F06EFB9DF8143043BB1D4BF5
:101090001B780BB90FB0F0BD002646234FF47A77CA
:1010A000194A1749019505A88DF814608DF8156047
:1010B0008DF808608DF81060039706F053FB9DF8DB
:1010C0001430002BE6D07E22104905A806F08AFDD8
:1010D00020460EF065FA05A806F036FB0FB0F0BD0D
:1010E00043220B4905A806F07DFD20460EF058FA74
:1010F00005A806F029FBCAE7489E0100549F01009D
:1011000044150020CCFAFF1FA09F0100A89F0100FA
:101110005C9F0100264B1B680F2B0CD8DFE803F007
:101120000C1014181C2024282C3034383C4044085F
:10113000204B214A1A6070471E4B204A1A607047A4
:101140001C4B1F4A1A6070471A4B1E4A1A607047A0
:10115000184B1D4A1A607047164B1C4A1A6070479C
:10116000144B1B4A1A607047124B1A4A1A60704798
:10117000104B194A1A6070470E4B184A1A60704794
:101180000C4B174A1A6070470A4B164A1A60704790
:10119000084B154A1A607047064B144A1A6070478C
:1011A000044B134A1A607047024B124A1A60704788
:1011B00038FAFF1F40100020BD549341103377C010
:1011C000993918C0BE0D68BFCE71153F8D09034017
:1011D000CCC9624009A7A3407DDBD140C4160141C0
:1011E00054FC1741D0E83041195546419FAB5F414F
:1011F000A04176415E2E864108B5054B05481A7818
:10120000114604F055FCBDE80840FFF783BF00BF5E
:1012100038FAFF1F7834002070B472B61E491F4C94
:101220001F4A802341250E20257010700B700B780B
:1012300013F0800F1B4B05D11B4802781A700A78F7
:101240001406FAD519491A4A097859701178997013
:10125000013A1278DA7062B672B6104D0E49104833
:10126000802241260F242E7004700A700A78150619
:1012700005D40D4802781A710A781206FAD50B497E
:101280000B4A0978597111789971013A1278DA711B
:1012900062B670BC704700BF000002400700024009
:1012A000060002409C3500200B0002400A0002406C
:1012B0000900024070B500212820124D0CF0F0F812
:1012C00000232B60202428200BF02EFE10F040FE7F
:1012D00029680C4E10F088FD013C2860F3D10A49C2
:1012E00010F08AFE4FF06A5110F086FE4FF07451F4
:1012F00010F082FE0121306028200CF0D1F8306817
:1013000070BD00BFF8350020EC51E8402DE9F04FEA
:1013100095B00CF099F88F4CDFF89C92206008F0A3
:10132000A7FB05462068DFF8948208F093FB064689
:10133000206808F081FB8346206808F053FB0746CD
:10134000206808F05DFB8246206808F067FB824950
:10135000039033462A46CDF800B0CDF808A0019797
:101360007E4812F0B7F87E4B7E4A1A60FFF7A2FF64
:101370000021C9F8000046238DF82C108DF82D109F
:101380008DF820108DF828100BA84FF47A74764A47
:1013900076490994CDF81C8006F0E4F99DF82C30CC
:1013A000002B40F00F81724F3B78002B40F0D18131
:1013B0004FF47A750024C223684A6C4909950BA83A
:1013C0000BAD8DF82C408DF82D408DF820408DF818
:1013D0002840CDF81C8006F0C5F90FCD654E97F872
:1013E00000E006F110040FC40FCD0FC428689DF86B
:1013F0002010099A9DF8283020603171B260337353
:10140000BEF1000F2CD0554812F09AF9014653480E
:101410000DF030FC58480EF0C3F80A2157480DF083
:1014200029FC574B186810F03DF9022402460B4680
:10143000009451480EF024F94F480EF0B1F8D9F855
:10144000000010F02FF9009402460B464A480EF0B7
:1014500017F901214B480DF00DFC47480EF0A0F89C
:10146000347C444E002C00F037814749474C484AB1
:10147000484B494EDFF84881D6F800A003C92060E8
:1014800092E80300A06093E803004FF010090125E3
:10149000E060C4F810905046A582E58210F0AEFFDF
:1014A0005146A061504610F09FFC10F0A7FF3B4A48
:1014B000E061D8F80030A4F8229092E803005B02C3
:1014C000606203F12400606021464FF002092C2283
:1014D0003348A362A4F8209006F084FB3B78002BED
:1014E00035D009212F480DF0C5FBD8F8001022484F
:1014F0000EF0BCF820480EF053F80E212A480DF0EB
:10150000B9FB2A4B1C4819680A2200230EF06EF81A
:1015100019480EF045F8306810F0C4F8CDF8009086
:1015200002460B4614480EF0ABF8032120480DF09C
:10153000A1FB11480EF034F807211E480DF09AFB6C
:1015400029460D480EF092F80B480EF029F815B018
:10155000BDE8F08F8010002040A001002410002082
:10156000F836002019080000549F0100441500209F
:1015700044FBFF1FA8350020A805002070A0010033
:10158000F43500207CA001008CA001004810002050
:1015900094A001009CA0010040340020A4A0010000
:1015A000B8350020ACA00100B8A00100A43500208F
:1015B000C8A00100CCA00100F8350020489E010021
:1015C0008C1800206548664C12F0BAF86349024650
:1015D0000BA806F007FB14A92C2301F83B3D0122C0
:1015E0000DEB030006F0FEFA04F1080514F8011FE4
:1015F00000230A2207A80DF0F9FFA542F6D114A98D
:101600002C2401F8354D01220DEB040006F0EAFA16
:101610005449554F07A80EF029F814A9012201F8E2
:10162000364D0DEB040006F0DDFA504B186810F053
:1016300039F802250B460246009507A80EF020F85F
:1016400014A9012201F8374D0DEB040006F0CAFA87
:10165000D9F8000010F026F800950B46024607A8BE
:101660000EF00EF814A9012201F8384D0DEB04001C
:1016700006F0B8FA3E4B186810F014F804250B4633
:101680000246009507A80DF0FBFF14A9012201F8FE
:10169000394D0DEB040006F0A5FA364B186810F032
:1016A00001F800950B46024607A80DF0E9FF14A9C2
:1016B000012201F83A4D0DEB040006F093FA2E4B8F
:1016C00007A819680DF0D2FF07A80DF069FF0DEB10
:1016D000040006F039F86BE6284B29491A681F48C0
:1016E00001321A604FF47A7511F0F4FEC2231B4ADE
:1016F00024498DF82C408DF82D408DF820408DF830
:1017000028400BA80BAC0995CDF81C8006F02AF8F0
:101710000FCC06F110050FC50FCC0FC59DF8283072
:101720009DF82010099A3373B260246831710B4818
:101730002C6012F005F8014608480DF09BFA12489B
:101740000DF02EFF337C002B7FF48FAE0F4A137009
:101750008BE60E210E480DF08DFA29E624100020AC
:101760009B3500209789340144FBFF1F4010002067
:10177000681900205C1700206436002084340020A3
:1017800080A0010044150020A8050020C4FAFF1F16
:1017900060A0010038B50E4C0E480F4D0E210DF023
:1017A00069FA20460DF0FCFEFFF7B0FD0B4B284612
:1017B00000221A60FFF722FA01230B210848A5F83E
:1017C000B4310DF057FA2046BDE838400DF0E8BEC0
:1017D000A8050020D4A001008C1500204410002092
:1017E000E4A001002DE9F04F2A4A2B4B2B49DFF8EA
:1017F000BC8085B00293136803910133136000230A
:101800000193029B53F804BF0293039B53F8049F78
:101810000393CB4535DA019C214A224952F8240032
:1018200051F8346010F094FB1F4B0BF10C0582460D
:1018300003EB4505E7001DE0288810F085FB4FF01D
:10184000625110F0D9FB04465146204610F088FC46
:101850000146304610F0C8FA2146064658F80700FF
:1018600010F068FD0BF1010B023508B147F8084094
:10187000CB4504D0BBF5007FDED30024E4E7094B61
:10188000DE51019B0133192B0193BAD105B0BDE89C
:10189000F08F00BF88340020D8FAFF1F40FAFF1FE6
:1018A0009010002090180020801A00209C17002023
:1018B00030B51C4C83B0204608F066FE204601215E
:1018C00008F0B8FB2046012108F0AEFB20460022BC
:1018D000412108F0A5FB0222204613490DF024FE09
:1018E000124B204619680DF0C1FE204600225A21F5
:1018F00008F096FB0E4B18680FF0D4FE01250B463E
:101900000246009520460DF0BBFE2A4620460949B6
:101910000DF00AFE00222046114603B0BDE830401B
:1019200008F07EBB6017002000A1010038340020C1
:10193000F83500207CA0010008B50B2106480DF009
:1019400099F906480DF02CFEFFF7B2FF0448BDE8F8
:10195000084008F0B3BF00BF04A10100A8050020A3
:101960006017002010B501212C4808F05DFB012113
:101970002A4808F05FFB00221146284808F050FB77
:10198000274B1C684CBB0322264924480DF0CCFD94
:1019900022480DF005FE244A244B11681B681F489D
:1019A000C91A0DF063FE032221491C480DF0BCFD4D
:1019B000204A214B1268194853F822100DF056FEA8
:1019C00002221E4915480DF0AFFD22461C4913485E
:1019D0000DF0AAFD11480DF0E3FD022219490F4850
:1019E0000DF0A2FD184B0D4819680DF03FFE0122C5
:1019F00016490A480DF098FD0322154907480DF0D5
:101A000093FD144B054819680DF030FE01220F4973
:101A10000248BDE810400DF087BD00BF60170020F0
:101A20009034002010A101007C1A002080100020BA
:101A300014A10100A8FAFF1F10FAFF1F18A101004E
:101A400050BA01001CA10100B0FAFF1F9CA50100C3
:101A500020A101003CFAFF1F10B5012204460849ED
:101A600008480DF061FD092C04DC012206490548F7
:101A70000DF05AFD21460348BDE810400DF0F6BDBB
:101A8000E4A3010060170020D4B6020030B583B093
:101A900002AD079C05F8082D8DF80200069A8DF816
:101AA00004304E3428468DF801108DF805208DF84D
:101AB000064007F0EDFF0BF0CDFC03B030BD00BFDA
:101AC00030B58BB0044611F03BFE00B201281ADDA0
:101AD000B4F9003044F64412934200F0AF8015DDB3
:101AE00044F64952934200F09D802EDC44F6521297
:101AF000934200F08B8044F6484293427BD044F6F8
:101B00004D1293426ED001200BB030BD44F24E42D4
:101B1000934200F0D18059DD44F24172934200F0CB
:101B2000C28044F25372934200F0B48044F25242B5
:101B30009342E8D109AA8049E01C11F0F1FC7F49E9
:101B40007F4A099B0B601360DDE745F24822934210
:101B500000F0958045F64822934273D044F65452E3
:101B60009342D0D109AD08A907AA04AB039502910D
:101B70000192009306AA05ABE01C724911F0D0FC5B
:101B8000069C059D049B07A804F5FA6407C8009508
:101B90000194FFF77BFF11216B480DF06BF807F004
:101BA000F5FF014669480DF061FD68480DF0F8FC4D
:101BB0001B2167480DF05EF80BF046FC01466348B8
:101BC0000DF054FD61480DF0EBFC9CE744F24142FE
:101BD00093427AD044F24C42934294D15D4B00221E
:101BE0001A7090E709AAE01C534911F099FC5A4B6E
:101BF000099A1A6087E7E01C09AA4F49574C11F06F
:101C00008FFC099810F0A4F920607CE7E01C09AA79
:101C1000494911F085FC099B1D2B5FDC504B1E22AE
:101C20001A6070E709AAE01C434911F079FC099B8E
:101C30004C4A003318BF0123137064E74A4B01225A
:101C40001A7060E7E01C09AA3B4911F069FC099B86
:101C5000B3F5FA4F45D04BDD4BF6803293425CD062
:101C6000424A934252D04AF6444293427FF44BAFE9
:101C70003F4A404B4049116003221A6043E7E01C91
:101C800009AA2D493D4C11F04BFC099810F060F960
:101C9000206038E709AAE01C274911F041FC384BC5
:101CA000099A1A602FE709AAE01C234911F038FCB1
:101CB000344B099A1A6026E709AAE01C1E4911F064
:101CC0002FFC314B099A1A601DE709AAE01C1A493A
:101CD00011F026FC1A4B099A1A6014E7204A136087
:101CE00011E7234A234B2949116002221A600AE7AF
:101CF000B3F5FA5F18D0B3F57A5F7FF404AF1C4AEE
:101D00001C4B2349116001221A60FCE6184A194B4A
:101D10002049116005221A60F5E6154A154B1E4947
:101D2000116004221A60EEE6114A124B1B49116041
:101D300000221A60E7E600BF24A10100B0FAFF1FED
:101D40003C34002028A101003CA10100A80500208E
:101D500050A1010030FAFF1F9817002060FBFF1F01
:101D60003CFAFF1FCCFAFF1F44FBFF1F0077010066
:101D700040340020A8FAFF1F00442C4748FBFF1FF7
:101D800038FAFF1F04FAFF1FD8FAFF1F0000FA46B7
:101D900000007A460080BB4700803B470000FA45C0
:101DA0002DE9F043A3B000274FF47A74DFF8B8911F
:101DB000674A68490A94012319A819AE17948DF847
:101DC00030708DF831708DF824708DF82C708DF88E
:101DD00064708DF865708DF858708DF86070CDF86E
:101DE0002090CDF8549005F0BDFC0FCE0CAC0FC484
:101DF0000FCE0FC49DF83030306817999DF85860A9
:101E00009DF8602020608DF824600A918DF82C20C8
:101E1000002B3FD0B846FF268DF800800024012219
:101E200015A90CA805F0FEFC22AB012803EB040267
:101E300004F1010322D002F8886C1CB2FF221D2C91
:101E400001DC0A2AEBD1013CA4B222AB234403F803
:101E5000888C9DF800302F2B04D0012C02D96846C5
:101E6000FFF72EFE9DF830301B070ED40CA805F0AE
:101E70006BFCD7B9012023B0BDE8F0839DF8542056
:101E80000D2A55D11D2CCADDDDE7139A119B9A420C
:101E9000C2D1EBE7142130480CF0ECFE2F480DF0D6
:101EA0007FFB012023B0BDE8F0830B212C480CF010
:101EB000E1FE294600230A2228480DF097FB002462
:101EC00026480DF06DFB4FF47A768DF864408DF85E
:101ED00065408DF858408DF8604063231C4A1D49C9
:101EE000179619A819ACCDF8549005F03BFC0FCC0F
:101EF0000CAE0FC60FCC0FC621689DF86030179A44
:101F00009DF8584031600CA829468DF82C300A9273
:101F10008DF8244005F0BCFD022212490CA805F002
:101F200061FE0CA805F010FC012023B0BDE8F08391
:101F300022A921441CB2012C01F8882C7FF47FAF28
:101F4000542A7FF47CAF119D0746013D79E700BF1D
:101F50006CA101004415002088A10100A805002003
:101F600078A1010084A10100489E010038B5054612
:101F700007F07EFD1E4C014620460DF077FB2D201C
:101F80000CF0FCFE284607F065FD014620460DF0EA
:101F90006DFB2D200CF0F2FE284607F04DFD0146AA
:101FA00020460DF063FB012112480CF063FE284629
:101FB00007F018FD014620460DF058FB3A200CF0C2
:101FC000DDFE284607F01CFD014620460DF04EFBC5
:101FD0003A200CF0D3FE284607F020FD01462046AB
:101FE0000DF044FB2046BDE838400DF0D9BA00BFE3
:101FF000A805002084A3010038B505460BF05AF867
:10200000074C2070681C0BF055F86070A81C0BF092
:1020100051F8A070E81C0BF04DF8E070206838BD56
:10202000841000202DE9F0410020FFF7E5FF1B4C54
:102030001B4F20600420FFF7DFFF386005460820B3
:102040000BF038F8DFF8648006460920C8F8006015
:102050000BF030F82368134A002B10601BDDB3F53A
:10206000616FC4BF4FF4616323601D2D0DDC40F22E
:102070003A233B60052E84BF0423C8F800300D28A6
:1020800084BF04231360BDE8F081074B9D42C4BFA9
:102090003C233B60EEE71E232360E6E7B0FAFF1F18
:1020A0003CFAFF1F38FAFF1F80510100A8FAFF1FFA
:1020B00038B50A4C0B460546C9B223600BF014F83C
:1020C0006178681C0BF010F8A178A81C0BF00CF8D4
:1020D000E178E81CBDE838400BF006B88410002019
:1020E00008B50B4B00201968FFF7E2FF094B0420ED
:1020F0001968FFF7DDFF084B082019780AF0F4FF94
:10210000064B09201978BDE808400AF0EDBF00BF72
:10211000B0FAFF1F3CFAFF1FA8FAFF1F38FAFF1F93
:10212000F8B504460FF0BEFA00220F4B0EF0C4FCC7
:1021300006460F4620460D4910F012F810F038F907
:102140000FF006FF0FF0AEFA002204460D46084BD2
:10215000304639460FF024FC02460B4620462946FD
:102160000FF042F9F8BD00BF000059400000C8421E
:1021700000004E402DE9F0472428B8B002AF0FD040
:10218000A04BA14C1A68511CFF29A054C8BF0022C3
:1021900007F1D807D4BF19601A60BD46BDE8F087C3
:1021A000984D994C2B680A2B9A465EDD607894F81E
:1021B00002C094F803E0267994F80580A17994F898
:1021C0000790227A502808BFBCF14D0F0CBF0123A5
:1021D0000023BEF1540F14BF002303F001034B2E64
:1021E00014BF002303F00103B8F14C0F14BF002308
:1021F00003F001034F2914BF002103F00101B9F1DD
:10220000580F14BF002101F0010194F80990A37A3E
:102210002C2A14BF002201F00102B9F1320F14BFC1
:10222000002202F00102E17A2A2B14BF002302F0FF
:102230000103342914BF002303F001032BB1237BD6
:10224000372B02D1714B01221A70472808BFBEF10B
:10225000520F0CBF012000204D2E14BF002600F0AD
:10226000010616B1B8F1430F07D024220123D83755
:1022700022702B60BD46BDE8F087654B1A686E463C
:102280002AB9BCF1500F00F0B48001221A600AF1A3
:10229000FF334FF0000CE3185E499A4660466246F1
:1022A000E64605E003F8C48C0CF1010C514515D04D
:1022B00011F8018F131A07F1D8094B44B8F12C0F0C
:1022C0006344EFD1121A07F1D8031A446244013073
:1022D00002F8C4EC4FF0000C0201E7E7131A07F113
:1022E000D8021344634400214B4A03F8C41C07F18D
:1022F00023004A4B00924A494A4A11F011F93A46E2
:10230000494907F1320011F00BF907F10C02474976
:1023100007F1410011F004F93A1D434907F150005B
:1023200011F0FEF807F11002404907F15F0011F0CB
:10233000F7F807F108023C4907F16E0011F0F0F8D8
:102340003B4B00933B4A3C4B354907F19B0011F056
:10235000E7F83B78412B01D0B54686E737483A7914
:1023600037493B7A0270F8680B70532A396908BF05
:1023700000F10040572B8A463FD0FFF7D1FE0FF007
:10238000DDFCDFF8D890DFF8D88003465046C9F866
:102390000030FFF7C5FE0FF0D1FC2A4B2A4A1B780C
:1023A000C8F8000001211160002BD5D00321274877
:1023B0000CF060FCD9F800000FF074F90B46022114
:1023C0000246009122480DF05BF9042121480CF0EF
:1023D00051FCD8F800000FF065F902230093024683
:1023E0000B461B480DF04CF919480DF0D9F8B546CD
:1023F0003BE7194A0221116047E701F100439A4681
:10240000BBE700BF7810002094340020F035002096
:102410006419002093340020EC350020D4FAFF1F0B
:1024200028A2010040FAFF1F34A2010038A20100D7
:10243000C8FAFF1FC0FAFF1F08FAFF1F7410002020
:102440006036002044FBFF1F643600203CA20100E0
:10245000A805002040A201005CFBFF1F68190020B6
:102460005C1700202DE9F0418846044616213148CA
:102470000CF000FCB8F1000F4BDD0025013C2F46AD
:102480002E4611E0002310222B480DF0AFF8042156
:102490002A480CF0EFFB012D05F1010502DD237840
:1024A0001E443744A8450CD014F8010F08F0EAFB8D
:1024B00021780F29E6D8012121480CF0DBFB217897
:1024C000E0E7F6B2FFB2304608F0DCFB384608F031
:1024D000D9FB08F02FFC0F2E3C4625DD31460023AA
:1024E000102215480DF082F8042114480CF0C2FBAC
:1024F0000F2F03DC012112480CF0BCFB2146002306
:1025000010220D480DF072F80B48BDE8F0410DF0B7
:1025100047B80024002008F0B5FB204608F0B2FBC5
:1025200008F008FC26462746012105480CF0A2FBCE
:10253000D4E700BF48A20100A805002060A2010066
:10254000D4B6020008B50CE00B4808F077FA002377
:10255000C1B2102209480DF049F8012108480CF0D9
:1025600089FB054808F0A0FA0028EDDC0348BDE827
:1025700008400DF015B800BF68360020A8050020FF
:1025800084A3010008B54D4B1B68012B10D001211D
:1025900005200AF071FF64200AF0ACFF312248499F
:1025A00048480CF0C1FF4748BDE808400CF0F8BFB0
:1025B0001722454943480CF0B7FF42480CF0F0FFA2
:1025C00008F0B8FB0A200AF095FF17223F493D4862
:1025D0000CF0AAFF3B480CF0E3FF08F0ABFB0A202D
:1025E0000AF088FF17223A4936480CF09DFF35481B
:1025F0000CF0D6FF08F09EFB0A200AF07BFF1722A2
:10260000344930480CF090FF2E480CF0C9FF08F018
:1026100091FB0A200AF06EFF17222F4929480CF07F
:1026200083FF28480CF0BCFF08F084FB17222B49DD
:1026300024480CF079FF23480CF0B2FF0A200AF07E
:1026400059FF172226491F480CF06EFF1D480CF059
:10265000A7FF0A200AF04EFF08F06CFB32200AF0B8
:1026600049FFFFF76FFF07211E480CF003FB1E48D0
:102670000CF096FF2A211D48FFF7F4FE1A480CF0D3
:102680008FFF4FF448700AF035FF092118480CF00D
:10269000F1FA15480CF084FFFFF754FF1722154993
:1026A00008480CF041FF07480CF07AFF0A200AF0B6
:1026B00021FFBDE8084008F03DBB00BF5CFBFF1FE9
:1026C000F4A101006836002068A2010080A2010088
:1026D00098A20100B0A20100C8A20100E0A201007E
:1026E000F8A2010010A30100A8050020789E0100B7
:1026F00018A3010024A3010038B51D4C1D481E4D30
:1027000007210CF0B7FA20460CF04AFF2A211B489B
:10271000FFF7A8FE20460CF043FF4FF448700AF084
:10272000E9FE092128460CF0A5FA20460CF038FFF6
:10273000FFF708FF062112480CF09CFA20460CF027
:102740002FFF0E210F48FFF78DFE20460CF028FFCB
:102750004FF448700AF0CEFE284609210CF08AFAA0
:1027600020460CF01DFFBDE83840FFF7EBBE00BF70
:10277000A805002010A3010018A30100789E010005
:102780003CA30100C8A701002DE9F041334E344DB0
:102790003368DFF8E88084B040F6A6600193002338
:1027A000019F2B6008F090F9FFF7ECFE2968336871
:1027B0000293029BD8F80020DB1B934210D279B918
:1027C000284808F071F900282648EFDD08F036F9AE
:1027D000C4B220460CF0D2FA2046FFF7CBFCEFE75C
:1027E000102121480CF046FA3368039303991F48DF
:1027F00000230A22C91B0CF0F9FE1C480CF0D0FE85
:1028000009211B480CF036FA296818480CF02EFFF5
:1028100016480CF0C5FE174B1B68012B04D008F0BE
:10282000F9F904B0BDE8F081172213490D480CF006
:102830007BFE0C480CF0B4FE0A200AF05BFE08F0A8
:1028400079FA32200AF056FEFFF77CFEFFF754FFBC
:1028500008F0E0F904B0BDE8F08100BF8C3A002038
:10286000643600206836002044A30100A80500203B
:1028700058A301005CFBFF1FF8A20100BCFAFF1F78
:102880002DE9F041184B194E194D82B0002240F647
:10289000A6601A6008F018F933680093DDF800802C
:1028A0004EF660272B684BB11AE008F0C7F8C4B2A7
:1028B00020460CF063FA2046FFF75CFC0D4808F058
:1028C000F3F800280B48F0DC33680193019BC8EB58
:1028D0000303BB42E6D9084A0221012311602B60A1
:1028E00002B0BDE8F08100BF643600208C3A0020C1
:1028F00064190020683600205CFBFF1F2DE9F04FB3
:1029000085B0FEF7D5FFAB48AB4C0CF049FE122268
:10291000AA49A8480CF008FEA6480CF041FE224641
:102920000921A74806F0F6F8237813F0C00300F059
:10293000A581402B00F019810D21A2480CF09AF9D5
:10294000002319460A22A0480CF050FE9E480CF0C5
:1029500027FE0024274600230A2239469548DFF83F
:10296000C0B2DFF8C0A20CF041FE012297499148A5
:102970000CF0DAFD0A22002321468E480CF036FEC8
:102980008C480CF00DFE8B4807F098FFDBF80060D8
:10299000DAF8000030440FF0DBFA054630460FF05D
:1029A000D7FA29460FF0DCFB2946044688480FF089
:1029B000D7FB214605464FF07E500FF013FA29460B
:1029C0000FF010FA834B8146196820460FF014FB74
:1029D000814B8046196848460FF00EFB0146404681
:1029E0000FF002FA7D4B8046196828460FF004FB71
:1029F000014640460FF0F8F9794B804618680FF011
:102A0000A7FA78490FF0F8FA774A03904146106820
:102A10000FF0A6FB039B014618460FF0EDFA0FF0EE
:102A2000EDFC0390002F40F0FF80704B00201F60F2
:102A300021460FF095FB082106466D480CF01AF967
:102A4000DBF8001060480CF011FE5F480CF0A8FDA8
:102A50000A2168480CF00EF9DAF800105A480CF018
:102A600005FE59480CF09CFD0D2163480CF002F95D
:102A700020460EF017FE022402460B4600945248F0
:102A80000CF0FEFD50480CF08BFD12215B480CF061
:102A9000F1F828460EF006FE009402460B464A481E
:102AA0000CF0EEFD48480CF07BFD0F2154480CF073
:102AB000E1F848460EF0F6FD009402460B46424807
:102AC0000CF0DEFD40480CF06BFD0D214D480CF084
:102AD000D1F840460EF0E6FD009402460B463A4817
:102AE0000CF0CEFD38480CF05BFD03980FF02CFA8B
:102AF0000146074630460FF03BFC2E2200210028FD
:102B000040F0D6802B48404D07F08AFA0D223F490D
:102B100028480CF009FD30463D490FF021FB0646E0
:102B20000EF0C0FD00940B46024622480CF0A8FDB2
:102B3000012238491F480CF0F7FC0E2136482E6060
:102B40000CF098F820480CF02BFD28680EF0AAFD38
:102B5000022402460B4600941B480CF091FD1A48D3
:102B600005B0BDE8F04F0CF01BBD637A227AE07926
:102B7000013303EB022303EB004080020FF0E4F982
:102B800026490FF039FA0FF039FC0D2104460D48A3
:102B90000CF070F8214600230A220B480CF026FDA9
:102BA00009480CF0FDFCC72C8CBFA4F1C807002716
:102BB000D1E600BF601700204C17002064A301007D
:102BC0006815002078A30100A805002088A3010053
:102BD0000000204258FBFF1FB8FAFF1FB4FAFF1F86
:102BE00040FBFF1F00006145ACFAFF1F6019002089
:102BF0008CA3010098A30100A4A30100B4A30100C9
:102C0000C8A30100D8A30100382F002008A40100A8
:102C100000C0A84748A4010018A40100BD37063A27
:102C2000B0FAFF1F3CFAFF1F38460FF08DF9074638
:102C300070000FF08DF9314B19680FF0DDF9304954
:102C40000FF0D2F84FF08E410FF0CEF82D490FF073
:102C500087FA2C490FF084FA014638460FF080FAC3
:102C60000EF020FD0DF0A0FE0FF048F8264A0346B6
:102C7000136000FB06F00FF067F9D9E6657AA379D7
:102C8000E279A07A6179267A05F00304640003F002
:102C90000303920044EAD01001F00F0142EA8323BB
:102CA000084443EA96130738013303FA00F065E756
:102CB0001648174D07F0B4F90E22164913480CF0C8
:102CC00033FC039B14491148A1FB0331090C002379
:102CD0000A220CF08BFC012210490C480CF024FC59
:102CE00038460F490FF03CFA0F2128600D480BF0D1
:102CF000C1FF0D480CF054FC27E700BF4034002012
:102D00000000304200007A44601900206017002063
:102D1000382F0020E8A3010007452EC248A4010077
:102D200000C0A847F8A30100A8050020F0B59DB099
:102D300000264FF47A753C4C3C48049502948DF87B
:102D400018608DF819608DF80C608DF8146004F02F
:102D5000FBFC37491CAF01F23C4004F05DFD1195CE
:102D60000123344A31498DF84C608DF84D608DF85F
:102D700040608DF8486013A847F8344D13AC04F058
:102D8000F1FC0FCC06AD0FC50FCC0FC59DF8180098
:102D900024689DF84010119A9DF848302C608DF8F9
:102DA0000C1004928DF8143008B91DB0F0BD3346F4
:102DB000C822214906A804F0FBFDB04206A81CDD8C
:102DC00004F0C2FC0B211D480BF054FF1A4810F010
:102DD000B7FC014618480BF04DFF19480CF0E0FB1A
:102DE0003B4601AA1749144810F09AFB9DF804309D
:102DF000772B06D001201DB0F0BD04F0A5FC3046B5
:102E0000D3E7114C0F9B114823600E210BF032FFCA
:102E100021680B4833460A220CF0E8FB08480CF006
:102E2000BFFB0120C1E700BF489E01004415002000
:102E30000811002028A401007419002038A4010002
:102E4000A805002044A40100D42E00204CA40100B9
:102E50002DE9F04F83B00F460190806800210130CA
:102E600016460FF08BF8014629480FF079F9044611
:102E700030460FF069F801460EF0B6FF06463846B8
:102E80000FF062F8014630460FF0B6F801462046D2
:102E90000FF066F94FF001084FF07E550746C14626
:102EA0004FF0010A4FF0000B50460FF051F8394631
:102EB0000FF0A2F804460FF07BFA0FF049F8014634
:102EC00020460EF08FFF294606460FF033FA4FF0EA
:102ED000874148B120460FF02DFA28B120460FF067
:102EE000ADFA35468046D1461AF1010A4BF1000B86
:102EF000BBF1000F08BFBAF1400FD5D1019809F11D
:102F0000FF3208F1FF3380E80C0003B0BDE8F08F1A
:102F10004054094C2DE9F04110298AB00C4607466F
:102F200063D0202904BF012309932246394607A80C
:102F3000FFF78EFF0798089E099D0294431C0136F7
:102F400001350393049605950EF0FEFF4FF07E5178
:102F50000EF04AFF26490FF04FF8804630460EF03B
:102F6000F3FF014640460FF0FBF84FF07C510FF0A5
:102F700043F8064628460EF0E7FF014630460FF0BC
:102F8000EFF8054660000EF0E3FF014628460FF01B
:102F9000E7F80FF00DFA174B01901A460097164903
:102FA0001648174D174C0CF013FB174917480B68C0
:102FB00023F010430B60079A089B120302F47F2250
:102FC000C3F30B0313432B609DF8243043F0E063FD
:102FD00023609DF8243043F08E4303600B6843F078
:102FE00010430B600AB0BDE8F081032309939CE70E
:102FF0004054894C00A24A045CA40100A8050020AA
:1030000004F1024008F0024080F0024088F00240E3
:103010002DE9F04F05469D4E9D4FDFF88C8296F8C6
:1030200000E02F60FF2085F82400DFF8809298F8F8
:103030000000BEF1060F59F820E04FF000038DB0FC
:103040000C4685F8253085F8263098BF3370BEF1E0
:10305000000F00F0AD808E455ED07346810001E028
:103060009C4259D00B445B68002BF9D1734600E0B9
:1030700053460B44D3F804A0BAF1000FF8D15C60BA
:103080003478029705EB010B4FFA80FCFF23062CE6
:10309000CBF804A08DF82DA08DF82EA085F824C0C3
:1030A0008DF82C30744604D800233370002C00F0C7
:1030B000B480A24229D0234601E0934225D00B449C
:1030C0005B68002BF9D104EB010EDEF80440002C04
:1030D000F9D1CEF804200CAB1944BCF1FF3F00F14C
:1030E00001034FF0000041F8240C88F800308DF8FF
:1030F0002CC0029705D0674951F82C2002AB9A42A8
:1031000076D028460DB0BDE8F08F013088F8000079
:1031100028460DB0BDE8F08F31780297FF240023D8
:1031200006298DF82C408DF82D308DF82E30574C17
:1031300000D823709645E8D07346810001E09A429A
:10314000E3D00B445B68002BF9D18E44DEF80440D9
:103150002CB1A6468E44DEF80440002CF9D10CAB0D
:1031600046B219440130731CCEF8042088F80000E0
:1031700041F8244C02978DF82C60C2D0454951F893
:10318000262002AB9A42BCD159F82630B00023B1B8
:103190001A1853685460002BFAD198F800300022B6
:1031A000013B88F8003049F8262041F82620A8E79E
:1031B00000283AD0374B96F800E043F820508100C1
:1031C00005EB010C002349F820408DF82D30CCF898
:1031D00004308DF82E304FFA80FCFF23BEF1060F2D
:1031E000029785F824C08DF82C307FF65DAF5DE73F
:1031F00059F82C304FEA8C0423B11A1953685060E7
:10320000002BFAD198F800300022013B88F80030FA
:1032100049F82C2041F82C2073E7E8B11D4B49F800
:10322000202002AA43F8202055E71B491B480B68C1
:10323000019243F080630B600368194923F08043D7
:10324000036015200AF038F8164B019A4FF400116C
:10325000196098F80000ADE70F4C10482368019200
:1032600043F08063236003680D4923F080430360CB
:1032700015200AF021F80B4B019A4FF40011196048
:1032800098F800004FFA80FC8100C7E7BCF3FF1FED
:103290006C9E010020370020047004400070044040
:1032A0009504000000E100E04137002000370020D5
:1032B0002DE9F84309F0B6FEB64AB74B1468186812
:1032C000B64BB74FB74D1D60044400254FF47A76D6
:1032D0003C609E60B44CB54AB5491D7118461D73DB
:1032E0000EF076F8042701231E20B24EB24A266063
:1032F0004FF496714FF0FF36E16060601946A060B0
:103300003846657584F8215084F82250656226613C
:10331000E6612663237584F82030A761A262E26229
:103320000AF0BEF8E169B14200F09281C8B22946C4
:103330000AF0B6F8A14FDFF80C83A1483146A14C42
:1033400007F00EF922687D723D613D72FD60C7F89D
:1033500000800AB983E11A465369002BFBD15761FB
:103360000025994E994B95487D61BD80FD80BD72C9
:103370003B6002F0DDFC012006F5A2522B462946F7
:103380003572F560C6F8008070723261354600E033
:103390002A6942F82310727A8B4801339A42F7DC8B
:1033A0002268884B0AB95CE11A465369002BFBD1AD
:1033B000566141F23C4241F23D434FF00009844DD9
:1033C0008449854806F8029006F803904A4601238E
:1033D0003160C6F818044FF48061C6F81490A6F85E
:1033E0000490A6F8069086F80A907C480DF000FA42
:1033F000012005F118024B464946C5F8008085F8C2
:103400000890C5F80C9068722A61AE4601E0DEF8BB
:10341000102042F823106A7A6D4801339A42F6DC94
:103420002268684B0AB918E11A465369002BFBD190
:103430005561DFF81492DFF81482694B2B60002489
:1034400048466C61AC80EC80AC72A5F8B041C9F81C
:103450000070A5F8B241C5F8AC41A5F8B441C5F873
:10346000B841C9F8046089F8084089F80940C9F8EA
:103470000C4089F810400BF0D5FD4C4A59495A4E82
:1034800048460DF0A5FF404688F80840C8F800708F
:10349000C8F8045088F80940C8F80C4088F8104073
:1034A0000BF0C0FD4046414A4E49504D0DF090FF93
:1034B0004F4B5049504A86F825404FF0FF08316085
:1034C000012786F824801A603046384A4B497463D5
:1034D000B46386F83C4086F826700DF079FF484BBF
:1034E00085F8248085F82540304A46492B602846D7
:1034F00085F8274085F8284085F826700DF068FF8C
:10350000324629464048414D414F424EFFF780FD2B
:10351000264A41493C480DF05BFF404A404B414937
:1035200011604FF47A7090603F49147464204FF03A
:10353000800E547414711473DC711C4A83F83C447B
:1035400083F83D4483F86A4483F86004C3F86C143C
:103550002846364985F804E02C600DF039FF344BDD
:1035600018680EF0F5FC014638680EF0F9FD314B95
:103570000146196030480EF0F3FD214630602F48B7
:103580000CF096F9094A2E492C48BDE8F8430DF095
:103590001FBF00BFB0FAFF1F3CFAFF1F68360020B4
:1035A00098170020B8B7010044340020FCF9FF1F31
:1035B0009508000080050020E4BA0100D82E002004
:1035C00060170020E43C0020801A002014B00100A5
:1035D0008C150020ECAF0100E4A70100C42E0020F0
:1035E000E0A70100A90800003C1A0020F42E0020EA
:1035F0007834002014B20100F8AF0100BD060000CD
:1036000028B201001507000064180020402F002098
:10361000403400208C10002011060000A835002046
:1036200008110020489E01000000023889080000AF
:1036300050FBFF1F8810002000007A447C150020FA
:1036400031F800003C9E0100242F0020F4100020DF
:10365000054F0648DFF8188071E61860E9E6276034
:103660007EE61860A5E600BFD82E00206017002077
:103670003C9E010070B5134C82B006460D462046B4
:103680000A2102F0BDFFC6F30721204602F0C4FC68
:10369000F1B2204602F0C0FCC5F30721204602F03B
:1036A000BBFCE9B2204602F0B7FC00230093627B2A
:1036B00021692046012303F02FFAB0FA80F0400977
:1036C00002B070BDE036002008B500213020FFF7C1
:1036D000D1FF00210220BDE80840FFF7CBBF00BFAB
:1036E00008B5A2213020FFF7C5FF43210220BDE825
:1036F0000840FFF7BFBF00BF0238032810B503DC46
:1037000000285FDA002400E00C2444F2600130203D
:10371000FFF7B0FF6C212620FFF7ACFF4FF4F871E4
:103720002820FFF7A7FF40F622712C20FFF7A2FF09
:1037300000213C20FFF79EFFFFF7D2FF2146042027
:10374000FFF798FF4FF498710620FFF793FF0021D1
:103750000A20FFF78FFF08210E20FFF78BFF4FF69F
:10376000FF711020FFF786FF47F67F712220FFF7D9
:1037700081FF00214FF49270FFF77CFF4FF48A71B4
:103780002420FFF777FF104C00212A20FFF772FF5B
:1037900009210E480BF06EFA21680D480BF066FF08
:1037A0000B480BF0FDFE2168202041EA0111FFF7D4
:1037B00061FF014606480BF059FF05480BF0F0FE8B
:1037C000012010BD8400A0E738FAFF1F78A4010093
:1037D000A80500202DE9F041214B224E86B0102192
:1037E000044653F82000FFF795FB1F4B5D7BD3F891
:1037F0001080284602F00AFD012700231B4A019091
:1038000029464046039202931A460093049702F019
:1038100011FE2046FFF770FF30465522202102F0AE
:1038200075F838B1F28842F0040292B23046242191
:1038300002F06CF800210B4802F084F90C4B0948A7
:103840001A78114602F034F9064802F027F90548C3
:1038500002F03AF906B0BDE8F041FDF7CDBC00BF7B
:1038600010FAFF1F78340020E0360020A086010007
:1038700038FAFF1F2DE9F04F89B072B69B4A4CF21F
:1038800020504DF62811108018231180013BFDD1E6
:10389000974D984C98494FF6FF734FF480602B80FA
:1038A0002380088032F80E3C9BB243F0D30322F809
:1038B0000E3C62B6FDF7B0FC01210F2009F0F0FDCF
:1038C00000210F2009F0D8FD0121102009F0E8FDAA
:1038D0000121102009F0D0FD0121112009F0E0FDA7
:1038E0000021112009F0C8FD0021222009F0D8FD97
:1038F0000021232009F0D4FD0121082009F0D0FD8A
:103900000021282009F0CCFD002009F0E7FA002171
:10391000022009F0C5FD0021032009F0C1FD0121AD
:10392000042009F0BDFD0021042009F0A5FD0121BE
:10393000052009F0B5FD0121082009F09DFD0121B8
:10394000052009F099FD6D4A6D486E4902F1640544
:1039500052F8043F50F8044FAA42A3EB040341F885
:10396000043FF5D1684E694D4FF4FA7009F0C2FD7D
:10397000674B717B30690393002401230493019307
:10398000224623460294009402F054FD336942F229
:103990001072C3F8682264202C6009F0ABFD29681E
:1039A0005C48102223460BF021FE5A480BF0F8FD2C
:1039B0004FF430532B60642009F09CFD4FF43453D6
:1039C0002B60642009F096FD534B1B788BB11221BC
:1039D00052480BF04FF94F480BF0E2FD032409F079
:1039E00033FDFEF7C3FA4FF47A7009F083FD013C12
:1039F000F5D1FDF75FFC01233C220221484806F087
:103A00003BFEFDF755FF474945480A220BF08CFD68
:103A100043480BF0C5FD424806F050FF424B196881
:103A2000F1B9102009F028FD0121112009F024FD31
:103A300001210F2009F020FD4FF47A7009F05AFDA2
:103A40000121102009F018FD0B22384934480BF0F1
:103A50006BFD33480BF0A4FD314806F02FFFFEE765
:103A6000334C3448072103F02DFD04F58C650E21FD
:103A7000304803F06FFD284604F26C414FF03843A4
:103A80000A2204F067FF00285ED12B4C2B49214805
:103A9000002323703225FCF729FFFDF709FF0022E0
:103AA00027491F480BF040FD1D480BF079FD082207
:103AB00024491B480BF038FD19480BF071FD1848DC
:103AC00006F0FCFE4FF4C87009F014FDFDF7F0FE9F
:103AD000134806F0F3FE4FF4C87009F00BFD013DEA
:103AE000DDD14FF4C87009F005FD4BE00E20054014
:103AF00004200540062005401620054040FAFF1F1F
:103B0000D8FAFF1F8C100020E036002010D00340B0
:103B1000801A0600A805002044FBFF1F90A40100A6
:103B20006017002084A401008C340020A4A40100AC
:103B30000811002040000020C4FAFF1F64A5010006
:103B400050BA0100B0A4010004F23C40256003F02B
:103B5000FBFD0121204604F0B1FD0146002800F0E4
:103B60000182A64C04F23C452846214603F054FE4F
:103B700000288AD094F83C3413F0700F85D0A04B05
:103B8000A04C1D60A04DFEF74DFAA04923782A688D
:103B90000A60002B40F004819D4B9E491B68086819
:103BA000DFF80C93DFF80CA3DFF80C839A4F134473
:103BB0008342C8BF0B60FEF793FAD9F800000EF0FD
:103BC000C7F90146DAF800000EF0CAFA03460146CA
:103BD0009248C8F800300EF0C3FA3860FEF78EFE47
:103BE000FDF7AAFE8E488F490022002340F83320BB
:103BF00041F833200133192BF8D18B4B8B4E8C4875
:103C00008C491A78DFF8B4C2DFF8B4E200233380BD
:103C1000894E03800B6000200021CCF80030CEF8E4
:103C20000030C6E90001002A40F04E81834E844BEB
:103C3000DFF890E23668D3F800C0824A82498348B0
:103C4000DEF80030126809680068009306F5FA662D
:103C500063460196FDF71AFFFDF72AFE09227C490B
:103C60007C480BF061FC7B480BF09AFC10227A49EF
:103C700078480BF059FC77480BF092FC01210F209B
:103C800009F0FAFB1E220021724806F0C9F905224C
:103C9000724970480BF048FC714B18680DF002FD3A
:103CA00002260B46024600966A480BF0E9FC69487A
:103CB0000BF076FC05226B4966480BF035FC6A4B2D
:103CC00018680DF0EFFC009602460B4661480BF0B9
:103CD000D7FC604806F0F2FD644B1B78002B66D1E0
:103CE00041F2883009F006FC00210F2009F0C4FBE6
:103CF0002378002B58D15E485E4E5F4C05F096FF4E
:103D0000FDF792F809F0A0FB5C4B5D491B682D683C
:103D100008605C4A90FBF3F003FB00335919116013
:103D2000236032685848594B016053F82200584BC1
:103D300007930EF00DF983462846CAF800B00EF03E
:103D400007F959460EF058F94FF06E510EF054F93C
:103D50000EF02EFB079B1860D9F800000EF0F8F863
:103D6000014658460EF0FCF9034601462B48C8F8B8
:103D700000300EF0F5F96E21386046480BF07EF801
:103D80003068FFF727FD444A20684449444B1060DF
:103D900000204FF0FF3208601A6009B0BDE8F08FD4
:103DA000FDF7FEFF2A68F7E6FDF756F9A3E741F6AF
:103DB0004C5009F0B1FC002009F024FD00213948E5
:103DC00007F090F9374807F05FFD082206463649AC
:103DD00020480BF0A9FB31461E480BF047FC1D485C
:103DE0000BF0DEFB1B4806F069FD30492D4807F05B
:103DF00093FD2C4807F000FA72E700BF081100207D
:103E0000F4360020C4FAFF1FB0FAFF1F3C34002034
:103E10003CFAFF1F981700208C10002000007A4405
:103E2000901800209C17002064FBFF1F9435002091
:103E3000F02E00205C190020E0350020C8FAFF1F9A
:103E4000C0FAFF1FEC350020D4FAFF1F40FAFF1F15
:103E500028A501006017002034A5010048A5010035
:103E60006819002050A501005C1700203C2F00209D
:103E700015080000A8FAFF1F7C1A0020D0FAFF1FC7
:103E80008010002034340020202F002010FAFF1F63
:103E90008C1800200082FF1F701900209034002031
:103EA000581900204434002058A50100383400205F
:103EB00050FBFF1F4034002088100020D42E00202B
:103EC0008834002008FAFF1F2A492B48DFF8C0B0C9
:103ED000FCF70CFD29492848FCF708FD264806F0A8
:103EE000EDFCFEF7CDFCFDF7E3FC22492248FCF790
:103EF000FDFC234B20481B68012B0CBF21492249A4
:103F0000FCF7F4FC21491C48FCF7F0FC1A4806F0C9
:103F1000D5FC0026DBF80030002B7FF487AE072E9F
:103F20003FF484AEFEF730FC194B1B68002BF1D137
:103F300018491948FCF7DAFCFDF7BAFC0E480BF0FB
:103F40002FFB16490C48FCF7D1FC15490A48FCF731
:103F5000CDFC094806F0B2FC42F21070013609F0BF
:103F6000C9FAD7E7204604F0A9FB00287FF4F9AD91
:103F70008BE500BFBCA4010060170020C0A40100B5
:103F80005CFBFF1FD4A40100DCA40100E4A4010039
:103F900064360020F4A40100A805002008A5010053
:103FA00018A5010070B50F4C82B00E4601462046A0
:103FB000154602F025FB3146204602F02DF8294631
:103FC000204602F029F80023627B216900932046F5
:103FD000012302F0A1FD0446052009F08BFA2046DA
:103FE00002B070BDE036002038B5324C4022207857
:103FF0002421FFF7D7FF002840D12F4D20782A68D1
:1040000062F07F02D2B22521FFF7CCFF002838D121
:10401000032226212078FFF7C5FF002834D1D622BD
:1040200027212078FFF7BEFF88BB2A782078282137
:10403000FFF7B8FF70BB0A2229212078FFF7B2FFF3
:1040400058BB81222A212078FFF7ACFF40BB112208
:1040500064212078FFF7A6FF28BB03226721207880
:10406000FFF7A0FF10BB207880220121FFF79AFF05
:10407000002814BF6FF00E00002038BD6FF005005F
:1040800038BD6FF0060038BD6FF0070038BD6FF027
:10409000080038BD6FF0090038BD6FF00A0038BD68
:1040A0006FF00B0038BD6FF00C0038BD6FF00D00E5
:1040B00038BD00BF00FAFF1F0CFAFF1F344B1B78FE
:1040C00070B50446002B41D1002C45D0314C324E06
:1040D000207801226B21FFF765FF03221A21054694
:1040E0002078FFF75FFF10221B212078FFF75AFF8F
:1040F000092219212078FFF755FF207818221C216A
:10410000FFF750FF3368022B2DD0042B32D0082B41
:1041100037D003221D212078FFF744FF22223721C8
:104120002078FFF73FFF012238212078FFF73AFF80
:10413000FFF75AFF07226A212078FFF733FF207824
:1041400060226A21FFF72EFF284670BD092113481F
:104150000AF090FD002CB9D10E4B402218786B214B
:10416000FFF720FF70BD00221C212078FFF71AFF07
:104170003368CAE708221C212078FFF713FF336851
:10418000C5E710221C212078FFF70CFFC1E700BF14
:1041900044FBFF1F00FAFF1F04FAFF1F84A5010064
:1041A00070B584B009F050F90921064641480AF07B
:1041B00061FD41480BF0F4F90021082009F05CF999
:1041C000FFF782FA3D4B1B78002B6FD1AE213C48A4
:1041D0003C4D06F0E1F90A2009F08CF957E005F0B2
:1041E000EDFA0621384805F091F80121052009F083
:1041F00043F9364B364A1A60FEF7C6FA002105200D
:1042000009F03AF9334807F03FFB7821314806F0CE
:1042100073FF314931480BF087FB31492F480BF0D0
:10422000C9FB304B2D4819680BF0D2FB2E492B48A7
:104230000BF0C0FB09F008F9014628480BF0DCFB45
:10424000294926480BF0B6FB284B0422196868461A
:104250000BF050FB694621480BF0A8FB68460BF0B9
:10426000E7FA21491D480BF0A5FB214B04221968F0
:1042700068460BF03FFB694618480BF097FB684611
:104280000BF0D6FA00F01AFB124806F0B5FF09F061
:10429000DBF8841B0023AC4219464FF00502154899
:1042A0009DDD154B154A1A6004B070BD0020FFF764
:1042B00005FF8BE7A0A50100A8050020CCFAFF1F91
:1042C000601700207F51010064180020BCFAFF1F16
:1042D000803801004434002050BA01007C150020D1
:1042E000ACA5010064360020F0A001006819002090
:1042F0005C1700203C1A00200CED00E00400FA05D9
:1043000010B5094C20460FF01BFA014620460AF072
:10431000B1FC2378522B06D163784D2B03D1BDE835
:104320001040FFF73DBF10BDFC3500202DE9F04FD8
:10433000704B714A1C681568704B714A1B8816686F
:104340007048DFF80882DFF808A2DFF808B2A1B0F1
:104350000D21ADF81830CDF81E40CDF82250CDF823
:104360001A600AF087FC00230A22322166480BF00B
:104370003DF965480BF014F90C2164480AF07AFC09
:1043800000230A22314660480BF030F95E480BF0FA
:1043900007F905215E480AF06DFC20460DF082F910
:1043A000022402460B46009457480BF069F9564820
:1043B0000BF0F6F8052157480AF05CFC28460DF092
:1043C00071F9009402460B464F480BF059F94E48DC
:1043D0000BF0E6F8504B514918680DF00DFE0EF049
:1043E0000DF82146C4B24E488DF826400AF042FC32
:1043F00000230A22214644480BF0F8F842480BF00B
:10440000CFF8162147480AF035FC3F480BF0C8F8B2
:10441000454A464B41491B6810688DF827300DF01E
:104420009FFE0DF0EBFF0DF127058DF849000024EC
:1044300045E03F4B18680DF08BFD014630460DF00E
:104440008FFE0DF02FF90CF099FB3A4B06461868D9
:104450000F460DF027F90CF091FB0022CDE9020187
:10446000354B304639460DF071F9002206460F46AD
:10447000324BDDE902010DF069F902460B46304688
:1044800039460CF0AFFF0DF059FCDAF800100DF0D2
:10449000A9FCDBF800100DF0A5FC0DF0AFFFC6B2D3
:1044A000314600230A22184805F8016F0BF09EF8E8
:1044B0000134022122480AF0DDFB192C4CD058F8B7
:1044C0003460204930460DF053FF0028B1D1194B1C
:1044D00018680DF0E7F80CF051FB0022174B0DF0B7
:1044E00035F902460B46002017490CF07BFF0DF012
:1044F00025FCCAE7681900205C1700204CFBFF1F51
:1045000070190020B0A50100A8050020C0A5010079
:10451000D0A50100D8A50100F835002000002041F9
:10452000E0A50100E4A50100E8350020D42E00201C
:10453000883400208810002000003440000024400F
:10454000FCA50100BD378635000058C0901800203A
:1045500060FBFF1F40100020B8480BF021F80A2133
:10456000B7480AF087FBB5480BF01AF810AD0024E5
:10457000B44B53F834000DF095F80CF0FFFAB24B41
:104580008046186889460DF08DF80CF0F7FA002285
:1045900006460F46AD4B404649460DF0D7F800227F
:1045A00080468946AA4B304639460DF0CFF8024680
:1045B0000B46404649460CF015FF0646DAF8000067
:1045C0000F460DF06FF802460B46304639460CF0A8
:1045D00009FF0646DBF800000F460DF063F80246BF
:1045E0000B46304639460CF0FDFE0DF087FBC6B297
:1045F000314600230A22914805F8016F0AF0F6FFC0
:104600000134022193480AF035FB082CB0D18B48C5
:104610000AF0C6FF022190480AF02CFB00230A2270
:104620009DF8271085480AF0E1FF022189480AF029
:1046300021FB022189480AF01DFB00230A229DF874
:1046400049107E480AF0D2FF7C480AF0A9FF0C21ED
:1046500083480AF00FFB834B78480221D3E90023FB
:1046600000910BF00DF875480AF09AFF06217E487C
:104670000AF000FB7D4B714819680A2200230AF0FA
:10468000B5FF6E480AF08CFF042179480AF0F2FA6F
:10469000784B6A48B3F900100AF0E8FF67480AF05F
:1046A0007FFF042174480AF0E5FA744B6348B3F9BC
:1046B00000100AF0DBFF61480AF072FF1221704817
:1046C0000AF0D8FA00230A2232215C480AF08EFF51
:1046D0005A480AF065FF0DF117050DF14B060DF173
:1046E000490707E021460023102254480AF07EFFC4
:1046F000AF420AD015F8014F06F8014F0F2CF1D840
:10470000012160480AF0B6FAECE75F4D4B480AF029
:1047100047FF2B786422059203BB5C4B1C781CB9C5
:10472000204621B0BDE8F08F05AB00935848594BA7
:10473000322213A907F042FC0446002842D12B780C
:1047400053BB059B2BBB082153480AF093FA3B4807
:104750000AF026FF204621B0BDE8F08FFDF7A8F84B
:104760004E480AF01DFF0C224D494C480AF0DCFE71
:104770004A480AF015FF00230A22DDF81A104748BC
:104780000AF034FF45480AF00BFF444806F096F85B
:10479000C3E7FFF7B5FDD6E7FDF78AF822464149A2
:1047A0003E480AF0C1FE3D480AF0FAFE08223E49A2
:1047B0003A480AF0B9FE39480AF0F2FE374806F0E6
:1047C0007DF8BEE7132139480AF054FA21461B4808
:1047D0000AF04CFF19480AF0E3FE2B78BBB9072C0E
:1047E0009ED10C2132480AF045FA14480AF0D8FE4E
:1047F0002B78002B94D022462E4928480AF094FEAC
:1048000026480AF0CDFE254806F058F888E7FDF75F
:104810004FF80022234921480AF086FE1F480AF07B
:10482000BFFE092224491D480AF07EFE1B480AF0FB
:10483000B7FE1A4806F042F8D1E700BFA8050020ED
:1048400000A601009C1700208810002000003440C2
:1048500000002440FCA501000CA6010010A60100E8
:1048600014A60100E035002024A601005C190020F8
:104870002CA601009435002034A60100F02E002063
:104880003CA60100D4B6020054FBFF1F3C2F0020C1
:1048900044340020FC350020A4A60100601700204D
:1048A00050A6010050BA010098A6010060A60100C0
:1048B00080A6010090A6010074A6010030B5474D06
:1048C0002B7883B0FBB902AC64230021444844F840
:1048D000043D0BF0A5F823460146424A424807F042
:1048E00083FB044620BB2B78002B4AD1019B002B75
:1048F00044D108213D480AF0BDF93D480AF050FE78
:10490000204603B030BDFCF7D3FF032239493A48B3
:104910000AF00AFE38480AF043FE314936480AF0E8
:1049200019FE35480AF03CFE334805F0C7FFCAE7D8
:10493000132132480AF09EF921462D480AF096FECE
:104940002B480AF02DFE2B78002B30D1072CD7D125
:104950000C212B480AF08EF925480AF021FE2B780D
:10496000002BCDD02246274923480AF0DDFD2248FE
:104970000AF016FE204805F0A1FFC1E7FFF7C0FCD2
:10498000B7E7FCF795FF22461F491B480AF0CCFD0C
:1049900019480AF005FE08221C4917480AF0C4FD10
:1049A00015480AF0FDFD144805F088FF9EE7FCF766
:1049B0007FFF0022144910480AF0B6FD0E480AF0A5
:1049C000EFFD092212490C480AF0AEFD0A480AF030
:1049D000E7FD094805F072FFB8E700BF54FBFF1F71
:1049E0007C150020FC35002044340020A4A60100E2
:1049F000A8050020B0A601006017002060A60100F5
:104A000080A6010090A6010050BA010098A60100FE
:104A100074A6010038B50C4605460121234805F06F
:104A200003FB2AB20021214805F0FAFA204605F0DE
:104A30001FF801461D480AF019FE2D211B4805F0FC
:104A4000B5FA204605F006F8014618480AF00EFEB1
:104A50002D21164805F0AAFA204604F0EDFF014684
:104A600012480AF003FE0222114910480AF05CFDC8
:104A7000204604F0B7FF092804DC01220D490B4849
:104A80000AF052FD204604F0ADFF014607480AF047
:104A9000EDFD204604F0B4FFFCF7DEFF204604F0F5
:104AA000BDFFBDE83840FCF7D7BF00BF601700204E
:104AB000FCA50100D4B602002DE9F04FDFF8148305
:104AC000AA4E95B008F0C0FCD8F80040306034B170
:104AD000012C00F0CB8030BF15B0BDE8F08F642012
:104AE00008F008FD72B6A24F4AF202624BF2804310
:104AF0003A803B8062B600E00124FCF7DBFB9D4975
:104B00000DF018FC002800F09C8072B64AF2026298
:104B10004BF280433A803B8062B6AE21964805F066
:104B20003BFD0C21954808F0CFFF95480AF038FD71
:104B3000002319460522934804F040FE0A2008F09D
:104B4000D9FC914804F086FA41F2883008F0D2FC92
:104B500014AD4FF47A730024DFF87CE209938B4A9A
:104B60008B4945F834ED46230BA88DF82C408DF881
:104B70002D408DF820408DF8284002F0F3FD9DF87F
:104B80002C30002BB8D0834928460AF06FFD14A9B9
:104B90002C2401F8354D01220DEB040003F022F81E
:104BA0007D4928460AF062FD14A9012201F8364D1C
:104BB0000DEB040003F016F814A9012201F8374D9B
:104BC0000DEB040003F00EF8FCF774FB0CF06AFD2B
:104BD0004FF0020ECDF800E00B46024628460AF0E0
:104BE0004FFD14A9012201F8384D0DEB040002F02D
:104BF000F9FF6A4B18680CF055FD4FF004090B469D
:104C00000246CDF8009028460AF03AFD14A9012288
:104C100001F8394D0DEB040002F0E4FF604B186819
:104C20000CF040FDCDF8009002460B4628460AF0F5
:104C300027FD28460AF0B4FC0DEB040002F084FDC9
:104C40005AE7002C40F03E83564CDFF890A19AF8CA
:104C50000030002B40F02A83326823689A4280F2A9
:104C6000E282D8F80040012C7FF435AF72B6404B99
:104C70004AF202614BF2804219801A8062B6FBF759
:104C8000E3FF494A41F23D43D15C19B10021D154BF
:104C9000FCF7A8FD454A464B12681B689A42FFF68E
:104CA0001AAF444B444C1868DFF830A10DF050F9AE
:104CB00042490DF055FA21680DF096F84049206000
:104CC0000DF056FB10B100238AF80030FCF774F8A1
:104CD00072B6274B4AF202614BF2804219801A8069
:104CE00062B69AF80030002B40F07883012105204D
:104CF00008F0C2FBFCF7DCFD072232491E48324DAA
:104D00000AF012FC1C480AF04BFC1B4805F0D6FDCB
:104D10000121112008F0B0FB0021102008F0ACFBAD
:104D200001210F2008F0A8FB4FF47A7008F0E2FB95
:104D30000121102008F0A0FB08F086FB0446222089
:104D4000346008F0F1F80A210746204809F092FF84
:104D50001F480AF025FC33682A68C82FA3EB040318
:104D600061DD9A425FDDDFF808903BE080100020B3
:104D70000C2005409A99594060170020B4A6010004
:104D8000800500203C1A002064180020549F010078
:104D9000441500207065656C9789340168190020FE
:104DA0005C1700207C1A0020801A0020441000208C
:104DB0008C180020B0FAFF1FF43500200000614578
:104DC000CDCCCC3D0CA701002CFAFF1F14A701008D
:104DD000A805002090340020489E010054FBFF1FCE
:104DE000C82F20DD08F030FB3060222008F09CF84E
:104DF00001460746BF480AF039FCBE480AF0D0FB1E
:104E00004FF4FA6008F076FB72B64AF202624BF297
:104E10008043A9F80020A9F8003062B633682A68F8
:104E20001B1B9342DCDB9A4280F257829AF80030D7
:104E3000002B40F0E48308F007FB04462320346095
:104E400008F072F80B21AC4809F014FFA9480AF0E9
:104E5000A7FB33682A681B1B01279A429AF8003087
:104E6000C0F28B82002B40F08D8208F0EDFA192100
:104E70008346A248C6F800B009F0FCFE9D48DFF862
:104E800090920AF08DFB222008F04EF804464FF471
:104E90007A7008F02FFB0A21994809F0EBFE2146B1
:104EA00094480AF0E3FB93480AF07AFB08F0CCFA46
:104EB000306072B64AF202624BF28043A9F80020D9
:104EC000A9F8003062B633682A68CBEB030393423B
:104ED000A4F11404ACBF00230123B4F5757F98BF7F
:104EE0000023BB42CFD800210F2008F0C5FA0021D3
:104EF000102008F0C1FA0021112008F0BDFA814C01
:104F00004FF47A7008F0F6FA0121102008F0B4FA94
:104F100004F58C65642008F0EDFA284604F26C4133
:104F20004FF038430A2203F015FD002840F05D825F
:104F30000021102008F0A0FA4FF47A7008F0DAFA95
:104F40000121102008F098FA4FF47A7008F0D2FA94
:104F500011216D4809F08EFE66480AF021FB6B4B6B
:104F60001B78002B00F0608272B6694B4AF2026136
:104F70004BF2804219801A8062B6664B1B78002B78
:104F800073D09AF80030002B40F00E83624BDFF8AC
:104F9000F4B1624FDFF8F09147F230521A60FDF73A
:104FA000F3FB04215E4809F065FE5E4B18680CF0C7
:104FB00079FB062402460B4600944E480AF060FB3B
:104FC0004C480AF0EDFA0421574809F053FE574BBC
:104FD00018680CF067FB00940B46024645480AF03F
:104FE0004FFB44480AF0DCFA306804F025FD504BD2
:104FF000DBF800501A6803922D1A306804F02AFD7D
:105000003C68241A306804F0EDFCD9F800301B1A13
:10501000B3FA83F35B093068029304F0F1FC039A5E
:10502000029BB5FA85F502406D09B4FA84F4154087
:105030006409404A2C401C420146106015D03E4B8A
:105040003E4A1C683D68DBF80030D9F80000126861
:10505000009504F5FA640194FCF718FD0A2138481C
:1050600009F008FE23480AF09BFA364C002105207F
:1050700008F002FA2278002A00F07182324D334C97
:105080002B6821688B4211DB82B19AF80020002A3C
:1050900040F078822E4A2F4812681344236006F0AD
:1050A000F3FBFFF743F92B4806F0A6F82A482B49F3
:1050B0000022002340F8332041F833200133192B1C
:1050C000F8D1274D274C284F284E294829499AF8CE
:1050D000002000232B802380002500243B603360C8
:1050E0000360C1E90045002A40F03482224F234882
:1050F000234D4BE0A805002020A7010044A7010094
:1051000060A7010008110020B4A701006C1900205D
:105110000C20054064FBFF1FBCFAFF1F08FAFF1FAD
:105120006CA701006819002074A701005C1700201B
:1051300064360020D4FAFF1FC8FAFF1FEC350020A8
:105140007CA701003C2F002034340020202F0020B9
:105150009817002044340020901800209C1700204D
:1051600094350020F02E0020D42E0020883400201A
:105170005C190020E03500207C1A00206017002018
:105180007C100020C0FAFF1F40FAFF1FA84EAE217E
:1051900005F002FA3C6808F057F9A64AA64B1268D7
:1051A000201A841A24EAE47983FB09234B444FEA4A
:1051B000E970C0EBE3200CF063FA0BF0F5FB0CF0A8
:1051C00075FD9E4C9E4B286004FB009483FB0423DA
:1051D00023448346E017C0EB63100CF051FA0BF048
:1051E000E3FB0CF063FD03011A1AC31A04EB8304FA
:1051F00092004FF4616303FB0B2BDFF89492346051
:105200005C440E2CC9F8000000F346819AF8003087
:10521000002B40F0A881002301210520C8F80030B0
:1052200008F02AF957E40D218648874D09F022FD40
:1052300086480AF0B5F92B68002B00F09B81844B5F
:10524000844A21681B6812688348844D01600B44BE
:105250001A440E21824822602B6009F00BFD08F0F1
:10526000F3F8FCF783FE0B217E4809F003FD286864
:10527000FCF77CFE0B217C4809F0FCFC2068FCF765
:1052800075FE0D21794809F0F5FC794B1868FCF79B
:105290006DFE6E480AF084F9AE21764805F07CF97F
:1052A0000123C8F80030FCF775FADAE4FCF700FBDC
:1052B000FCF758FB31683720FFF7ACFB6D4805F071
:1052C000FDFAC9E46C4C08F0BFF8236830608342F3
:1052D000BCBF00F596702060B7E49AF80070002F0C
:1052E00067D108F0B1F804462320346007F01CFEB3
:1052F0000B218146614809F0BDFC54480AF050F981
:1053000033682A68B9F1C80FCCBF394647F00101AC
:105310001B1B00297FF4A1AD9A427FF79EADDFF8F9
:1053200074B103E0B9F1C80F7FF797AD08F08CF8BE
:105330003060232007F0F8FD0146814643480AF01B
:1053400095F942480AF02CF94FF4FA6008F0D2F8C7
:1053500072B64AF202624BF28043ABF80020ABF81F
:10536000003062B633682A681B1B9342B4BF3946CB
:1053700047F001010029D5D06FE5002B40F02581D1
:10538000012772E501233C2202213A4805F074F915
:10539000FCF78EFA0A223A4936480AF0C5F8354831
:1053A0000AF0FEF8002F40F02081324805F086FA1E
:1053B0005BE501233C2202212E4805F05DF9FCF754
:1053C00077FA0A222F492B480AF0AEF829480AF04A
:1053D000E7F80027274805F071FA82E701233C220D
:1053E0000221244805F048F980E404F23C4025609D
:1053F00002F0AAF90121204603F060F9002800F02C
:105400001881214C04F23C452846214602F004FA5A
:1054100000283FF48DAD94F83C3413F0700F3FF446
:1054200087AD1A4B1D609AE5FDF780FC9CE500BF37
:105430004817002034FAFF1FC5B3A291F0F1FFFF17
:1054400089888888C4A60100D8FAFF1FA805002013
:10545000B0FAFF1F3CFAFF1F7019002034340020FF
:10546000D4A60100E4A60100F0A60100FCA60100FC
:10547000202F0020601700207C1A002020A70100A8
:105480002CA70100A8A7010008110020F436002075
:10549000983500200C2005406A4C0021082007F0B8
:1054A000EBFFFEF711F9237863B30621664809F094
:1054B000E1FB07F0C9FF014664480AF0D7F808216C
:1054C000634809F0D7FB396860480AF0CFF85F48B5
:1054D0000AF066F807F0B8FFFCF748FD10215D48B8
:1054E00009F0C8FB296859480AF0C0F8D9F800103B
:1054F00056480AF0BBF8316854480AF0B7F85348E8
:105500000AF04EF8642007F0F5FF72B6524B4AF2EB
:1055100002614BF2804219801A8062B64F4833789C
:1055200099F80020297804F049F94D4803F092FDDC
:1055300023781BB107F088FFFCF718FD0121082034
:1055400007F09AFF642007F0D5FF464B1868FEF776
:1055500041F95BE64FF47A7007F0CCFFC6E5FEF741
:10556000E5FE22788AE501233C2202213E4805F02F
:1055700083F850E60A210E20FEF77CF84FF0FF3347
:105580002B605CE6FCF794F937480AF009F80C2226
:105590003649354809F0C8FF33480AF001F8324867
:1055A00005F08CF92B6875E5FCF782F92E4809F0B7
:1055B000F7FF03222E492C4809F0B6FF2A4809F0CC
:1055C000EFFF294805F07AF9E0E401233C220221AB
:1055D000254805F051F8FCF76BF90A2225492248C5
:1055E00009F0A2FF204809F0DBFF0A2222491E48E9
:1055F00009F09AFF1C4809F0D3FF0127D5E60123E3
:105600003C220221184805F037F8FCF751F90A222C
:105610001A49154809F088FF134809F0C1FF0A220A
:105620001549114809F080FF0F4809F0B9FF01271B
:10563000D0E60146204603F041F800287FF4E1AEB1
:1056400076E400BF44FBFF1FDCA60100A805002094
:1056500088A7010094A701000C2005403C1A0020F7
:1056600064180020A8FAFF1F6017002050A6010050
:10567000BCA401002CA7010038A70100A8A70100C5
:10568000F8B50021054609F0C1FC002800F0D080E3
:1056900041F23C43EB5C072B00F2CA80DFE803F0E9
:1056A000C9D0D7DEE5ECF304D5F81C74C5F838048E
:1056B00005F587643B1D224607F5827705F23C41DC
:1056C00033F8026B42F8046F9F42F9D1D5F8207489
:1056D00005F5C7623B1D07F5827733F8026B42F888
:1056E000046F9F42F9D1D5F8247405F638023B1DAA
:1056F00007F5827733F8026B42F8046F9F42F9D1C5
:10570000D5F8287405F638223B1D07F5827733F863
:10571000026B42F8046F9F42F9D1D5F82C7405F65C
:1057200038423B1D07F5827733F8026B42F8046F6D
:105730009F42F9D1D5F8307405F638623B1D07F564
:10574000827733F8026B42F8046F9F42F9D1D5F8A3
:10575000347405F581523B1D183207F5827733F812
:10576000026B42F8046F9F42F9D105F59152031D77
:10577000183200F5827033F8026B42F8046F8342EE
:10578000F9D1D5F8180480B105F5886200F50067F5
:1057900032F9043C30F9026B03FB06F3DB1387425A
:1057A00022F8043C02F10402F2D105F5A2500430C3
:1057B000384E0AF0FFFF05F2164705F1160054F8BF
:1057C000041F21FB01F1B1FA81F336F81320B1FB7C
:1057D000F2F31A445308B1FBF3F10B445B0820F8D1
:1057E000023FB842EBD141F23D430122EA54D5F8E1
:1057F0001C0409F0C7FBD5F8200409F0C3FBD5F859
:10580000240409F0BFFBD5F8280409F0BBFB41F2E2
:105810003C430422EA5405F586610EC9D5F82C04F0
:10582000C5F81C04C5F82014C5F82424C5F828348C
:10583000F8BD41F23C430122C5F81C04EA54F8BD0E
:1058400041F23C430222C5F82004EA54F8BD41F27B
:105850003C430322C5F82404EA54F8BD41F23C431A
:105860000422C5F82804EA54F8BD41F23C4305225D
:10587000C5F82C04EA54F8BD41F23C430622C5F8B1
:105880003004EA54F8BD41F23C430722C5F8340421
:10589000EA54F8BD18B0010000207047002070479E
:1058A00070B5194C064682B00D462046317A00F09C
:1058B000A7FEC5F30721204600F0AEFBE9B2204663
:1058C00000F0AAFB0023627B21690093204601F0CF
:1058D00023F910B1002002B070BD2569327A617BD6
:1058E0000190012300932846022301F03DF901288D
:1058F000F0D9206901F052F90502206901F04EF952
:10590000284302B070BD00BFE036002070B5154CD2
:10591000242908BFC28082B00D46017A204616466F
:1059200000F06EFEC5F30721204600F075FBE9B2DA
:10593000204600F071FBC6F30721204600F06CFB07
:10594000F1B2204600F068FB00230093627B2169DE
:105950002046012301F0E0F8B0FA80F0400902B0DF
:1059600070BD00BFE03600202DE9F0413E4B01261E
:1059700006715F7BD3F8108086B00446384600F08D
:1059800045FC0025394B019039462A464046039391
:1059900004962B460295009500F04CFD052007F07B
:1059A000A9FD204644F260023021FFF7AFFF2046F8
:1059B0006C222621FFF7AAFF20464FF4F972282116
:1059C000FFF7A4FF204640F622722C21FFF79EFF2E
:1059D000204644F246423C21FFF798FF204640F221
:1059E00037122421FFF792FF204644F2FF023021B4
:1059F000FFF78CFF732202212046FFF787FF4FF449
:105A0000C87007F077FD204641F61D522E21FFF7A2
:105A10007DFF042211462046FFF778FF20464FF411
:105A200098720621FFF772FF204610220A21FFF725
:105A30006DFF2A4620460E21FFF768FF204643F6F9
:105A40003C421021FFF762FF204647F67F72222179
:105A5000FFF75CFF204636222421FFF757FF304630
:105A6000667206B0BDE8F081E0360020A086010035
:105A7000F8B51C46154606460F46FFF711FF20EA0B
:105A8000040040EA0504394630462246FFF73EFF4F
:105A9000002814BF20460020F8BD00BF08B5002232
:105AA00001234FF49271FFF7E3FF80B208BD00BFFE
:105AB0000F2928BF0F210F2A28BF0F2242EA011207
:105AC0002021FFF723BF00BF10B510220A21044692
:105AD000FFF71CFF30B1204600224FF48071FFF722
